:100000000C946E1A0C949F1A0C949F1A0C949F1ABD
:100010000C949F1A0C949F1A0C949F1A0C949F1A7C
:100020000C949F1A0C949F1A0C949F1A0C949F1A6C
:100030000C949F1A0C949F1A0C949F1A0C949F1A5C
:100040000C949F1A0C9441930C949F1A0C949F1A31
:100050000C949F1A0C949F1A0C94817B0C9448E882
:100060000C949F1A0C94A8D80C949F1A0C949F1A65
:100070000C949F1A0C949F1A0C949F1A0C949F1A1C
:100080000C949F1A0C949F1A0C949F1A0C949F1A0C
:100090000C949F1A0C949F1A0C949F1A0C949F1AFC
:1000A0000C949F1A0C949F1A0C949F1A0C949F1AEC
:1000B0000C949F1A0C949F1A0C949F1A0C949F1ADC
:1000C0000C949F1A0C949F1A0C949F1A0C949F1ACC
:1000D0000C949F1A0C949F1A0C949F1A0C949F1ABC
:1000E0000C949F1A32E435E424E428E42EE46CE412
:1000F00039E43DE443E447E44BE451E455E459E496
:100100006CE45FE463E467E462E767E76CE776E783
:1001100080E7F9E78AE792E79AE7A4E7AEE7B8E76E
:10012000C7E7D1E7F9E7DBE7E5E7EFE7FCEF85EEC7
:10013000BEEE38F0BEEEBEEEBEEEBEEEBEEEBEEEE3
:10014000BEEEBEEEBEEEBEEEBEEEBEEEBEEEBEEE4F
:10015000BEEEBEEEBEEEBEEEBEEEBEEEBEEEBEEE3F
:10016000BEEEBEEEBEEEBEEE32F0BEEEBEEEBEEEB9
:10017000BEEEBEEEBEEEBEEEBEEE0BF0BEEEBEEED0
:10018000BEEEBEEEBEEEBEEEBEEEBEEEBEEEBEEE0F
:100190004FF0BBEE084AD73B3BCE016E84BCBFFD9F
:1001A000C12F3D6C74319ABD56833DDA3D00C77F47
:1001B00011BED9E4BB4C3E916BAAAABE00000080E0
:1001C0003F05A84CCDB2D44EB93836A9020C50B96F
:1001D000918688083CA6AAAA2ABE000000803F009B
:1001E0000C94E5E70C94CD9C0C94C6E10C949C8592
:1001F0000C9473CA0C9424E40C945FE40C94F6827F
:100200000C941F700C9432F00C94D1E70C9468D2CB
:100210000C94A4E70C9483FC0C94A5690C94059CA5
:100220000C94579E0C941C9F0C94A2690C94C7E7E5
:100230000C94A2850C9455E40C94A8850C94B28B74
:100240000C943DE40C9470870C94E19F0C9428E48A
:100250000C94DFA10C94D6660C9474850C9445CA5A
:100260000C946CE70C9485EE0C9469D20C9476E7B0
:100270000C9480D20C949FF00C94FCEF0C9438F00A
:100280000C94E4850C94A5790C9450C70C94EFE77A
:100290000C947A870C9483850C9443E40C948AE73D
:1002A0000C9451E40C94C7890C94136C0C942EE4B8
:1002B0000C94AEE70C9463E40C94929D0C940FEEB6
:1002C0000C94EDDF0C946AC80C940EDF0C94F9E7E3
:1002D0000C9459E40C9492E70C94AEFA0C949AE7BF
:1002E0000C9479850C9475CA0C946CE40C947E85FE
:1002F0000C94BBEE0C94ED660C9406670C945D8335
:100300000C94D4C50C9462E70C9467E70C9435E424
:100310000C9408670C940BF00C9480E70C9467E441
:100320000C94838A0C9434E00C9421EE0C946B872B
:100330000C9432E40C941BCA0C94BEEE0C94A6A050
:100340000C943AA30C94CAC20C944FF00C94A86974
:100350000C9475870C94DBE70C9431DF0C944BE420
:100360000C9439E40C9447E40C94B8E70C940467BB
:100370000C94F0DF0C9467A14E414E494E495459FC
:10038000494E46CDCCCC3D0AD7233C17B7D1387760
:10039000CC2B329595E6241FB14F0A000020410076
:1003A00000C84200401C4620BCBE4CCA1B0E5AAEC0
:1003B000C59D74434F4D4D554E49434154494F4E91
:1003C0000044525952554E004552524F5253004923
:1003D0004E464F004543484F0047322F4733206277
:1003E000616420706172616D65746572730A005397
:1003F0006C6565702E2E2E00486F6D652058592053
:1004000066697273740A00486F6D652058592066DA
:100410006972737400205A3A200020593A20004231
:10042000656420583A20004D65736820706F696ECE
:10043000742063616E6E6F74206265207265736FE5
:100440006C7665640A00436C69636B20746F20727C
:100450006573756D652E2E2E004E6F206D6F76655F
:100460002E00456E642066696C65206C6973740AA1
:1004700000426567696E2066696C65206C697374FB
:100480000A00286E6F2066696C652900534420704D
:1004900072696E74696E67206279746520004E6FB0
:1004A00074205344207072696E74696E670A004349
:1004B000757272656E742066696C653A20002569F4
:1004C000730025696D2025697300256968202569F9
:1004D0006D202569730025696420256968202569D8
:1004E0006D202569730025697920256964202569B7
:1004F000682025696D20256973005072696E74202B
:1005000074696D653A2000D403CF03C803C103B3F7
:10051000036F66660044454255473A004B494C4CD0
:1005200045442E20004D3131332053006F6B004283
:100530006967426F782050726F204F66662E002CDC
:1005400020002C2000544845524D414C5F50524FE2
:1005500054454354494F4E004155544F5245504F16
:1005600052545F53445F53544154555300454D45D5
:100570005247454E43595F50415253455200434103
:1005800053455F4C494748545F4252494748544E8F
:1005900045535300544F47474C455F4C49474854D7
:1005A0005300534F4654574152455F504F574552A1
:1005B000004255494C445F50455243454E54004C0F
:1005C0004556454C494E475F44415441005A5F509F
:1005D000524F4245004155544F4C4556454C0050F2
:1005E00052494E545F4A4F420050524F4752455372
:1005F00053004155544F5245504F52545F54454D4E
:100600005000564F4C554D455452494300454550B6
:10061000524F4D0053455249414C5F584F4E5F5821
:100620004F4646004649524D574152455F4E414D57
:10063000453A4D61726C696E20312E312E392D6232
:10064000627020286D65746A6161636B2F6D6172E1
:100650006C696E2D626967626F7870726F292053C2
:100660004F555243455F434F44455F55524C3A689E
:10067000747470733A2F2F6769746875622E636F94
:100680006D2F6D6574616A61636B2F6D61726C694A
:100690006E2D626967626F7870726F2050524F548E
:1006A0004F434F4C5F56455253494F4E3A312E30CF
:1006B000204D414348494E455F545950453A42699F
:1006C00067426F782050726F204558545255444508
:1006D000525F434F554E543A3120555549443A6381
:1006E000656465326132662D343161322D343734C0
:1006F000382D396231322D63353563363266333603
:100700003766660A002F2F20004D31343520533CC8
:10071000696E6465783E206F7574206F6620726123
:100720006E67652028302D31290A002054002052A0
:1007300000416363656C65726174696F6E3A205045
:10074000005741524E494E4721204C6F77205A2086
:100750004A65726B206D6179206C65616420746FED
:1007600020756E77616E7465642070617573657352
:100770002E0A0020466C6F773A20000001111030DD
:1007800025FFFFFFFF362F3723FFFFFFFF39383EDE
:1007900021FFFFFFFFFFFF2D090708FFFF171618B6
:1007A000FFFFFF09410208401D1C27FF43290A00E3
:1007B00061626C656420286D696E2074656D7020BF
:1007C00000436F6C64206578747275646573206192
:1007D0007265200020643A0020693A0020703A00D7
:1007E0004E6F2063617365206C696768740A004D01
:1007F00065736820706F696E742063616E6E6F74CC
:10080000206265207265736F6C7665640A004D34F2
:10081000323120696E636F72726563742070617229
:10082000616D657465722075736167650A00454581
:1008300050524F4D204F4B0A003F5A206F75742085
:100840006F662072616E676520282D323020746FCC
:10085000203230290A003A200050726F6265205A17
:10086000204F666673657400416374697665204540
:10087000787472756465723A2000496E76616C69AD
:10088000642065787472756465720A0042696C69E7
:100890006E656172204C6576656C696E6720477283
:1008A00069643A0A00486F6D696E67206661696C19
:1008B000656400202844525952554E290047323968
:1008C000204175746F20426564204C6576656C69C3
:1008D0006E67003F20284C2C522C462C4229206F5A
:1008E0007574206F6620626F756E64732E0A003F08
:1008F0002856296572626F7365206C6576656C2079
:10090000697320696D706C61757369626C6520280C
:10091000302D34292E0A00426164205A2076616C01
:1009200075650A004E6F2062696C696E65617220A0
:10093000677269640A0046696C652064656C657459
:1009400065643A0044656C6574696F6E2066616920
:100950006C65642C2046696C653A200020746F6FCA
:10096000206C6F6E6720657874727573696F6E2086
:1009700070726576656E7465640A0020636F6C64DE
:1009800020657874727573696F6E20707265766514
:100990006E7465640A00453120544845524D414CFF
:1009A0002052554E41574159004245442054484534
:1009B000524D414C2052554E4157415900546865A3
:1009C000726D616C2052756E617761790057726942
:1009D00074696E6720746F2066696C653A20006FD9
:1009E00070656E206661696C65642C2046696C6573
:1009F0003A20006F70656E206661696C65642C201A
:100A000046696C653A200046696C652073656C65C3
:100A1000637465640A002053697A653A2000466968
:100A20006C65206F70656E65643A20002066696CA5
:100A3000653A2000646F696E6700667265736800CE
:100A40004E6F772000454E4420535542524F555427
:100A5000494E450A002220706F7300222070617297
:100A6000656E743A2200535542524F5554494E45D3
:100A70002043414C4C207461726765743A22004BEC
:100A8000494C4C45442E2000747279696E6720747D
:100A90006F2063616C6C207375622D67636F646592
:100AA0002066696C6573207769746820746F6F20A5
:100AB0006D616E79206C6576656C732E204D4158A2
:100AC000206C6576656C2069733A004572726F72AE
:100AD0003A006F70656E206661696C65642C204613
:100AE000696C653A200043616E6E6F74206F7065AB
:100AF0006E2073756264697220006563686F3A00E6
:100B0000205A3A0020593A0020436F756E742058DD
:100B10003A0020453A00205A3A0020593A00583A03
:100B2000003A004361703A00205A002059005800F2
:100B300020204D61783A2000205A002059005800AA
:100B400020204D696E3A20004F6E20004F666600EF
:100B5000536F667420656E6473746F70733A20000F
:100B600020643A0020693A0020703A00496E7661AC
:100B70006C69642065787472756465720A004B64F0
:100B8000200023646566696E652044454641554CE6
:100B9000545F004B69200023646566696E652044DC
:100BA000454641554C545F004B70200023646566F8
:100BB000696E652044454641554C545F0050494498
:100BC000204175746F74756E652066696E6973680F
:100BD0006564212050757420746865206C6173749D
:100BE000204B702C204B6920616E64204B64206385
:100BF0006F6E7374616E74732066726F6D206265C0
:100C00006C6F7720696E746F20436F6E66696775CD
:100C1000726174696F6E2E680A00504944204175F4
:100C2000746F74756E65206661696C6564212074EB
:100C3000696D656F75740A00453120544845524D01
:100C4000414C2052554E4157415900424544205491
:100C50004845524D414C2052554E41574159005440
:100C60006865726D616C2052756E617761790045BF
:100C7000312048656174696E67206661696C6564DE
:100C8000004265642068656174696E672066616909
:100C90006C65640048656174696E67206661696CA3
:100CA000656400504944204175746F74756E652009
:100CB0006661696C6564212054656D70657261744C
:100CC00075726520746F6F20686967680A00204B31
:100CD000643A2000204B693A2000204B703A2000F3
:100CE0000A20436C617373696320504944200A00F1
:100CF0002054753A2000204B753A2000206D617811
:100D00003A2000206D696E3A200020643A200020CD
:100D1000626961733A2000504944204175746F74D0
:100D2000756E65206661696C65642120426164208E
:100D30006578747275646572206E756D6265720A8D
:100D400000504944204175746F74756E652073744A
:100D50006172740A004F66660A0046616465204845
:100D600065696768742000426564204C6576656C2F
:100D7000696E6720004661696C656420746F206548
:100D80006E61626C6520426564204C6576656C69B5
:100D90006E670A004F666673657473206170706CCD
:100DA000696564004572723A20546F6F2066617203
:100DB0002100546F6F206661722066726F6D207221
:100DC00065666572656E636520706F696E740A0092
:100DD0004D3234004D323320257300556E6B6E6FEB
:100DE000776E20636F6D6D616E643A2022005072E1
:100DF0006F62696E67206661696C65640A00507293
:100E00006F62696E67206661696C656400205A3A9A
:100E1000200020593A200042656420583A200048BA
:100E20006F6D652025732573257320666972737451
:100E3000002066697273740A005A0059005800480D
:100E40006F6D65200053442063617264206F6B0AEC
:100E5000006F70656E526F6F74206661696C6564B7
:100E60000A00766F6C756D652E696E697420666117
:100E7000696C65640A00534420696E697420666178
:100E8000696C0A00526573746F7265206661696CE3
:100E900073616665004C6F61642073657474696E7C
:100EA000677300496E697469616C697A65204545AC
:100EB00050524F4D0053746F72652073657474699E
:100EC0006E67730046696C616D656E74004D6F747A
:100ED000696F6E0054656D7065726174757265003E
:100EE0004D61696E005072656865617420414253BE
:100EF00020636F6E66005072656865617420504CA7
:100F00004120636F6E66005049442D4400504944AF
:100F10002D44005049442D49005049442D4900506A
:100F200049442D50005049442D500020082046616E
:100F300063740020082046616374002008204D611E
:100F400078002008204D6178002008204D6178004D
:100F50002008204D696E002008204D696E00200891
:100F6000204D696E004F6666004F6E20004175741B
:100F70006F74656D700046616E2073706565640006
:100F800046616E2073706565640046616E20737003
:100F90006565640042656400426564004265640002
:100FA0004E6F7A7A6C65004E6F7A7A6C65004E6F80
:100FB0007A7A6C6500436F6E74726F6C0053746F55
:100FC00072652073657474696E67730042656400AE
:100FD00042656400426564004E6F7A7A6C65004E2B
:100FE0006F7A7A6C65004E6F7A7A6C650046616E36
:100FF0002073706565640046616E2073706565647A
:101000000046616E2073706565640054656D70659F
:10101000726174757265005654726176206D696EE6
:10102000005654726176206D696E00565472617676
:10103000206D696E00566D696E00566D696E0056C2
:101040006D696E00566D6178204500566D6178209F
:101050004500566D6178204500566D6178205A0034
:10106000566D6178205A00566D6178205A00566D91
:101070006178205900566D6178205900566D61786D
:10108000205900566D6178205800566D61782058BF
:1010900000566D61782058004D6F74696F6E004383
:1010A0006172642072656D6F76656400436172647D
:1010B00020696E7365727465640000060900FE079E
:1010C00001920321207FFF07FF07FF0000000600B9
:1010D00000010707060200808080808000800302F4
:1010E00002060105A0A00507070600005050F850B1
:1010F000F850500507070600002078A07028F0205F
:10110000050707060000C0C810204098180507070B
:101110000600006090A040A8906802030306010446
:10112000C0408003070706010020408080804020E7
:1011300003070706010080402020204080050505A8
:1011400006000120A870A820050505060001202042
:10115000F820200203030602FFC0408005010106BB
:101160000003F8020202060200C0C00505050600E1
:101170000108102040800507070600007088888855
:1011800088887003070706010040C040404040E0E7
:10119000050707060000708808708080F8050707BB
:1011A000060000F81020100808F0050707060000E8
:1011B00010305090F81010050707060000F880F076
:1011C00008088870050707060000708080F088888E
:1011D00070050707060000F80810202020200507EA
:1011E0000706000070888870888870050707060069
:1011F0000070888878080870020505060200C0C0E3
:1012000000C0C00206060602FFC0C000C040800445
:101210000707060000102040804020100503030649
:101220000002F800F80407070601008040201020A3
:101230004080050707060000708808102000200580
:10124000070706000070880868A8A8700507070649
:101250000000708888F8888888050707060000F075
:101260008888F08888F0050707060000708880806D
:10127000808870050707060000F08888888888F055
:10128000050707060000F88080F08080F805070752
:10129000060000F88080F0808080050707060000C7
:1012A000708880B8888870050707060000888888DD
:1012B000F888888801070706020080808080808087
:1012C0008005070706000038101010109060050711
:1012D000070600008890A0C0A090880507070600B8
:1012E00000808080808080F805070706000088D88D
:1012F000A8888888880507070600008888C8A898F5
:101300008888050707060000708888888888700527
:101310000707060000F08888F08080800507070630
:10132000000070888888A89068050707060000F00C
:101330008888F0A0908805070706000078808070F4
:101340000808F0050707060000F8202020202020CC
:1013500005070706000088888888888870050707C1
:101360000600008888888888502005070706000046
:101370008888888888A85005070706000088885054
:10138000205088880507070600008888885020209C
:1013900020050707060000F80810204080F8030722
:1013A00007060100E08080808080E00505050600DA
:1013B000018040201008030707060100E0202020DC
:1013C0002020E005030306000420508805010106E3
:1013D0000000F8020202060205804005050506002D
:1013E0000070087888780507070600008080B0C87C
:1013F0008888F00505050600007080808870050764
:101400000706000008086898888878050505060022
:10141000007088F880700507070600003048E0403B
:101420004040400506060600FF7088887808700571
:1014300007070600008080B0C88888880107070673
:101440000200800080808080800308080601FF2061
:101450000020202020A04004070706000080809084
:10146000A0C0A090030707060100C04040404040D4
:10147000E0050505060000D0A8A8A8A805050506F2
:101480000000B0C8888888050505060000708888B7
:1014900088700506060600FFF08888F08080050643
:1014A000060600FF7888887808080505050600000C
:1014B000B0C880808005050506000070807008F0C7
:1014C0000407070600004040E040404030050505A5
:1014D0000600008888889868050505060000888849
:1014E0008850200505050600008888A8A850050535
:1014F0000506000088502050880506060600FF8873
:101500008888780870050505060000F8102040F866
:1015100003070706010020404080404020010707E4
:10152000060200808080808080800307070601001B
:101530008040402040408005020206000268900082
:10154000000006000000000000300E0100C00E0A7E
:1015500000500F1400D00F1E0060102800E0103261
:101560000070113C00F01146007012500000135A38
:10157000008013640000146E00901478001015822F
:101580000090158C00101696009016A0001017AA57
:10159000009017B4001018BE009018C8001019D29F
:1015A000009019DC00101AE600801AF000001BFA07
:1015B00000801B0401F01B0E01701C1801F01C229E
:1015C00001601D2C01E01D3601501E4001D01E4A55
:1015D00001401F5401B01F5E0130206801A020723D
:1015E0000110217C0190218601002290016026F4E7
:1015F00001902A5802802EBC0250322003E035842C
:10160000035039E803803C4C0408FFFFFFFFFF0054
:1016100001010101016265640A002C207379737471
:10162000656D2073746F7070656421204865617406
:1016300065725F49443A20004265642068656174C0
:10164000696E67206661696C6564004865617469EC
:101650006E67206661696C6564004531204865618C
:1016600074696E67206661696C65640048656174C1
:10167000696E67206661696C6564001000C90210BC
:10168000012C014001220170011801B0010E01F08E
:101690000104015002FA00B002F0003003E600D06D
:1016A00003DC009004D2007005C800A006BE000054
:1016B00008B400B009AA00D00BA000600E9600602C
:1016C000118C000015820020197800C01D6E00A04A
:1016D000226400B0275A00902C500000314600E0F0
:1016E000343C0010383200903A2800603C1E00A0C4
:1016F0003D1400803E0A00203F0000453120457225
:10170000723A204D415854454D50004572723A206E
:101710004D415854454D5020424544004D41585488
:10172000454D502074726967676572656400453184
:10173000204572723A204D494E54454D5000457235
:10174000723A204D494E54454D5020424544004D7B
:10175000494E54454D5020747269676765726564DF
:10176000004D383420582059205A204500202F00A1
:101770002042403A0020403A00507265686561742A
:101780002041425320456E64005072656865617463
:10179000204142532042656400507265686561745F
:1017A000204142530050726570617265004D3432C1
:1017B00038005072656865617420504C4100436F79
:1017C0006F6C646F776E005072656865617420415C
:1017D00042530044697361626C6520737465707074
:1017E000657273004D38340053657420686F6D6501
:1017F000206F666673657473004661646520486592
:101800006967687400466164652048656967687443
:10181000004661646520486569676874004F6666C4
:10182000004F6E2000426564204C6576656C696EE1
:1018300067004C6576656C20626564004732380A43
:10184000473239004175746F20686F6D650047320B
:1018500038004D6F76652061786973004D61696E5F
:10186000004D6F76652058004D6F76652059004D0C
:101870006F7665205A004578747275646572004D04
:101880006F766520302E316D6D004D6F766520319D
:101890006D6D004D6F76652031306D6D004D6F764A
:1018A00065206178697300457874727564657200AB
:1018B0004D6F7665205A004D6F76652059004D6F4B
:1018C00076652058004578747275646572004D6FB6
:1018D0007665205A004D6F76652059004D6F76650C
:1018E0002058005072657061726500496E697469B4
:1018F000616C697A6520454550524F4D00436F6ECB
:1019000074726F6C0000060900FE00000000000108
:10191000090008FE000005080806000040F0C8881D
:1019200088987810050808060000C0F8888888881C
:1019300088F80505050600012030F8302005080864
:101940000600002070F820202020E005090906008C
:10195000FF2070A8A8B8888870200509090600FF34
:10196000E080C0B0A8283028280509090600FFF843
:10197000A88888888888A8F8050A0A0600FE2050EA
:1019800050505088A8A8887003030306000340A0A5
:101990004025753A2530327500253032753A2530AC
:1019A00032750025756420253032753A2530327540
:1019B00000202020202020005A0059002020202034
:1019C0000058000920000000000000000000000096
:1019D00000003FFFF00000000000000000000000D9
:1019E000003800700000000000000000000000004F
:1019F00030FC30000000000000000000000000206B
:101A0000FC10000000000000000000000000207832
:101A10001000000000000000000000000020301056
:101A20000000000000000000000000002C00D03F7B
:101A3000C0000000000000002082002E31D07FE0B6
:101A4000000000000000001041002F7BD07FE0006C
:101A50000000000000001041002F7BD07FE000005C
:101A600000000000002082002E31D03FC0000000A6
:101A7000000000004104002C00D03FC00000000026
:101A80000000008208002030107FE000000000000D
:101A900000008208002078107FE0000000000000B5
:101AA0000041040020FC107FE00000000000000066
:101AB00020820030FC301F80000000000000000089
:101AC00000003800700F0000000000000000FFFF61
:101AD000C03FFFF0060000000000000000FFFFC054
:101AE0000000000000000000000000000000003FB7
:101AF000FFF00000000000000000000000003800BF
:101B0000700000000000000000000000003186307E
:101B1000000000000000000000000000238710000B
:101B20000000000000000000000000278790000077
:101B3000000000000000000000002F87D00000001F
:101B40000000000000000000002F03D03FC0000094
:101B500000000000002082002030107FE000000024
:101B6000000000001041002078107FE0000000001D
:101B70000000001041002078107FE000000000000D
:101B800000002082002030103FC000000000000054
:101B9000004104002F03D03FC000000000000000FF
:101BA0008208002F87D07FE0000000000000008244
:101BB00008002787907FE00000000000000041043B
:101BC000002387107FE0000000000000002082005A
:101BD0003186301F80000000000000000000003847
:101BE00000700F0000000000000000FFFFC03FFF7A
:101BF000F0060000000000000000FFFFC000000031
:101C000024F4D43050C38E20C2A24017828B7011AE
:101C1000127A910D816CD90AA861E108C75866074C
:101C2000615143061E4B5D05C145A7041A411104CD
:101C3000093D9803713931034036DB026533910267
:101C4000D4305402802E1D02632CEE01752AC5018A
:101C5000B028A001102781018F2564012B244B019E
:101C6000E0223401AC211F018D200D01801FFC00FA
:101C7000841EED00971DDF00B81CD200E61BC600D5
:101C8000201BBC00641AB200B219A8000A19A000F7
:101C90006A189900D117910040178B00B51684007F
:101CA00031167E00B31579003A157300C7146F0022
:101CB00058146A00EE1366008813630025135E0053
:101CC000C7125B006C12570015125400C11151006D
:101CD00070114F0021114B00D61049008D104700A4
:101CE0004610440002104200C00F4000800F3E002A
:101CF000420F3C00060F3B00CB0E3800930E37001E
:101D00005C0E3500270E3400F30D3200C10D31009A
:101D1000900D3000600D2E00320D2D00050D2C00B1
:101D2000D90C2B00AE0C2900850C29005C0C270077
:101D3000350C27000E0C2600E80B2400C40B2400F1
:101D4000A00B23007D0B23005A0B2100390B21002F
:101D5000180B2000F80A1F00D90A1E00BB0A1E003B
:101D60009D0A1D00800A1D00630A1C00470A1B0013
:101D70002C0A1B00110A1A00F7091A00DD091900C4
:101D8000C4091900AB091900920917007B09180052
:101D9000630917004C0916003609160020091600C1
:101DA0000A091500F5081500E0081400CC08140015
:101DB000B8081400A4081400900813007D0812004D
:101DC0006B0813005808120046081200340811006E
:101DD000230811001208110001081100F00710007B
:101DE000E0071000D0071000C0071000B0070F0078
:101DF000A107100091070E0083070F0074070F0062
:101E000065070E0057070E0049070E003B070D003F
:101E10002E070E0020070D0013070D0006070D000A
:101E2000F9060C00ED060D00E0060C00D4060C00CF
:101E3000C8060C00BC060C00B0060C00A4060B0083
:101E400099060C008D060B0082060B0077060B002E
:101E50006C060B0061060A0057060B004C060A00D0
:101E600042060A0038060A002E060A0024060A0066
:101E70001A060A001006090007060A00FD050900F7
:101E8000F4050900EB050900E2050900D905090080
:101E9000D0050900C7050900BE050900B505080001
:101EA000AD050800A50509009C050800940508007B
:101EB0008C050800840508007C05080074050800EE
:101EC0006C050700650508005D050700560508005C
:101ED0004E050700470507004005080038050700C4
:101EE000310507002A050700230507001C05060029
:101EF000160507000F050700080506000205070084
:101F0000FB040600F5040700EE040600E8040600E2
:101F1000E2040700DB040600D5040600CF04060037
:101F2000C9040600C3040600BD040600B704060089
:101F3000B1040500AC040600A6040600A0040500D8
:101F40009B04060095040500900406008A04050021
:101F500085040500800406007A0405007504050068
:101F6000700405006B0405006604050061040500AB
:101F70005C04050057040500520405004D040500EB
:101F800048040500430405003E0404003A0405002B
:101F900035040500300404002C0405002704040067
:101FA000230405001E0404001A040400160405009E
:101FB000110404000D0404000904050004040400D5
:101FC00000040400FC030400F8030400F40304000C
:101FD000F0030400EC030400E8030400E40304003D
:101FE000E0030400DC030400D8030400D40304006D
:101FF000D0030400CC030400C8030300C50303009E
:1020000024F404D9201BC40C5C0E9804C4095F029C
:1020100065077101F405F900FB04B300480487006B
:10202000C10369005803550003034500BE023A008E
:102030008402310053022A002902250004022000F4
:10204000E4011C00C8011900AF0117009801140039
:1020500084011300710110006101100051010E0094
:1020600043010D0036010B002B010B0020010B007A
:10207000150109000C01090003010800FB0008001C
:10208000F3000800EB000700E4000600DE00060095
:10209000D8000600D2000600CC000500C7000500ED
:1020A000C2000500BD000400B9000400B500040032
:1020B000B1000400AD000400A9000400A500030065
:1020C000A20003009F0004009B000300980003008F
:1020D0009500020093000300900003008D000200B1
:1020E0008B000300880002008600020084000300C9
:1020F000810002007F0002007D0002007B000200E0
:1021000079000200770001007600020074000200EE
:1021100072000100710002006F0002006D000100FA
:102120006C0002006A000100690002006700010003
:102130006600010065000100640002006200010009
:1021400061000100600001005F0002005D0001000D
:102150005C0001005B0001005A0001005900010011
:102160005800010057000100560001005500010011
:102170005400010053000000530001005200010010
:1021800051000100500001004F0001004E0000000E
:102190004E0001004D0001004C0001004B0000000A
:1021A0004B0001004A000100490001004800000006
:1021B0004800010047000100460000004600010001
:1021C00045000000450001004400010043000000FC
:1021D00043000100420000004200010041000000F5
:1021E00041000100400001003F0000003F000100ED
:1021F0003E0000003E0001003D0000003D000100E7
:102200003C0000003C0000003C0001003B000000DE
:102210003B0001003A0000003A00010039000000D4
:1022200039000100380000003800000038000100CB
:1022300037000000370001003600000036000000C3
:1022400036000100350000003500000035000100B7
:1022500034000000340000003400010033000000AE
:1022600033000000330001003200000032000000A3
:102270003200010031000000310000003100010097
:102280003000000030000000300001002F0000008E
:102290002F0000002F0000002F0001002E00000082
:1022A0002E0000002E0001002D0000002D00000077
:1022B0002D0000002D0001002C0000002C0000006B
:1022C0002C0000002C0001002B0000002B0000005F
:1022D0002B0000002B0001002A0000002A00000053
:1022E0002A0000002A000100290000002900000047
:1022F000290000002900000029000100280000003A
:10230000280000002800000028000000280001002C
:102310002700000027000000270000002700000021
:102320002700010026000000260000002600000013
:102330002600000026000100250000002500000006
:1023400025000000250000002500000025000100F8
:1023500024000000240000002400000024000000ED
:1023600024000100230000002300000023000000DF
:1023700023000000230000002300000023000100D0
:1023800022000000220000002200000022000000C5
:1023900022000000220001002100000021000000B6
:1023A00021000000210000002100000021000000A9
:1023B000210001002000000020000000200000009B
:1023C000200000002000000020000000200000008D
:1023D000200001001F0000001F0000001F0000007F
:1023E0001F0000001F0000001F0000001F00010070
:1023F0001E0000001E0000001E0000001E00000065
:10240000043700001E290000511B00005810000076
:1024100010090000CC040000780200004101000017
:1024200046696C2E204469612E0046696C2E20445A
:1024300069612E004F6666004F6E20004520696E70
:10244000206D6D3300436F6E74726F6C0043616E6C
:102450006E6F7420656E7465722073756264697244
:102460003A2000022E2E004D61696E0050726F748A
:1024700065637465642050696E0A005374616E640C
:1024800061726420446576696174696F6E3A2000F8
:102490002052616E67653A2000204D61783A200035
:1024A000204D696E3A20004D65616E3A2000466904
:1024B0006E6973686564210A002072616E67653A0F
:1024C0002000206D61783A2000206D696E3A20006E
:1024D000207369676D613A2000206D65616E3A2056
:1024E000003A207A3A2000206F662000205A00200F
:1024F0005900205800476F696E6720746F3A004397
:102500006C6F636B776973650A00436F756E7465F2
:10251000722D0020446972656374696F6E3A200001
:10252000202020616E676C653A20005374617274DC
:10253000696E67207261646975733A2000506F7329
:102540006974696F6E696E67207468652070726F58
:1025500062652E2E2E0A003F4E756D626572206FE9
:1025600066206C65677320696E206D6F76656D659A
:102570006E74206E6F7420706C61757369626C6527
:102580002028302D3135292E0A003F2028582C597B
:1025900029206F7574206F6620626F756E64732ECC
:1025A0000A003F53616D706C652073697A65206E17
:1025B0006F7420706C61757369626C652028342DAE
:1025C0003530292E0A004D3438205A2D50726F6252
:1025D00065205265706561746162696C6974792007
:1025E000546573740A003F2856296572626F7365DB
:1025F000206C6576656C20697320696D706C6175FF
:102600007369626C652028302D34292E0A0020570A
:102610003A004520436F6F6C696E672E2E2E004581
:102620002048656174696E672E2E2E0020573A008F
:1026300042656420636F6F6C696E672E2E2E0042B8
:1026400065642068656174696E672E2E2E002074A3
:102650006F6F206C6F6E6720657874727573696F29
:102660006E2070726576656E7465640A0020636F13
:102670006C6420657874727573696F6E2070726512
:1026800076656E7465640A00627573793A207061CC
:102690007573656420666F7220696E7075740A00C8
:1026A000627573793A2070617573656420666F7224
:1026B00020757365720A00627573793A2070726FC3
:1026C00063657373696E670A004B494C4C45442E31
:1026D00020004B494C4C206361757365642062791E
:1026E000204B494C4C20627574746F6E2F70696E6C
:1026F0000A004B494C4C45442E20004B494C4C2081
:1027000063617573656420627920746F6F206D75E5
:10271000636820696E6163746976652074696D65AC
:10272000202D2063757272656E7420636F6D6D610C
:102730006E643A2000506C65617365207265736544
:1027400074005052494E5445522048414C5445441F
:10275000005072696E7465722068616C7465642ED5
:10276000206B696C6C28292063616C6C6564210A9C
:1027700000656E7175657565696E672022000000E1
:1027800000000000000000000000000048420000BF
:1027900048420000C040000000005761726E696E40
:1027A000673A20486F6D696E672042756D702044EE
:1027B000697669736F72203C20310A0002020400BE
:1027C00000404000004040000000400000964300F0
:1027D00000704300009643FFFFFF454550524F4DA8
:1027E000206461746173697A65206572726F722EFC
:1027F0000A00290A002062797465733B20637263C2
:10280000200053657474696E67732053746F72652A
:1028100064202800290A002062797465733B2063D4
:10282000726320002073746F726564207365747422
:10283000696E6773207265747269657665642028B5
:1028400000202863616C63756C6174656429210ADA
:102850000020213D2000454550524F4D204352431A
:10286000206D69736D61746368202D202873746F07
:102870007265642920002053697A653A2000496E08
:102880006465783A2000204D61726C696E3D563562
:1028900035290A0028454550524F4D3D00454550C9
:1028A000524F4D2076657273696F6E206D69736D3E
:1028B000617463682000416D6178204500416D615D
:1028C00078204500416D6178205A00416D61782083
:1028D0005A00416D6178205900416D61782059009E
:1028E000416D6178205800416D6178205800412D7C
:1028F00074726176656C00412D74726176656C004E
:10290000412D7265747261637400412D7265747239
:1029100061637400416363656C00416363656C00CF
:102920004D6F74696F6E0056652D6A65726B005647
:10293000652D6A65726B0056652D6A65726B00566F
:102940007A2D6A65726B00567A2D6A65726B005635
:10295000792D6A65726B0056792D6A65726B005627
:10296000792D6A65726B0056782D6A65726B005618
:10297000782D6A65726B0056782D6A65726B004D12
:102980006F74696F6E004573746570732F6D6D00A1
:102990004573746570732F6D6D005A737465707331
:1029A0002F6D6D005A73746570732F6D6D005973C0
:1029B000746570732F6D6D005973746570732F6D2E
:1029C0006D005873746570732F6D6D005873746566
:1029D00070732F6D6D004D6F74696F6E0053746569
:1029E00070732F6D6D004A65726B00416363656C97
:1029F00065726174696F6E0056656C6F6369747996
:102A00000050726F6265205A204F666673657400CD
:102A100050726F6265205A204F666673657400437A
:102A20006F6E74726F6C00FFFFFF800FFC0F81F8F8
:102A30000FFC00F81E0FFFFFFF800FFF0F83FE0F3C
:102A4000FF03FE1E0FFFFFFF800FFF0F87FF0FFF2B
:102A500007FF1F1FE00003800FFF8F8FFF0FFF870F
:102A6000FF0F1EE00003800F8F8F8F8F8F8F8F8F50
:102A70008F1EE03E03800F8F8F8F8F8F8F8F8F87FA
:102A8000BCE03E03800F8F8F8F8F8F8F8F8F87BC1F
:102A9000E03E03800F8F8F8F8F8F8F8F8F87FCE0AB
:102AA0003E03800FFF8F8F8F8FFF8F8F83F8E03E65
:102AB00003800FFF0F8F800FFF0F8F83F8E01C0341
:102AC000800FFC0F8F800FFC0F8F83F8E0080380CE
:102AD0000FFF0F8F9F8FFF0F8F83F8E00003800F92
:102AE000FF8F8F9F8FFF8F8F83F8E00003800F8F02
:102AF0008F8F9F8F8F8F8F87FCE00003800F8F8FCA
:102B00008F8F8F8F8F8F87BCE00003800F8F8F8F09
:102B10008F8F8F8F8F87BCE00003800F8F8F8F8FF9
:102B20008F8F8F8F873CE00003800F8F8F8F8F8F69
:102B30008F8F8F8F1EE00003800F8F8F8F8F8F8F6F
:102B40008F8F8F1EE00003800FFF8F8FFF8FFF8717
:102B5000FF0F1EE00003800FFF8F87FF8FFF87FFAF
:102B60001F1FE00003800FFF0F83FB8FFF03FE1E7C
:102B70000FE00003800FFE0F81F38FFE00F81E0FA1
:102B8000E00003800000000000000000000000E002
:102B90000003800000000000000000000000E000D2
:102BA00003800000000000000000000000E7FFF3C9
:102BB000800000000000000000000000E7FFF3803C
:102BC0000000000000000000000000E000038000A2
:102BD00000000000000000000000E0000380000092
:102BE000000000000000000000E000038000000082
:102BF0000000000000000000FFFFFF800000000058
:102C000000000000000000FFFFFF80000000000047
:102C1000000000000000FFFFFF8000000000000037
:102C200000000000002020506C616E6E65724275DD
:102C30006666657242797465733A20002046726553
:102C400065204D656D6F72793A2000436F6D706934
:102C50006C65643A204A616E20203420323031396C
:102C60000A00207C20417574686F723A20284A61FE
:102C7000636B204D6F66666974742C204533442065
:102C800042696742786F2050726F290A00323031F2
:102C9000382D31322D333100204C61737420557042
:102CA00064617465643A2000312E312E392D6262E0
:102CB000700A004D61726C696E0020536F66747704
:102CC0006172652052657365740A002057617463F0
:102CD00068646F672052657365740A002042726FE2
:102CE000776E206F75742052657365740A002045F5
:102CF000787465726E616C2052657365740A005059
:102D00006F77657255700A0073746172740A00619E
:102D100075746F25692E67006572726F7220777205
:102D20006974696E6720746F2066696C650A004576
:102D30006E6473746F707320256320256320256390
:102D400020256300205A3A0020593A0020583A00C2
:102D5000656E6473746F7073206869743A20004400
:102D60006F6E6520736176696E672066696C652E8B
:102D70000A004D3239007C3C3E5E2B3D3F2F5B5DAF
:102D80003B2C2A225C004B494C4C45442E200053DE
:102D9000544F505045442E20005072696E74657235
:102DA0002073746F707065642064756520746F2083
:102DB0006572726F72732E20466978207468652080
:102DC0006572726F7220616E6420757365204D3973
:102DD000393920746F20726573746172742E2028E3
:102DE00054656D70657261747572652069732072C7
:102DF000657365742E205365742069742061667450
:102E000065722072657374617274696E67290A0055
:102E10004E6F20436865636B73756D2077697468C6
:102E2000206C696E65206E756D6265722C204C6138
:102E30007374204C696E653A20004E6F20436865BC
:102E4000636B73756D2077697468206C696E65209B
:102E50006E756D6265722C204C617374204C696EC6
:102E6000653A2000636865636B73756D206D6973E7
:102E70006D617463682C204C617374204C696E65BD
:102E80003A20004C696E65204E756D62657220694E
:102E900073206E6F74204C617374204C696E6520D2
:102EA0004E756D6265722B312C204C617374204C11
:102EB000696E653A20004D313130004D3331005399
:102EC000442072656164206572726F720A00446FFB
:102ED0006E65207072696E74696E672066696C65D4
:102EE0000A0020496E76616C696420657874727599
:102EF0006465722000000000000000000000000077
:102F00000000009643000070430000964348617241
:102F100064636F6465642044656661756C742053F6
:102F2000657474696E6773204C6F616465640A0030
:102F3000E8030000E8030000640000001027000020
:102F400000001643000016430000C0400000484245
:102F500000002043000034430000C84400009843B0
:102F60003A0A0020286D6D290020204D3835312087
:102F70005A005A2D50726F6265204F6666736574F1
:102F80000020440020490020204D333034205000E0
:102F900020440020490020204D3330312050005083
:102FA00049442073657474696E67733A0A00204659
:102FB0000020420020480020204D313435205300AD
:102FC0004D6174657269616C20686561747570200B
:102FD000706172616D65746572733A0A00205A00FF
:102FE000204A0020204732392057204900205A002B
:102FF00020204D3432302053004175746F204265DB
:1030000064204C6576656C696E673A0A00205A0048
:1030100020590020204D323036205800486F6D6511
:10302000206F66667365743A0A00204500205A00D6
:1030300020590020580020540020530020204D32F9
:10304000303520510020453C6D61785F655F6A65D1
:10305000726B3E0020583C6D61785F785F6A6572E4
:103060006B3E20593C6D61785F795F6A65726B3E9B
:10307000205A3C6D61785F7A5F6A65726B3E0041F1
:103080006476616E6365643A20513C6D696E5F736E
:1030900065676D656E745F74696D655F75733E20FD
:1030A000533C6D696E5F66656564726174653E2050
:1030B000543C6D696E5F74726176656C5F666565C0
:1030C00064726174653E0020540020520020204D3F
:1030D000323034205000416363656C6572617469FD
:1030E0006F6E2028756E6974732F7332293A2050E1
:1030F0003C7072696E745F616363656C3E20523C24
:10310000726574726163745F616363656C3E2054C1
:103110003C74726176656C5F616363656C3E0A0046
:10312000204500205A0020590020204D3230312007
:1031300058004D6178696D756D20416363656C65FC
:10314000726174696F6E2028756E6974732F7332A3
:10315000293A0A00204500205A0020590020204D1D
:103160003230332058004D6178696D756D20666589
:10317000656472617465732028756E6974732F734A
:10318000293A0A00204500205A0020590020204DED
:103190003932205800537465707320706572207541
:1031A0006E69743A0A0020204D3230302044300AD3
:1031B0000020204D32303020440020446973616289
:1031C0006C65640A0046696C616D656E7420736598
:1031D0007474696E67733A0020204D31343920438E
:1031E000203B20556E69747320696E2043656C73B3
:1031F0006975730A002020473231202020203B00CF
:10320000426967426F782050726F2052656164791D
:103210002E005072696E74696E672E2E2E005072E9
:10322000696E7420706175736564005072696E74A4
:103230002061626F72746564005072696E742066FA
:10324000726F6D2053440053746F70207072696EFA
:103250007400526573756D65207072696E74004EEE
:103260006F20534420636172640050617573652060
:103270007072696E7400436F6E74726F6C0050727E
:1032800065706172650054756E6500496E666F20E9
:1032900073637265656E00466C6F7700466C6F777E
:1032A00000466C6F770046616E2073706565640040
:1032B00046616E2073706565640046616E207370B0
:1032C00065656400426564004265640042656400AF
:1032D0004E6F7A7A6C65004E6F7A7A6C65004E6F2D
:1032E0007A7A6C6500466164652048656967687430
:1032F00000466164652048656967687400466164DA
:10330000652048656967687400537065656400539B
:1033100070656564005370656564004D61696E0099
:103320005072656865617420504C4120456E6400A0
:103330005072656865617420504C4120426564009C
:103340005072656865617420504C41005072657020
:103350006172650000002100240027002A002D0072
:103360003000330001010000040107010A010000E0
:103370002200250028002B002E003100340002011D
:103380000000050108010B010000200023002600B9
:1033900029002C002F00320000010000030106016B
:1033A00009010505050507050808080802020202CB
:1033B0000A0A0808040404040101010101010101D1
:1033C0000303030303030303040707070C0C0C0C9C
:1033D0000C0C0C0C02020202060606060606060685
:1033E0000B0B0B0B0B0B0B0B010210202008081012
:1033F0002040102040800201020108040201010265
:10340000040810204080804020100804020180043D
:103410000201804020100804020108040201010298
:1034200004081020408001020408102040800000A1
:103430000A0B02090C0D0E0807030401000000002E
:10344000000000000000000000000000000000007C
:103450000000000000000000000012111000000039
:10346000000000000000000000000000000000005C
:10347000000000004572726F722077726974696E85
:103480006720746F20454550524F4D210A00545219
:1034900049474745524544006F70656E003A200029
:1034A0007A5F6D696E00795F6D696E00785F6D6936
:1034B0006E005265706F7274696E6720656E64731A
:1034C000746F70207374617475730A00526573654C
:1034D0006E643A20006F6B00AEFA83FC11241FBEAD
:1034E000CFEFD1E2DEBFCDBF00E00CBF13E0A0E024
:1034F000B2E0E8E0F0E202E00BBF02C007900D92FC
:10350000A438B107D9F724E1A4E8B3E001C01D92C3
:10351000A436B207E1F71AE1CDE6DAE100E006C031
:1035200021970109802FFE010F944C0CCC36D10756
:1035300080E00807A9F70E94A4FC0D94F20F0C94F8
:1035400000002F923F924F925F926F927F928F92E4
:103550009F92AF92BF92CF92DF92EF92FF920F9322
:103560001F93CF93DF93CDB7DEB7CB56D1090FB6FC
:10357000F894DEBF0FBECDBF11E01093961080917E
:10358000AF138D3411F40C948523843511F40C940D
:103590008430873411F00C94D0302090AD133090EB
:1035A000AE132CE12216310409F42DC69CF444E03C
:1035B0002416310444F452E025163104C4F537FED4
:1035C0002FC00C94812384E02816310409F4DDC552
:1035D0000C9481239AE22916310409F407C764F494
:1035E000BDE12B16310409F425C6EEE12E16310497
:1035F00009F424C60C948123FBE52F16310409F449
:10360000B3C72CE52216310409F4B2C73AE52316F4
:10361000310411F00C948123109288030C94D23061
:103620008091270281110C94D7300C94D230809174
:103630002702882311F40C94D2300E949C3282E538
:103640000E949AD4882309F44CC10E941ED44B01D5
:103650005C0120E030E0A9010F94BA07882309F447
:1036600070C18091EB069091EC06A091ED06B091AF
:10367000EE0688AF99AFAAAFBBAF2091EF063091AD
:10368000F0064091F1065091F2062CAF3DAF4EAFDF
:103690005FAF8091B0109091B110A091B210B09135
:1036A000B3102C968CAF9DAFAEAFBFAF2C972091CF
:1036B000B4103091B5104091B6105091B7102896C3
:1036C0002CAF3DAF4EAF5FAF28979C01AD0168AD09
:1036D00079AD8AAD9BAD0F94BA0781110FC02896C2
:1036E0002CAD3DAD4EAD5FAD28976CAD7DAD8EADD3
:1036F0009FAD0F94BA07882309F423C111E032E08B
:103700002316310409F010E020E030E0A901C501E2
:10371000B4010F94BA07881F8827881F181759F01B
:1037200080E090E0A0E8BFEB64968CAF9DAFAEAFB9
:10373000BFAF64970AC020E030E040E85FE36496E2
:103740002CAF3DAF4EAF5FAF649728AD39AD4AADFA
:103750005BAD2C966CAD7DAD8EAD9FAD2C970F946F
:10376000540C60966CAF7DAF8EAF9FAF60972CAD61
:103770003DAD4EAD5FAD28966CAD7DAD8EAD9FADD0
:1037800028970F94540C6B017C0160962CAD3DADD5
:103790004EAD5FAD6097CA01B9010F9420082B01AF
:1037A0003C01A7019601C701B6010F9420089B01B7
:1037B000AC01C301B2010F94550C0F94030F249672
:1037C0006CAF7DAF8EAF9FAF249720E030E040E03C
:1037D0005FE30F9420082B013C01A5019401C50172
:1037E000B4010F9420084B015C01A3019201C301B5
:1037F000B2010F9420089B01AC01C501B4010F94E4
:10380000540C0F94030F64962CAD3DAD4EAD5FADDF
:1038100064970F9420084B015C01C701B6019058D2
:1038200024962CAD3DAD4EAD5FAD24970F944F0D5A
:10383000A50194010F9420086B017C012C962CADFE
:103840003DAD4EAD5FAD2C9768AD79AD8AAD9BAD0A
:103850000F94550C20E030E040E05FE30F94200827
:103860009B01AC01C701B6010F94550C28AD39ADD1
:103870004AAD5BAD0F94540C6B017C0128962CADC6
:103880003DAD4EAD5FAD28976CAD7DAD8EAD9FADBE
:103890000F94550C20E030E040E05FE30F942008E7
:1038A0002B013C0124962CAD3DAD4EAD5FAD249770
:1038B00060966CAD7DAD8EAD9FAD60970F944F0D52
:1038C000A50194010F9420089B01AC01C301B20132
:1038D0000F94550C2CAD3DAD4EAD5FAD0F94540C17
:1038E00014C089E40E949AD4882329F00E941ED42F
:1038F0006B017C0103C0C12CD12C76018AE40E94AB
:103900009AD4882309F10E941ED42C966CAF7DAF07
:103910008EAF9FAF2C9720E030E0A901C701B60120
:103920000F94BA0781111FC020E030E0A9012C9646
:103930006CAD7DAD8EAD9FAD2C970F94BA07811104
:1039400012C0EBECFAE00DC420E030E0A901C701A1
:10395000B6010F94BA078823A1F32C961CAE1DAEB6
:103960001EAE1FAE2C97D701C601B05888AF99AFD5
:10397000AAAFBBAF2C962CAD3DAD4EAD5FAD2C9735
:1039800050582CAF3DAF4EAF5FAF9C01AD01BC01B5
:10399000CD010F9420084B015C012CAD3DAD4EAD27
:1039A0005FADCA01B9010F9420089B01AC01C501AC
:1039B000B4010F94550C0F94030FA0966CAF7DAF1C
:1039C0008EAF9FAFA0978091EB069091EC06A091EF
:1039D000ED06B091EE0628968CAF9DAFAEAFBFAFAF
:1039E0002897A7019601BC01CD010F94550C649650
:1039F0006CAF7DAF8EAF9FAF64972091EF06309193
:103A0000F0064091F1065091F20660962CAF3DAF62
:103A10004EAF5FAF60972C962CAD3DAD4EAD5FAD18
:103A20002C9760966CAD7DAD8EAD9FAD60970F9479
:103A3000550CA4966CAF7DAF8EAF9FAFA4978091CD
:103A4000B0109091B110A091B210B091B3106896DF
:103A50008CAF9DAFAEAFBFAF689764962CAD3DAD58
:103A60004EAD5FAD6497BC01CD010F94540C6B015A
:103A70007C012091B4103091B5104091B610509156
:103A8000B7106C962CAF3DAF4EAF5FAF6C97A4965E
:103A90002CAD3DAD4EAD5FADA4976C966CAD7DADDC
:103AA0008EAD9FAD6C970F94540C4B015C018091CF
:103AB000F3069091F406A091F506B091F606A8964B
:103AC0008CAF9DAFAEAFBFAFA8979C01AD01609129
:103AD000B8107091B9108091BA109091BB100F94EA
:103AE000540C24966CAF7DAF8EAF9FAF2497A70187
:103AF000960168AD79AD8AAD9BAD0F9420082B017E
:103B00003C01A50194016CAD7DAD8EAD9FAD0F94D0
:103B100020089B01AC01C301B2010F94550C2B018D
:103B20003C01A501940168AD79AD8AAD9BAD0F94C0
:103B300020084B015C01A70196016CAD7DAD8EADF7
:103B40009FAD0F9420089B01AC01C501B4010F94F7
:103B5000540CA30192010F94D40C6B017C0120E062
:103B600030E0A9010F94BA0787FF0AC02BED3FE0B0
:103B700049EC50E4C701B6010F94550C6B017C0170
:103B800092E02916310451F42BED3FE049EC50E46A
:103B9000C701B6010F94540C6B017C0120E030E0AA
:103BA000A901C701B6010F94BA07811128C0689610
:103BB0002CAD3DAD4EAD5FAD689728966CAD7DAD3B
:103BC0008EAD9FAD28970F94BA07811118C06C96DF
:103BD0002CAD3DAD4EAD5FAD6C9760966CAD7DADDF
:103BE0008EAD9FAD60970F94BA07811108C00BEDA1
:103BF000C02E0FE0D02E09ECE02E00E4F02EA7013D
:103C00009601A0966CAD7DAD8EAD9FADA0970F9443
:103C100020084B015C0120E030E0A90124966CAD46
:103C20007DAD8EAD9FAD24970F94BA078823E9F040
:103C3000A5019401C501B4010F9420084B015C015A
:103C400024962CAD3DAD4EAD5FAD2497CA01B901B0
:103C50000F9420089B01AC01C501B4010F94550CD1
:103C60000F94030F4B015C010DC020E030E0A9016F
:103C7000C501B4010F94B50E87FF04C0B7FAB09424
:103C8000B7F8B0942FE632E143E85AE3C501B40136
:103C90000F94BA0787FF02C00C94D230C501B4015B
:103CA0000F94F70D0F94C80D2E967FAF6EAF2E9721
:103CB000DB01AB2B31F4E1E0F0E02E96FFAFEEAF8D
:103CC0002E974090F7065090F8066090F906709095
:103CD000FA062E962EAD3FAD2E97B90180E090E00A
:103CE0000F94BF074B015C019B01AC01C701B601FA
:103CF0000F944F0D28966CAF7DAF8EAF9FAF289776
:103D0000A501940124966CAD7DAD8EAD9FAD249739
:103D10000F944F0DA0966CAF7DAF8EAF9FAFA09765
:103D2000A30192016091BC107091BD108091BE10F2
:103D30009091BF100F94540CA50194010F944F0D56
:103D4000AC966CAF7DAF8EAF9FAFAC9728962CAD85
:103D50003DAD4EAD5FAD2897CA01B9010F94200863
:103D600020E030E040E05FE30F9420089B01AC01CD
:103D700060E070E080E89FE30F94540C68966CAFAD
:103D80007DAF8EAF9FAF6897A8968CAD9DADAEAD61
:103D9000BFADA89789879A87AB87BC874D865E861B
:103DA0006F86788A6091530270915402072E000C3E
:103DB000880B990B0F94C1072091140230911502C2
:103DC00040911602509117020F9420082AE037ED17
:103DD00043E25CE30F9420086CAB7DAB8EAB9FABF2
:103DE0000E943CE89B01AC0128533F4F4F4F5F4F6F
:103DF0006C962CAF3DAF4EAF5FAF6C9748AC59ACF3
:103E00006AAC7BAC22242394312C39E121963FAF5C
:103E100021972E964EAD5FAD2E974215530509F4AE
:103E20004CC10E945C7F0E943CE8DC01CB016C9697
:103E30002CAD3DAD4EAD5FAD6C97821B930BA40BCB
:103E4000B50BB7FD10C00E943CE89B01AC012853A4
:103E50003F4F4F4F5F4F6C962CAF3DAF4EAF5FAFB4
:103E60006C970E942CB121963FAD2197315021963D
:103E70003FAF2197332309F445C02CAD3DAD4EAD86
:103E80005FAD68966CAD7DAD8EAD9FAD68970F94BC
:103E900020086B017C019201A30128966CAD7DADD9
:103EA0008EAD9FAD28970F942008A70196010F941F
:103EB000550C7B018C019201A30168966CAD7DAD20
:103EC0008EAD9FAD68970F9420084B015C012CAD1F
:103ED0003DAD4EAD5FAD28966CAD7DAD8EAD9FAD69
:103EE00028970F9420089B01AC01C501B4010F94E1
:103EF000540C2B013C01C701D8018CAF9DAFAEAF74
:103F0000BFAF55C0B10180E090E00F94BF07289685
:103F10002CAD3DAD4EAD5FAD28970F9420084B0101
:103F20005C010F944A0D6B017C01C501B4010F9433
:103F3000F50E4B015C01A701960168AD79AD8AAD24
:103F40009BAD0F9420082B013C012C962CAD3DAD70
:103F50004EAD5FAD2C97C501B4010F942008A301AD
:103F600092010F94550C2B013C01A501940168AD01
:103F700079AD8AAD9BAD0F9420084B015C012C9666
:103F80002CAD3DAD4EAD5FAD2C97C701B6010F9482
:103F900020089B01AC01C501B4010F94540C6CAF17
:103FA0007DAF8EAF9FAF49E121964FAF2197920130
:103FB000A30164966CAD7DAD8EAD9FAD64970F94FB
:103FC000550C69837A838B839C832CAD3DAD4EADBC
:103FD0005FADA4966CAD7DAD8EAD9FADA4970F94F3
:103FE000550C6D837E838F839887A0962CAD3DAD55
:103FF0004EAD5FADA09769857A858B859C850F94C2
:10400000550C69877A878B879C87AC962CAD3DAD24
:104010004EAD5FADAC976D857E858F8598890F9489
:10402000550C6D877E878F87988B80913702882308
:1040300021F0CE0101960E9439AEE090470A1CA6FD
:104040001DA61EA61FA689819A81AB81BC8188A36B
:1040500099A3AAA3BBA38D819E81AF81B8858CA3B0
:104060009DA3AEA3BFA389859A85AB85BC8588A790
:1040700099A7AAA7BBA7AE01485D5F4FBE016C5DC3
:104080007F4FCE0180960E9426F2CE018C966C0165
:104090008E010C5C1F4F9E01235F3F4FAE01485DB8
:1040A0005F4FBE016C5D7F4F0C970E94933D88234C
:1040B00021F09FEF291A390AACCEE090470A18AADE
:1040C00019AA1AAA1BAA8091B0109091B110A091C0
:1040D000B210B091B31088A399A3AAA3BBA38091F7
:1040E000B4109091B510A091B610B091B7108CA3F8
:1040F0009DA3AEA3BFA38091B8109091B910A091D9
:10410000BA10B091BB1088A799A7AAA7BBA7AE0108
:10411000485D5F4FBE016C5D7F4FCE0180960E946F
:1041200026F2DE01D0966D018E010C5C1F4F2CEB48
:1041300030E1AE01485D5F4FBE016C5D7F4FCE0147
:1041400080960E94933D80E1E0EBF0E1ABEEB6E0BB
:1041500001900D928A95E1F70C94D2300E94B7D469
:10416000F80184918F010F5F1F4F8111F7CFE9EDA7
:10417000F3E084918F010F5F1F4F882311F40C949B
:10418000D2300E94B7D4F801F4CF80E50E949AD4CF
:10419000882329F00E94DAD36B017C0103C0C12C73
:1041A000D12C760183E50E949AD4882361F00E9485
:1041B0001ED420E030E04AE754E40F9420080F9426
:1041C000C80D6B017C010E94694B80919A0381119B
:1041D00005C060E08FEE93E00E941C760E943CE8F0
:1041E000C60ED71EE81EF91E0E943CE8DC01CB017A
:1041F0008C199D09AE09BF09B7FD02C00C94D230DD
:104200000E942CB1F1CF8091DA068770873011F0CF
:104210000C94DC308FE40E949AD4882319F00E9419
:104220000ED403C08FE40E9451D481110C94D2307B
:104230000C94DC300E9467380C94D230C090EB06AE
:10424000D090EC06E090ED06F090EE0688E50E9436
:104250009AD4811108C020E030E0A901C701B6015D
:104260000F94550C02C00E941ED468A379A38AA3A0
:104270009BA3C090EF06D090F006E090F106F0907E
:10428000F20689E50E949AD4811109C020E030E04D
:1042900040E052E4C701B6010F94550C02C00E94E1
:1042A0001ED49B01AC0169837A838B839C8368A1B4
:1042B00079A18AA19BA10E942BB0882311F40C94B0
:1042C000D23080E00E94EE340E944C3685E40E9499
:1042D0009AD4882321F00E940ED4182F04C085E4BC
:1042E0000E9451D411E086E50E949AD4882321F0DF
:1042F0000E94EAD3262F01C021E0412FBE016F5F4B
:104300007F4FCE0180960E947B626B017C019B01F6
:10431000AC010F94470F81115FC088A099A0AAA09B
:10432000BBA020E030E0A901C501B4010F94BA0799
:1043300087FF05C027E137EB41E558EB04C027E1D3
:1043400037EB41E558E3C501B4010F94550CAB01BF
:10435000BC018FE194E00E94B69A89809A80AB807C
:10436000BC8020E030E0A901C501B4010F94BA0778
:1043700087FF05C027E137EB41E558EB04C027E193
:1043800037EB41E558E3C501B4010F94550CAB017F
:10439000BC018AE194E00E94B69A20E030E0A901D5
:1043A000C701B6010F94BA0787FF05C027E137EBB5
:1043B00041E558EB04C027E137EB41E558E3C7017D
:1043C000B6010F94550CAB01BC0185E194E00E944D
:1043D000B69A8AE00E94B7D40E943336113011F4A5
:1043E0000E947D370E94B95A0C94D23080912702E6
:1043F000882311F40C94D23089E40E949AD4E82ED8
:10440000882321F00E94EAD3F62E01C0F12C8AE421
:104410000E949AD4182F882321F00E94EAD3062FF5
:1044200001C000E0EE2019F0F2E0FF1520F01123AA
:1044300081F0033070F0E7E2F4E084918F010F5FC8
:104440001F4F882311F40C94D2300E94B7D4F80186
:10445000F4CF0E94ADD4EE20F1F02091D40A309137
:10446000D50A4F2D4203B001439F700D1124809156
:10447000DA109091DB10680F791F072E000C880B63
:10448000990B0F94C1076093B0107093B110809393
:10449000B2109093B3101123E9F02091D60A309115
:1044A000D70A0203B001039F700D11248091DC1024
:1044B0009091DD10680F791F072E000C880B990B67
:1044C0000F94C1076093B4107093B5108093B61029
:1044D0009093B71080E50E949AD48823E9F00E9457
:1044E0000ED48823E9F01123D9F020E030E040E039
:1044F00052E46091B4107091B5108091B610909113
:10450000B7100F94540C6093B4107093B51080934F
:10451000B6109093B71004C080E50E9451D4E1CF4B
:1045200086E40E949AD48823D9F00E941ED46B019D
:104530007C0120E030E0A9010F94B50E181684F438
:1045400020E030E040E752E4C701B6010F944F0D80
:1045500060931402709315028093160290931702D1
:104560000E947DB40C94D230109388030C94D23006
:10457000E9E62E2EE2E03E2EF4EAEF2EF0E1FF2EE9
:104580008BEE96E099AF88AFABEDCA2EA6E0DA2E9F
:1045900000E010E0D1018D911D010E949AD4882382
:1045A00009F44BC00E941ED42B013C01133049F08A
:1045B000F60120813181428153810F94540C2B01EB
:1045C0003C01A8ADB9AD2D913D914D915C91C301D8
:1045D000B2010F94540C4B015C012DEB37E346E81C
:1045E00055EB0F94B50E87FD0AC02DEB37E346E877
:1045F00055E3C501B4010F94BA071816F4F413304B
:1046000051F44092F7065092F8066092F9067092C3
:10461000FA0601E012C0A5019401F70160817181E1
:10462000828193810F94550CD7016D937D938D9367
:104630009C931397812F0E94D6D21F5FB4E0EB0E9C
:10464000F11CE8ADF9AD3496F9AFE8AFF4E0CF0E68
:10465000D11C143009F09ECF002309F44EC020E095
:1046600030E0A9016091F7067091F8068091F90693
:104670009091FA060F94550C209117113091181152
:104680004091191150911A110F9420080F94C20EE5
:104690006093160470931704809318049093190480
:1046A0009091F4038091F503981719F00E940B4B39
:1046B00024C00E94694B80916F00982F927081FFF7
:1046C00005C080916F008D7F80936F00409116042C
:1046D000509117046091180470911904409346108A
:1046E000509347106093481070934910992329F014
:1046F00080916F00826080936F000E94B95A0C9481
:10470000D2300E9476650C94D2308091AD13909196
:10471000AE138337910509F4E4C10CF0D6C0893497
:10472000910509F4C8C40CF04FC08931910509F412
:10473000D2C21CF58431910509F4D6C17CF48131D3
:10474000910509F44BC22CF4029708F4D0C10C94E3
:104750008130429709F41DC60C9481308631910551
:1047600009F492C20CF48CC28731910509F492C20B
:10477000489709F4A5C20C9481308E31910509F453
:1047800060C384F48B31910509F4B9C20CF4A9C259
:104790008C31910509F44BC34D9711F40C94D23030
:1047A0000C9481308032910509F44FC30CF499C305
:1047B0008A32910509F44BC4C09711F00C948130F2
:1047C0000E94D4A80C94D2308836910509F488C48C
:1047D0000CF04AC08235910509F4D4C564F58C34D7
:1047E000910509F475C44CF48B34910511F00C94C7
:1047F00081300E94B7920C94D2308D34910509F427
:104800006BC48135910511F00C9481300E94517C6C
:104810000E94B1F110926D1310926C1368EE73E068
:1048200080E090E00E942C7560E08FE295E00E94AD
:104830001C760C94D2308435910509F4AAC50CF489
:10484000A4C58535910509F4A7C58C35910511F0EE
:104850000C94813049E6C42E42E0D42E5BE0E52E74
:1048600051E1F52E10E0B1C58D36910509F441C531
:104870009CF48A36910509F459C50CF4FAC48B36B8
:10488000910509F46FC58C36910511F00C948130B7
:1048900010924C020C94D2308037910509F4B5C4C3
:1048A00054F48E36910509F44AC48F36910509F403
:1048B00059C40C9481308137910509F4AEC4823714
:1048C000910509F401C60C9481308D3221E09207E4
:1048D00011F40C94412E0CF081C0883C910509F430
:1048E00066C7C4F58937910509F4E4C6DCF4863758
:1048F000910509F490C634F48537910509F47CC616
:104900000C9481308737910509F4D1C68837910519
:1049100011F00C94813081E0809323118093221157
:104920000C94D2308139910509F4C9C634F48C381D
:10493000910509F4E1C40C9481308B39910509F497
:10494000B3C48E3B910511F00C9481300E9408A5F0
:104950000C94D2308E3C910511F40C944E2D04F53C
:104960008B3C910509F48BC784F4893C910511F0C7
:104970000C948130B9E6EB2EB2E0FB2E0FED10E186
:104980008FEEC82E80E1D82E62C78C3C910509F4C9
:1049900091C78D3C910511F40C94CF2C0C9481306F
:1049A0008D3D910511F40C94802D64F4833D9105A7
:1049B00011F40C94702D8C3D910511F40C94732D11
:1049C0000C948130823E910511F40C94EF2D8C32C1
:1049D000914011F40C94182E0C948130853A51E0DA
:1049E000950711F40C943F2FB4F58039B1E09B0783
:1049F00011F40C942E2FC4F48F32F1E09F0711F4C0
:104A00000C94982E14F40C94442E803331E09307C8
:104A100011F40C949B2E8336914011F00C9481304C
:104A2000EBECFAE00C941B2F823951E0950711F45E
:104A30000C94372F14F40C94312F8A39B1E09B0772
:104A400009F4E7C3843A914011F00C9481300E943C
:104A5000895C0C94D230873FF1E09F0711F40C94ED
:104A6000D82FFCF4843F31E0930711F40C94D22F3B
:104A70004CF48C3A914011F00C9481300E94835B8D
:104A80000C94D230853FA1E09A0711F40C94D52FF5
:104A9000863F914011F00C9481300E94B3DD0C945C
:104AA000D2308B38E3E09E0711F40C94D2306CF4D2
:104AB000883F21E0920711F40C94E32F8335934053
:104AC00011F40C9407300C948130803A43E0940741
:104AD00009F4FAC1873E934011F40C946C300C94A5
:104AE0008130E4E2F6E02DC5E1E7F4E08BC0A09070
:104AF000AB13B090AC1380E50E949AD4882359F090
:104B00000E94DAD36B017C0111E0672B682B692BC3
:104B100031F410E004C010E0C12CD12C760183E503
:104B20000E949AD4882311F40C94C6310E941ED49A
:104B300020E030E04AE754E40F9420080F94C80DB9
:104B40006B017C0111110BC0672B682B692B39F4A9
:104B5000A114B10421F0D5018C91811102C010E0A3
:104B600001C011E00E94694B112329F061E0C501E9
:104B70000E94567605C060E086E494E00E941C76B0
:104B800083E08093961081E08093580AC114D10489
:104B9000E104F104B1F00E943CE8C60ED71EE81E05
:104BA000F91E0E943CE8DC01CB018C199D09AE097D
:104BB000BF09B7FF0DC08091580A81110C94CB3109
:104BC00007C08091580A882319F00E942CB1F9CFB0
:104BD0000E9413E01092580A0C94D23060E089E5EC
:104BE00094E00E941C7680910B01827080930901F1
:104BF000899880910801817080930601A29812988B
:104C00000C94D23084918F010F5F1F4F882321F0C5
:104C10000E94B7D4F801F6CF1092B7068AE694E066
:104C20000E9411CD8BE1EAE6F4E0DE0115960190D9
:104C30000D928A95E1F780916804909169049C83B4
:104C40008B8383E892E09A83898340E050E0BE0141
:104C50006F5F7F4F80E090E00E942B4FCE01019666
:104C60000E94A4B0E2E6F4E084918F010F5F1F4F31
:104C7000882311F40C94D2300E94B7D4F801F4CFF9
:104C80000E9440600C94D23010923A0410923B047F
:104C90000C94D230E091AB13F091AC138081882357
:104CA00029F0803209F410823196F8CF40E061E0BB
:104CB0008091AB139091AC130E94F0510C94D230C0
:104CC00080913B04882319F081E080933A040E948C
:104CD000B7920C94D23010923A040E94DB920C945A
:104CE000D23080913B04882311F40C94D23083E5B8
:104CF0000E949AD481110C94CF310C94D23083E469
:104D00000E9451D4882309F450C0EFEAF4E0849162
:104D10008F010F5F1F4F882321F00E94B7D4F80145
:104D2000F6CF80910506811103C0E2E8F4E012C0DD
:104D3000BE016F5F7F4F82E096E00E94D8CB8E016C
:104D40000F5F1F4FF80181918F01882349F10E9465
:104D5000B7D4F8CF84918F010F5F1F4F882301F1E3
:104D60000E94B7D4F801F6CF67E0C62E65E0D62ED4
:104D7000E12CF12C20E08091940390E00E2C02C0F5
:104D8000959587950A94E2F780FD1CC23FEFE31AE0
:104D9000F30A42E0C40ED11C55E0E516F10459F7C0
:104DA0008AE00E94B7D40C94D23080913B048823CF
:104DB00039F080913A04882319F0ECE8F4E003C05C
:104DC000EEE9F4E028C084918F010F5F1F4F882324
:104DD00021F00E94B7D4F801F6CF6091B30670912C
:104DE000B4068091B5069091B6064AE00E9468D755
:104DF0008FE20E94B7D46091AF067091B0068091A7
:104E0000B1069091B2064AE00E9468D78AE00E94FB
:104E1000B7D40C94D23084918F010F5F1F4F882339
:104E200011F40C94D2300E94B7D4F801F4CF40E0D2
:104E300060E08091AB139091AC130E94F0510C9400
:104E4000D2300E94E53C0C94D23080913A0481111A
:104E50000E94694B80913B04882311F40C94D2305A
:104E600080E50E949AD4882319F00E940ED403C0D2
:104E700080E50E9451D4182F482F61E08091AB1338
:104E80009091AC130E94F05183E50E949AD488233C
:104E900081F00E94EAD3AB01BC014093B30650936A
:104EA000B4066093B5067093B60682E096E00E9461
:104EB000C9CA80913B04882319F081E080933A04A9
:104EC00011110C94D23003CF8091AB139091AC139D
:104ED00021E02093390440E060E00E94F0510C94FE
:104EE000D2300E94A7827B018C0120E831E541E0AD
:104EF00050E00F94C10BC9016DE671E00F94240CD2
:104F00004B015C01C801B70120E13EE040E050E008
:104F10000F94C10BCA01B90128E130E040E050E034
:104F20000F94C10B762E672EC62ED72E7CE3272E2C
:104F3000312C412C512CC801B701A20191010F94D1
:104F4000C10BF62EE72ECA01B901A20191010F94FF
:104F5000C10BCB018E010F5F1F4F8114910499F09B
:104F6000EF92FF927F936F936F927F92BF92AF9277
:104F70009F928F9286EE94E09F938F931F930F934F
:104F80000F94520713C0A114B104B1F0EF92FF9235
:104F90007F936F936F927F92BF92AF9286ED94E072
:104FA0009F938F931F930F930F9452070FB6F8940C
:104FB000DEBF0FBECDBF30C0CD2879F0EF92FF929B
:104FC0007F936F936F927F928AEC94E09F938F937D
:104FD0001F930F930F945207E9CF892B69F0EF923B
:104FE000FF927F936F9382EC94E09F938F931F9334
:104FF0000F930F945207DACFEF92FF928EEB94E06B
:105000009F938F931F930F930F9452070F900F90BE
:105010000F900F900F900F9060E0C8010E9456769D
:10502000EAEFFAE084917F01BFEFEB1AFB0A8823D5
:1050300021F00E94B7D4F701F5CFB8018AEF94E0D0
:105040000E94EC9A8AE00E94B7D40C94D23083E597
:105050000E949AD4882311F40C94D2300E94FAD37F
:10506000E82E80E50E949AD4882339F00E94FAD372
:10507000182F87FF03C00C94D2301DE089E40E94F2
:105080009AD4882341F00E940ED481110C941632D8
:10509000EBE7F7E00BC089E40E9451D4F6CF3196DC
:1050A00027E0EC3AF20711F40C94163284911813AD
:1050B000F6CF0C94EB3180913A0481110C94D230EC
:1050C00080E50E9451D481110C94E0310C94D230CF
:1050D0000E94DB920C94D2300E94F0920C94D23059
:1050E00088E690E00E94D5D781110C94D23080914F
:1050F000940383FF02C00C94D23083E50E949AD4BB
:105100008823C9F00E941ED40F94C10D70936B13B5
:1051100060936A1380E00E94057C0E941ED420E008
:1051200030E04AEA52E40F94BA07181624F00E94BD
:10513000F0920E9413E00E94079B0C94D2308EE400
:105140000E949AD4882311F40C94D2300E94EAD39E
:1051500060930A0970930B0980930C0990930D09D1
:105160000C94D23083E50E9451D4882359F083E512
:105170000E949AD4882319F00E94FAD301C080E0DB
:1051800080939403EAEFFAE084918F010F5F1F4F41
:10519000811103C0E5E1F5E004C00E94B7D4F80135
:1051A000F3CF84918F010F5F1F4F882321F00E945E
:1051B000B7D4F801F6CF809194038111D5CDE1E108
:1051C000F5E018C0BB24B394B20E222319F08CE290
:1051D0000E94B7D4F60185919491FC0184918F01CE
:1051E0000F5F1F4F882321F00E94B7D4F801F6CF3C
:1051F0002B2DCCCD84918F010F5F1F4F882309F495
:10520000CFCD0E94B7D4F801F5CF8CE195E00E9494
:10521000CBB00E94AA530C94D23083E50E949AD45A
:10522000811103C0EAEFFAE00DC00E94FAD38D337A
:1052300020F4809341020C94D2308CE3809341029D
:105240000C94D23084918F010F5F1F4F882321F07F
:105250000E94B7D4F801F6CF4091410250E060E0DF
:1052600070E085E295E00E94999A8AE00E94B7D4A6
:1052700099C789E690E00E94D5D7811111C0ECE270
:10528000F5E084918F010F5F1F4F882321F00E946A
:10529000B7D4F801F6CF0E94FC7A8AE00E94B7D416
:1052A000109296100C942B3283E50E949AD4882396
:1052B00009F478C70E94FAD3182F8D3308F01CE345
:1052C0001093A3100E943CE86B017C01212F30E079
:1052D000A8EEB3E00F94150CC60ED71EE81EF91EFB
:1052E000C0929F10D092A010E092A110F092A21054
:1052F00059C70E94E1A656C78091940383FD52C707
:1053000083E50E949AD4882309F44CC70E941ED4D6
:105310000F94C10D6639710514F066E970E0709361
:105320006913609368130E94B97B3CC780E50E94B3
:105330009AD4811106C083E50E949AD4882359F03B
:1053400005C00E94FAD381112DC7F5CF0E94EAD380
:105350006F3F710510F06FEF70E070936D13609305
:105360006C1320C780E50E949AD4811105C0109269
:105370006D1310926C1316C70E94EAD3672B09F0C5
:1053800011C7F5CF109287030DC781E08093870383
:1053900009C70E944F5E06C783E50E9451D4882347
:1053A00009F400C70E941ED420E030E04AE754E42C
:1053B0000F9420080F94C80D60939B1070939C105D
:1053C00080939D1090939E10EDC6D6018D916D0136
:1053D0000E9451D4882309F46DC0133009F063C0D2
:1053E0000E941ED44B015C0120E030E040EA51E411
:1053F0000F94BA0787FF4EC0A50194016091171161
:10540000709118118091191190911A110F944F0DEC
:105410002B013C019B01AC016091071170910811B7
:105420008091091190910A110F942008609307113F
:10543000709308118093091190930A11A3019201AE
:1054400060913B0A70913C0A80913D0A90913E0A1E
:105450000F94200860933B0A70933C0A80933D0AA6
:1054600090933E0A6091470B7091480B8091490BD5
:1054700090914A0B0F94BF07A30192010F9420084B
:105480000F94C80D6093470B7093480B8093490BA2
:1054900090934A0B8092171190921811A0921911B3
:1054A000B0921A1107C00E941ED4F7016083718365
:1054B000828393831F5FF4E0EF0EF11C143009F038
:1054C00084CF0E94929B6EC60E94694B83E50E9426
:1054D0009AD4882309F411C90E94EAD36230710575
:1054E00009F00BC90E945DB88BE50E94B7D46091AA
:1054F000CD067091CE068091CF069091D00642E005
:105500000E9433D84091D1065091D2066091D306C3
:105510007091D40682E495E00E94B69A4091D50637
:105520005091D6066091D7067091D8068FE395E02A
:105530000E94B69A8DE50E94B7D48AE00E94B7D443
:1055400031C684918F010F5F1F4F882321F00E9485
:10555000B7D4F801F6CF60E084E196E00E94825A69
:1055600061E08DE096E00E94825A61E082E096E080
:105570000E94825A61E082EF95E00E94825A60E0C8
:1055800089EE95E00E94825A61E08FED95E00E94DD
:10559000825A61E085ED95E00E94825A61E08DECCF
:1055A00095E00E94825A61E08FEB95E00E94825A5A
:1055B00061E081EB95E00E94825A60E082EA95E02A
:1055C0000E94825A60E084E995E00E94825A60E07D
:1055D0008EE795E00E94825A60E08DE695E00E9499
:1055E000825A60E088E595E00E94825A61E085E495
:1055F00095E00E94825AD6C58091AB139091AC136E
:10560000DC012C91222321F060E00E945676CAC56D
:105610000E9413E0C7C50091AB131091AC1383E057
:10562000D12C40E08150E1F0F8019081292F2B7FAF
:105630002134C1F721812133A9F7913421F0953428
:1056400021F441E002C0DD24D39498012E5F3F4F46
:1056500089012F5F3F4FD8019C919032C9F3E2CF6F
:10566000442369F0EAEFFAE084917F01BFEFEB1A7F
:10567000FB0A882321F00E94B7D4F701F5CFDD2083
:1056800069F0E5E0F7E084917F012FEFE21AF20A7A
:10569000882321F00E94B7D4F701F5CFD8018D916E
:1056A0008D01882309F47CCB0E94B7D4F7CF0E94E8
:1056B00009F578C5109223111092221173C583E564
:1056C0000E949AD4882319F00E94EAD302C060E0B5
:1056D00070E08B01112702301105D4F0EBECFAE0F9
:1056E00084918F010F5F1F4F811103C0E9E0F7E044
:1056F00004C00E94B7D4F801F3CF84918F010F5FEB
:105700001F4F882309F44EC50E94B7D4F801F5CF86
:1057100088E40E949AD48823A9F00E94EAD36A3AC6
:1057200071053CF06E31B1E07B072CF06DE171E06A
:1057300002C06AEA70E0F801EE0FFF1FE15EF54F6C
:105740007183608386E40E949AD48823A9F00E9422
:10575000EAD3F801EE0FFF1FED5DF54F7183608313
:105760006F3F710519F014F06FEF70E077FF02C022
:1057700060E070E07183608382E40E949AD48823A1
:1057800009F410C50E94EAD36530710534F0683819
:1057900071052CF067E870E002C065E070E0000F72
:1057A000111FF801E55EF54F71836083FBC488EC3F
:1057B00090E00E94D5D78111F5C484E40E9451D4B1
:1057C000882309F441C00E941ED46B017C0111E0C2
:1057D00020E030E0A9010F94BA07811101C010E068
:1057E0001093951020E030E0A901C701B6010F9495
:1057F000BA07882349F10E941ED4E0918E0A24E062
:10580000E29FF0011124EF56FF4E60837183828383
:10581000938320E030E0A901609191107091921083
:1058200080919310909194100F94BA0781110CC03D
:1058300080E090E0A0E4B0E4809391109093921007
:10584000A0939310B09394100E949FF0ABC4D70123
:105850008D917D010E9451D4882349F00E941ED46D
:105860000F94C80DF80160837183828393830C5F6A
:105870001F4FC016D10659F70E94379B93C4A9E663
:10588000EA2EA2E0FA2E0FE21AE0D7018D917D01F7
:105890000E9451D4882339F00E941ED4F8016083FD
:1058A0007183828393830C5F1F4FFAE00F331F07CE
:1058B00061F778C483E50E949AD48823A1F00E94FE
:1058C0001ED46093F7107093F8108093F9109093A2
:1058D000FA106093EF107093F0108093F110909392
:1058E000F21010E001C011E080E50E949AD48823F4
:1058F00059F00E941ED46093F7107093F8108093B3
:10590000F9109093FA1010E082E50E949AD488234F
:1059100059F00E941ED46093F3107093F41080939A
:10592000F5109093F61010E084E50E949AD4882335
:1059300059F00E941ED46093EF107093F010809382
:10594000F1109093F2102EC4112309F42BC440914E
:10595000F7105091F8106091F9107091FA1081E3EE
:1059600097E00E94B69A4091F3105091F410609124
:10597000F5107091F6108EE297E00E94B69A409171
:10598000EF105091F0106091F1107091F2108BE2D5
:1059900097E00E94B69A8AE00E94B7D403C481E5DA
:1059A0000E9451D4882351F00E94DAD360938F0370
:1059B00070939003809391039093920383E50E94E8
:1059C00051D4882351F00E941ED460932B0A709307
:1059D0002C0A80932D0A90932E0A84E50E9451D4BC
:1059E000882351F00E941ED46093270A7093280ADE
:1059F0008093290A90932A0A88E50E9451D488232B
:105A000051F00E941ED46093FB107093FC108093A1
:105A1000FD109093FE1089E50E9451D4882351F027
:105A20000E941ED46093FF107093001180930111A7
:105A3000909302118AE50E9451D48823F1F00E94CC
:105A40001ED46093031170930411809305119093F9
:105A500006112DEC3CEC4CEC5DE30F94BA071816E4
:105A600064F0E1E4F7E084918F010F5F1F4F88231A
:105A700021F00E94B7D4F801F6CF85E40E9451D4FA
:105A8000882309F48FC30E941ED46093071170937A
:105A900008118093091190930A1184C3E9E6CE2E70
:105AA000E2E0DE2EF5E2EF2EF1E1FF2E10E0D6016E
:105AB0008D916D010E9451D4882351F00E941ED413
:105AC000F7016083718382839383812F0E94D6D2F2
:105AD0001F5FF4E0EF0EF11C133049F70C947D23A7
