:100000000C94CC1B0C94FD1B0C94FD1B0C94FD1B41
:100010000C94FD1B0C94FD1B0C94FD1B0C94FD1B00
:100020000C94FD1B0C94FD1B0C94FD1B0C94FD1BF0
:100030000C94FD1B0C94FD1B0C94FD1B0C94FD1BE0
:100040000C94FD1B0C945FEA0C94FD1B0C94FD1B9F
:100050000C94FD1B0C94FD1B0C94B98F0C9410F8A0
:100060000C94FD1B0C94F7E20C94FD1B0C94FD1BEF
:100070000C94FD1B0C94FD1B0C94FD1B0C94FD1BA0
:100080000C94FD1B0C94FD1B0C94FD1B0C94FD1B90
:100090000C94FD1B0C94FD1B0C94FD1B0C94FD1B80
:1000A0000C94FD1B0C94FD1B0C94FD1B0C94FD1B70
:1000B0000C94FD1B0C94FD1B0C94FD1B0C94FD1B60
:1000C0000C94FD1B0C94FD1B0C94FD1B0C94FD1B50
:1000D0000C94FD1B0C94FD1B0C94FD1B0C94FD1B40
:1000E0000C94FD1BFAF3FDF3ECF3F0F3F6F334F4A8
:1000F00001F405F40BF40FF413F419F41DF421F4D6
:1001000034F427F42BF42FF42AF72FF734F73EF7C3
:1001100048F7C1F752F75AF762F76CF776F780F7AE
:100120008FF799F7C1F7A3F7ADF7B7F735FABEF830
:10013000F7F871FAF7F8F7F8F7F8F7F8F7F8F7F8CB
:10014000F7F8F7F8F7F8F7F8F7F8F7F8F7F8F7F837
:10015000F7F8F7F8F7F8F7F8F7F8F7F8F7F8F7F827
:10016000F7F8F7F8F7F8F7F86BFAF7F8F7F8F7F8A1
:10017000F7F8F7F8F7F8F7F8F7F844FAF7F8F7F8B8
:10018000F7F8F7F8F7F8F7F8F7F8F7F8F7F8F7F8F7
:1001900088FAF4F8084AD73B3BCE016E84BCBFFD19
:1001A000C12F3D6C74319ABD56833DDA3D00C77F47
:1001B00011BED9E4BB4C3E916BAAAABE00000080E0
:1001C0003F05A84CCDB2D44EB93836A9020C50B96F
:1001D000918688083CA6AAAA2ABE000000803F009B
:1001E0000C94EA9F0C9424A80C94E07D0C94ECF3FE
:1001F0000C946AD40C94F7F80C94A89B0C94B9D284
:100200000C943EF70C9419CD0C94A3F70C9421F4A4
:100210000C942AF70C948EF10C9480F70C94CCADCE
:100220000C945FA70C94DD8D0C943C7B0C9473AA0A
:100230000C94ADF70C94F0F30C94BEF80C9413F4FA
:100240000C94AEA90C9434F40C942FF40C9471FA21
:100250000D94B5020C94FCEF0C94DD7D0C9427F406
:100260000C9407CD0D94E0000C942BF40C9499F7AA
:100270000C94C4D40C94E9A80C94B7F70C9494D4BF
:100280000C94AC990C94E0990C94B1990C94BB9E8D
:100290000C9434F70C940E7B0C94B8EF0C949FD113
:1002A0000C940FF40C9405F40C946CF70C94F9ABCB
:1002B0000C94407B0C9444FA0C94257B0C9476F7B8
:1002C0000C944B800C94BB990C94F6F30C940BF4A7
:1002D0000C94A39B0C94D4990C94FF9D0C9448F718
:1002E0000C94B8DC0C9466570C9462F70C94B69995
:1002F0000C94B29B0C94DA990C94F9EE0C94FDF3E7
:100300000C94AD9B0C945AF80C9423D00C942FF7BA
:100310000C9488FA0C94FAF30C94F4F80C9471ACE5
:100320000C948FF70C9438AB0C94C1F70C9497A6EF
:100330000C9457840C9401F40C946BFA0C94C2D472
:100340000C9435FA0C94DA7D0C9495970C94B5EFD7
:100350000C943E7B0C942E970C9452F70C94D6EE92
:100360000C945AF70C94CFDC0C94B7DC0C9419F471
:100370000C941C9A0C941DF44E414E494E4954590C
:10038000494E46CDCCCC3D0AD7233C17B7D1387760
:10039000CC2B329595E6241FB14F0A000020410076
:1003A00000C84200401C4620BCBE4CCA1B0E5AAEC0
:1003B000C59D74434F4D4D554E49434154494F4E91
:1003C0000044525952554E004552524F5253004923
:1003D0004E464F004543484F0047322F4733206277
:1003E000616420706172616D65746572730A005397
:1003F0006C6565702E2E2E00486F6D652058592053
:1004000066697273740A00486F6D652058592066DA
:100410006972737400205A3A200020593A20004231
:10042000656420583A20004D65736820706F696ECE
:10043000742063616E6E6F74206265207265736FE5
:100440006C7665640A00436C69636B20746F20727C
:100450006573756D652E2E2E004E6F206D6F76655F
:100460002E00456E642066696C65206C6973740AA1
:1004700000426567696E2066696C65206C697374FB
:100480000A00286E6F2066696C652900534420704D
:1004900072696E74696E67206279746520004E6FB0
:1004A00074205344207072696E74696E670A004349
:1004B000757272656E742066696C653A20002569F4
:1004C000730025696D2025697300256968202569F9
:1004D0006D202569730025696420256968202569D8
:1004E0006D202569730025697920256964202569B7
:1004F000682025696D20256973005072696E74202B
:1005000074696D653A2000D403CF03C803C103B3F7
:10051000036F66660044454255473A004B494C4CD0
:1005200045442E20004D3131332053006F6B004283
:100530006967426F782050726F204F66662E002CDC
:1005400020002C2000544845524D414C5F50524FE2
:1005500054454354494F4E004155544F5245504F16
:1005600052545F53445F53544154555300454D45D5
:100570005247454E43595F50415253455200434103
:1005800053455F4C494748545F4252494748544E8F
:1005900045535300544F47474C455F4C49474854D7
:1005A0005300534F4654574152455F504F574552A1
:1005B000004255494C445F50455243454E54004C0F
:1005C0004556454C494E475F44415441005A5F509F
:1005D000524F4245004155544F4C4556454C0050F2
:1005E00052494E545F4A4F420050524F4752455372
:1005F00053004155544F5245504F52545F54454D4E
:100600005000564F4C554D455452494300454550B6
:10061000524F4D0053455249414C5F584F4E5F5821
:100620004F4646004649524D574152455F4E414D57
:10063000453A4D61726C696E20312E312E392D6232
:10064000627020286D65746A6161636B2F6D6172E1
:100650006C696E2D626967626F7870726F292053C2
:100660004F555243455F434F44455F55524C3A689E
:10067000747470733A2F2F6769746875622E636F94
:100680006D2F6D6574616A61636B2F6D61726C694A
:100690006E2D626967626F7870726F2050524F548E
:1006A0004F434F4C5F56455253494F4E3A312E30CF
:1006B000204D414348494E455F545950453A42699F
:1006C00067426F782050726F204558545255444508
:1006D000525F434F554E543A3120555549443A6381
:1006E000656465326132662D343161322D343734C0
:1006F000382D396231322D63353563363266333603
:100700003766660A002F2F20004D31343520533CC8
:10071000696E6465783E206F7574206F6620726123
:100720006E67652028302D31290A002054002052A0
:1007300000416363656C65726174696F6E3A205045
:10074000005741524E494E4721204C6F77205A2086
:100750004A65726B206D6179206C65616420746FED
:1007600020756E77616E7465642070617573657352
:100770002E0A0020466C6F773A20000001111030DD
:1007800025FFFFFFFF362F3723FFFFFFFF39383EDE
:1007900021FFFFFFFFFFFF2D090708FFFF171618B6
:1007A000FFFFFF09410208401D1C27FF43290A00E3
:1007B00061626C656420286D696E2074656D7020BF
:1007C00000436F6C64206578747275646573206192
:1007D0007265200020643A0020693A0020703A00D7
:1007E0004E6F2063617365206C696768740A004D01
:1007F00065736820706F696E742063616E6E6F74CC
:10080000206265207265736F6C7665640A004D34F2
:10081000323120696E636F72726563742070617229
:10082000616D657465722075736167650A00454581
:1008300050524F4D204F4B0A003F5A206F75742085
:100840006F662072616E676520282D323020746FCC
:10085000203230290A003A200050726F6265205A17
:10086000204F666673657400416374697665204540
:10087000787472756465723A2000496E76616C69AD
:10088000642065787472756465720A0024F4D4304B
:1008900050C38E20C2A24017828B7011127A910D24
:1008A000816CD90AA861E108C758660761514306FF
:1008B0001E4B5D05C145A7041A411104093D98036B
:1008C000713931034036DB0265339102D430540272
:1008D000802E1D02632CEE01752AC501B028A001EF
:1008E000102781018F2564012B244B01E022340164
:1008F000AC211F018D200D01801FFC00841EED0026
:10090000971DDF00B81CD200E61BC600201BBC00F0
:10091000641AB200B219A8000A19A0006A18990056
:10092000D117910040178B00B516840031167E0058
:10093000B31579003A157300C7146F0058146A0094
:10094000EE1366008813630025135E00C7125B0078
:100950006C12570015125400C111510070114F0054
:1009600021114B00D61049008D104700461044005D
:1009700002104200C00F4000800F3E00420F3C00BA
:10098000060F3B00CB0E3800930E37005C0E35008F
:10099000270E3400F30D3200C10D3100900D3000F0
:1009A000600D2E00320D2D00050D2C00D90C2B00F2
:1009B000AE0C2900850C29005C0C2700350C2700A3
:1009C0000E0C2600E80B2400C40B2400A00B23000F
:1009D0007D0B23005A0B2100390B2100180B20003E
:1009E000F80A1F00D90A1E00BB0A1E009D0A1D003E
:1009F000800A1D00630A1C00470A1B002C0A1B000A
:100A0000110A1A00F7091A00DD091900C4091900B2
:100A1000AB091900920917007B0918006309170038
:100A20004C09160036091600200916000A0915009F
:100A3000F5081500E0081400CC081400B8081400EC
:100A4000A4081400900813007D0812006B0813001E
:100A5000580812004608120034081100230811003B
:100A60001208110001081100F0071000E007100043
:100A7000D0071000C0071000B0070F00A10710003A
:100A800091070E0083070F0074070F0065070E0023
:100A900057070E0049070E003B070D002E070E00FA
:100AA00020070D0013070D0006070D00F9060C00C6
:100AB000ED060D00E0060C00D4060C00C8060C0084
:100AC000BC060C00B0060C00A4060B0099060C0036
:100AD0008D060B0082060B0077060B006C060B00E0
:100AE00061060A0057060B004C060A0042060A007F
:100AF00038060A002E060A0024060A001A060A0012
:100B00001006090007060A00FD050900F4050900A2
:100B1000EB050900E2050900D9050900D005090027
:100B2000C7050900BE050900B5050800AD050800A8
:100B3000A50509009C050800940508008C0508001F
:100B4000840508007C050800740508006C05070092
:100B5000650508005D050700560508004E050700FD
:100B60004705070040050800380507003105070064
:100B70002A050700230507001C05060016050700C7
:100B80000F0507000805060002050700FB04060024
:100B9000F5040700EE040600E8040600E20407007E
:100BA000DB040600D5040600CF040600C9040600D5
:100BB000C3040600BD040600B7040600B104050026
:100BC000AC040600A6040600A00405009B04060071
:100BD00095040500900406008A04050085040500BC
:100BE000800406007A040500750405007004050001
:100BF0006B04050066040500610405005C04050043
:100C000057040500520405004D0405004804050082
:100C1000430405003E0404003A04050035040500C1
:100C2000300404002C0405002704040023040500FC
:100C30001E0404001A040400160405001104040034
:100C40000D04040009040500040404000004040069
:100C5000FC030400F8030400F4030400F0030400A0
:100C6000EC030400E8030400E4030400E0030400D0
:100C7000DC030400D8030400D4030400D003040000
:100C8000CC030400C8030300C503030024F404D903
:100C9000201BC40C5C0E9804C4095F026507710137
:100CA000F405F900FB04B30048048700C1036900A0
:100CB0005803550003034500BE023A008402310088
:100CC00053022A002902250004022000E4011C002E
:100CD000C8011900AF011700980114008401130026
:100CE000710110006101100051010E0043010D005F
:100CF00036010B002B010B0020010B001501090030
:100D00000C01090003010800FB000800F3000800C3
:100D1000EB000700E4000600DE000600D800060035
:100D2000D2000600CC000500C7000500C200050087
:100D3000BD000400B9000400B5000400B1000400C7
:100D4000AD000400A9000400A5000300A2000300F8
:100D50009F0004009B000300980003009500020020
:100D600093000300900003008D0002008B0003003D
:100D70008800020086000200840003008100020057
:100D80007F0002007D0002007B000200790002006B
:100D9000770001007600020074000200720001007A
:100DA000710002006F0002006D0001006C00020083
:100DB0006A0001006900020067000100660001008E
:100DC0006500010064000200620001006100010092
:100DD000600001005F0002005D0001005C00010096
:100DE0005B0001005A000100590001005800010099
:100DF0005700010056000100550001005400010099
:100E00005300000053000100520001005100010096
:100E1000500001004F0001004E0000004E00010094
:100E20004D0001004C0001004B0000004B00010090
:100E30004A0001004900010048000000480001008C
:100E40004700010046000000460001004500000088
:100E50004500010044000100430000004300010080
:100E6000420000004200010041000000410001007A
:100E7000400001003F0000003F0001003E00000074
:100E80003E0001003D0000003D0001003C0000006C
:100E90003C0000003C0001003B0000003B00010062
:100EA0003A0000003A00010039000000390001005A
:100EB0003800000038000000380001003700000052
:100EC0003700010036000000360000003600010047
:100ED000350000003500000035000100340000003E
:100EE0003400000034000100330000003300000033
:100EF0003300010032000000320000003200010027
:100F0000310000003100000031000100300000001D
:100F100030000000300001002F0000002F00000012
:100F20002F0000002F0001002E0000002E00000006
:100F30002E0001002D0000002D0000002D000000FB
:100F40002D0001002C0000002C0000002C000000EF
:100F50002C0001002B0000002B0000002B000000E3
:100F60002B0001002A0000002A0000002A000000D7
:100F70002A000100290000002900000029000000CB
:100F800029000000290001002800000028000000BE
:100F900028000000280000002800010027000000B1
:100FA00027000000270000002700000027000100A4
:100FB0002600000026000000260000002600000099
:100FC000260001002500000025000000250000008B
:100FD000250000002500000025000100240000007D
:100FE0002400000024000000240000002400010070
:100FF0002300000023000000230000002300000065
:101000002300000023000000230001002200000054
:101010002200000022000000220000002200000048
:10102000220001002100000021000000210000003A
:10103000210000002100000021000000210001002B
:101040002000000020000000200000002000000020
:10105000200000002000000020000000200001000F
:101060001F0000001F0000001F0000001F00000004
:101070001F0000001F0000001F0001001E000000F4
:101080001E0000001E0000001E000000393000009D
:101090003325000087190000B00F0000DB080000B6
:1010A000BD040000740200003F01000042696C6949
:1010B0006E656172204C6576656C696E672047725B
:1010C00069643A0A00486F6D696E67206661696CF1
:1010D000656400202844525952554E290047323940
:1010E000204175746F20426564204C6576656C699B
:1010F0006E67003F20284C2C522C462C4229206F32
:101100007574206F6620626F756E64732E0A003FDF
:101110002856296572626F7365206C6576656C2050
:10112000697320696D706C61757369626C652028E4
:10113000302D34292E0A00426164205A2076616CD9
:1011400075650A004E6F2062696C696E6561722078
:10115000677269640A0046696C652064656C657431
:1011600065643A0044656C6574696F6E20666169F8
:101170006C65642C2046696C653A200020746F6FA2
:10118000206C6F6E6720657874727573696F6E205E
:1011900070726576656E7465640A0020636F6C64B6
:1011A00020657874727573696F6E207072657665EC
:1011B0006E7465640A003A0A0020286D6D290020CB
:1011C000204D383531205A005A2D50726F626520FB
:1011D0004F66667365740020440020490020204D4E
:1011E00033303420500020440020490020204D336B
:1011F00030312050005049442073657474696E6723
:10120000733A0A0020460020420020480020204D6A
:101210003134352053004D6174657269616C20680A
:10122000656174757020706172616D65746572734B
:101230003A0A00205A00204A00202047323920571D
:10124000204900205A0020204D34323020530041E4
:1012500075746F20426564204C6576656C696E67B5
:101260003A0A00205A0020590020204D3230362002
:101270005800486F6D65206F66667365743A0A00A2
:10128000204500205A0020590020580020540020FA
:10129000530020204D32303520510020453C6D61F7
:1012A000785F655F6A65726B3E0020583C6D6178BF
:1012B0005F785F6A65726B3E20593C6D61785F793B
:1012C0005F6A65726B3E205A3C6D61785F7A5F6A37
:1012D00065726B3E00416476616E6365643A2051CD
:1012E0003C6D696E5F7365676D656E745F74696D83
:1012F000655F75733E20533C6D696E5F666565641E
:10130000726174653E20543C6D696E5F74726176E3
:10131000656C5F66656564726174653E00205400AB
:1013200020520020204D323034205000416363654C
:101330006C65726174696F6E2028756E6974732FA5
:101340007332293A20503C7072696E745F61636336
:10135000656C3E20523C726574726163745F6163B8
:1013600063656C3E20543C74726176656C5F6163AA
:1013700063656C3E0A00204500205A002059002079
:10138000204D3230312058004D6178696D756D20E7
:10139000416363656C65726174696F6E2028756E58
:1013A0006974732F7332293A0A00204500205A00CD
:1013B00020590020204D3230332058004D6178698B
:1013C0006D756D206665656472617465732028753E
:1013D0006E6974732F73293A0A00204500205A0061
:1013E00020590020204D3932205800537465707305
:1013F0002070657220756E69743A0A0020204D32A3
:1014000030302044300A0020204D3230302044005B
:101410002044697361626C65640A0046696C616DA1
:10142000656E742073657474696E67733A0020206A
:101430004D3134392043203B20556E697473206947
:101440006E2043656C736975730A00202047323142
:10145000202020203B005452494747455245440034
:101460006F70656E003A20007A5F6D696E00795F7B
:101470006D696E00785F6D696E005265706F727491
:10148000696E6720656E6473746F70207374617425
:1014900075730A00000000010000000100008000D8
:1014A000555555000000400033333300AAAA2A00E6
:1014B0004992240000002000C7711C00999919006E
:1014C000D1451700555515003BB1130024491200B2
:1014D00011111100000010000F0F0F00E3380E0073
:1014E00043790D00CCCC0C00C3300C00E8A20B00FB
:1014F00064210B00AAAA0A00703D0A009DD80900C9
:10150000427B090092240900DCD308008888080087
:101510001042080000000800F0C10700878707009C
:1015200075500700711C07003EEB0600A1BC0600C9
:101530006990060066660600703E060061180600A7
:1015400017F4050074D105005BB00500B2900500EA
:10155000627205005555050078390500B81E050072
:10156000050505004EEC040087D40400A1BD04006D
:1015700090A7040049920400C17D0400EE690400B4
:10158000C7560400444404005C32040008210400EF
:1015900041100400000004003FF00300F8E00300E5
:1015A00026D20300C3C30300CCB503003AA803004E
:1015B0000A9B0300388E0300C08103009F7503005F
:1015C000D0690300505E03001D530300344803003C
:1015D000913D03003333030016290300381F030035
:1015E00097150300300C0300030303000BFA0200FD
:1015F00049F10200BAE802005CE002002DD80200C6
:101600002DD0020059C80200B0C0020031B902005A
:10161000DAB10200AAAA0200A0A30200BC9C020048
:10162000FA9502005C8F0200DF88020082820200CD
:10163000457C02002776020027700200436A020000
:101640007C640200D05E02003F590200C8530200D1
:10165000453120544845524D414C2052554E41573A
:1016600041590042454420544845524D414C205276
:10167000554E4157415900546865726D616C205256
:10168000756E617761790057726974696E6720744D
:101690006F2066696C653A20006F70656E20666128
:1016A000696C65642C2046696C653A20006F706532
:1016B0006E206661696C65642C2046696C653A2011
:1016C0000046696C652073656C65637465640A0027
:1016D0002053697A653A200046696C65206F706511
:1016E0006E65643A20002066696C653A2000646F7C
:1016F000696E67006672657368004E6F77200045FB
:101700004E4420535542524F5554494E450A0022EB
:1017100020706F73002220706172656E743A22002F
:10172000535542524F5554494E452043414C4C204D
:101730007461726765743A22004B494C4C45442EE3
:101740002000747279696E6720746F2063616C6C1D
:10175000207375622D67636F64652066696C6573BD
:10176000207769746820746F6F206D616E79206CCA
:101770006576656C732E204D4158206C6576656CDE
:101780002069733A004572726F723A006F70656E2D
:10179000206661696C65642C2046696C653A20009E
:1017A00043616E6E6F74206F70656E207375626436
:1017B000697220006563686F3A00205A3A00205928
:1017C0003A0020436F756E7420583A0020453A0065
:1017D000205A3A0020593A00583A003A00436170C2
:1017E0003A00205A00205900580020204D61783AD4
:1017F0002000205A00205900580020204D696E3AE0
:1018000020004F6E20004F666600536F667420659F
:101810006E6473746F70733A200020643A0020691C
:101820003A0020703A00496E76616C6964206578F0
:101830007472756465720A004B64200023646566E7
:10184000696E652044454641554C545F004B692004
:101850000023646566696E652044454641554C54D5
:101860005F004B70200023646566696E6520444507
:101870004641554C545F00504944204175746F7483
:10188000756E652066696E697368656421205075A0
:101890007420746865206C617374204B702C204B2D
:1018A0006920616E64204B6420636F6E7374616E97
:1018B00074732066726F6D2062656C6F7720696E3D
:1018C000746F20436F6E66696775726174696F6EBD
:1018D0002E680A00504944204175746F74756E6516
:1018E000206661696C6564212074696D656F75742B
:1018F0000A00453120544845524D414C2052554E26
:10190000415741590042454420544845524D414CAD
:101910002052554E4157415900546865726D616CB3
:101920002052756E61776179004531204865617498
:10193000696E67206661696C656400426564206851
:10194000656174696E67206661696C6564004865ED
:101950006174696E67206661696C65640050494412
:10196000204175746F74756E65206661696C65647D
:10197000212054656D706572617475726520746F95
:101980006F20686967680A00204B643A2000204B8A
:10199000693A2000204B703A20000A20436C6173A2
:1019A00073696320504944200A002054753A20008E
:1019B000204B753A2000206D61783A2000206D6937
:1019C0006E3A200020643A200020626961733A2058
:1019D00000504944204175746F74756E65206661CE
:1019E000696C656421204261642065787472756455
:1019F0006572206E756D6265720A0050494420411F
:101A000075746F74756E652073746172740A004F1B
:101A100066660A00466164652048656967687420E7
:101A200000426564204C6576656C696E67200046EF
:101A300061696C656420746F20656E61626C6520FD
:101A4000426564204C6576656C696E670A004F6676
:101A50006673657473206170706C696564004572AB
:101A6000723A20546F6F206661722100546F6F20AC
:101A70006661722066726F6D207265666572656E52
:101A8000636520706F696E740A004D3234004D3208
:101A90003320257300556E6B6E6F776E20636F6D0C
:101AA0006D616E643A20220050726F62696E672029
:101AB0006661696C65640A0050726F62696E6720C6
:101AC0006661696C656400205A3A200020593A200A
:101AD0000042656420583A2000486F6D65202573E8
:101AE00025732573206669727374002066697273AA
:101AF000740A005A0059005800486F6D6520005361
:101B0000442063617264206F6B0A006F70656E52CF
:101B10006F6F74206661696C65640A00766F6C751E
:101B20006D652E696E6974206661696C65640A0072
:101B3000534420696E6974206661696C0A005265BD
:101B400073746F7265206661696C73616665004CC1
:101B50006F61642073657474696E677300496E69A0
:101B60007469616C697A6520454550524F4D005348
:101B7000746F72652073657474696E67730046696B
:101B80006C616D656E74004D6F74696F6E005465A5
:101B90006D7065726174757265004D61696E00509B
:101BA0007265686561742041425320636F6E660000
:101BB0005072656865617420504C4120636F6E6699
:101BC000005049442D44005049442D44005049449C
:101BD0002D49005049442D49005049442D50005092
:101BE00049442D50002008204661637400200820DD
:101BF00046616374002008204D6178002008204D64
:101C00006178002008204D6178002008204D696E21
:101C1000002008204D696E002008204D696E004F9D
:101C20006666004F6E20004175746F74656D7000BC
:101C300046616E2073706565640046616E20737046
:101C40006565640046616E20737065656400426579
:101C5000640042656400426564004E6F7A7A6C6588
:101C6000004E6F7A7A6C65004E6F7A7A6C6500432D
:101C70006F6E74726F6C0053746F7265207365744D
:101C800074696E6773004265640042656400426572
:101C900064004E6F7A7A6C65004E6F7A7A6C6500DC
:101CA0004E6F7A7A6C650046616E2073706565646C
:101CB0000046616E2073706565640046616E207336
:101CC000706565640054656D7065726174757265E8
:101CD000005654726176206D696E005654726176BA
:101CE000206D696E005654726176206D696E0056E3
:101CF0006D696E00566D696E00566D696E00566DA9
:101D00006178204500566D6178204500566D6178F8
:101D1000204500566D6178205A00566D6178205A32
:101D200000566D6178205A00566D61782059005632
:101D30006D6178205900566D6178205900566D61AB
:101D400078205800566D6178205800566D617820D3
:101D500058004D6F74696F6E004361726420726544
:101D60006D6F766564004361726420696E7365729D
:101D70007465640000060900FE0701920321207FBC
:101D8000FF07FF07FF00000006000001070706022B
:101D90000080808080800080030202060105A0A0F0
:101DA0000507070600005050F850F8505005070787
:101DB0000600002078A07028F02005070706000024
:101DC000C0C810204098180507070600006090A0C2
:101DD00040A89068020303060104C040800307077F
:101DE0000601002040808080402003070706010094
:101DF0008040202020408005050506000120A870B5
:101E0000A8200505050600012020F8202002030374
:101E10000602FFC04080050101060003F80202022D
:101E2000060200C0C005050506000108102040801C
:101E300005070706000070888888888870030707F0
:101E400006010040C040404040E005070706000092
:101E5000708808708080F8050707060000F81020D9
:101E6000100808F005070706000010305090F81021
:101E700010050707060000F880F0080888700507BD
:101E800007060000708080F088887005070706004C
:101E900000F80810202020200507070600007088A1
:101EA00088708888700507070600007088887808A1
:101EB0000870020505060200C0C000C0C002060688
:101EC0000602FFC0C000C0408004070706000010E3
:101ED000204080402010050303060002F800F804AB
:101EE00007070601008040201020408005070706F4
:101EF0000000708808102000200507070600007009
:101F0000880868A8A870050707060000708888F888
:101F1000888888050707060000F08888F08888F020
:101F20000507070600007088808080887005070715
:101F3000060000F08888888888F0050707060000FA
:101F4000F88080F08080F8050707060000F88080A0
:101F5000F0808080050707060000708880B88888B8
:101F600070050707060000888888F88888880107B8
:101F700007060200808080808080800507070600B9
:101F800000381010101090600507070600008890B8
:101F9000A0C0A09088050707060000808080808090
:101FA00080F805070706000088D8A8888888880573
:101FB00007070600008888C8A898888805070706CC
:101FC000000070888888888870050707060000F080
:101FD0008888F08080800507070600007088888860
:101FE000A89068050707060000F08888F0A0908890
:101FF000050707060000788080700808F0050707CD
:10200000060000F8202020202020050707060000F9
:10201000888888888888700507070600008888886F
:10202000888850200507070600008888888888A8C7
:10203000500507070600008888502050888805074B
:102040000706000088888850202020050707060022
:1020500000F80810204080F8030707060100E08020
:1020600080808080E0050505060001804020100882
:10207000030707060100E02020202020E0050303DD
:10208000060004205088050101060000F802020243
:10209000060205804005050506000070087888786E
:1020A0000507070600008080B0C88888F005050590
:1020B0000600007080808870050707060000080889
:1020C00068988888780505050600007088F8807093
:1020D0000507070600003048E0404040400506067E
:1020E0000600FF70888878087005070706000080E2
:1020F00080B0C888888801070706020080008080B9
:102100008080800308080601FF200020202020A0F6
:1021100040040707060000808090A0C0A09003073D
:1021200007060100C04040404040E00505050600AC
:1021300000D0A8A8A8A8050505060000B0C8888892
:102140008805050506000070888888700506060663
:1021500000FFF08888F080800506060600FF78887A
:1021600088780808050505060000B0C8808080054D
:10217000050506000070807008F0040707060000DF
:102180004040E04040403005050506000088888852
:102190009868050505060000888888502005050513
:1021A0000600008888A8A85005050506000088508C
:1021B0002050880506060600FF8888887808700584
:1021C0000505060000F8102040F803070706010087
:1021D00020404080404020010707060200808080A8
:1021E0008080808003070706010080404020404037
:1021F0008005020206000268900000000600000050
:10220000000000300E0100C00E0A00500F1400D074
:102210000F1E0060102800E010320070113C00F02A
:102220001146007012500000135A00801364000021
:10223000146E00901478001015820090158C001018
:102240001696009016A0001017AA009017B4001060
:1022500018BE009018C8001019D2009019DC0010A8
:102260001AE600801AF000001BFA00801B0401F03F
:102270001B0E01701C1801F01C2201601D2C01E0D6
:102280001D3601501E4001D01E4A01401F5401B0AE
:102290001F5E0130206801A020720110217C019096
:1022A000218601002290016026F401902A580280C4
:1022B0002EBC0250322003E03584035039E80380FD
:1022C0003C4C0408FFFFFFFFFF0001010101016218
:1022D00065640A002C2073797374656D2073746FC4
:1022E0007070656421204865617465725F49443A85
:1022F00020004265642068656174696E67206661CC
:10230000696C65640048656174696E67206661691F
:102310006C65640045312048656174696E672066AC
:1023200061696C65640048656174696E6720666107
:10233000696C6564001000C90210012C0140012283
:102340000170011801B0010E01F00104015002FA00
:1023500000B002F0003003E600D003DC009004D2AD
:10236000007005C800A006BE000008B400B009AAAD
:1023700000D00BA000600E960060118C000015824A
:102380000020197800C01D6E00A0226400B0275AFA
:1023900000902C500000314600E0343C00103832F0
:1023A00000903A2800603C1E00A03D1400803E0AC8
:1023B00000203F00004531204572723A204D4158BF
:1023C00054454D50004572723A204D415854454D88
:1023D0005020424544004D415854454D50207472A0
:1023E00069676765726564004531204572723A20FD
:1023F0004D494E54454D50004572723A204D494E5C
:1024000054454D5020424544004D494E54454D5091
:1024100020747269676765726564004D38342058AE
:102420002059205A204500202F002042403A002009
:10243000403A0050726568656174204142532045FE
:102440006E64005072656865617420414253204299
:1024500065640050726568656174204142530050A4
:10246000726570617265004D343238005072656873
:1024700065617420504C4100436F6F6C646F776EE0
:10248000005072656865617420414253004469736D
:1024900061626C65207374657070657273004D388D
:1024A000340053657420686F6D65206F66667365D0
:1024B0007473004661646520486569676874004606
:1024C00061646520486569676874004661646520D9
:1024D000486569676874004F6666004F6E20004269
:1024E0006564204C6576656C696E67004C65766541
:1024F0006C20626564004732380A47323900417502
:10250000746F20686F6D6500473238004D6F7665D7
:102510002061786973004D61696E004D6F766520AA
:1025200058004D6F76652059004D6F7665205A0032
:102530004578747275646572004D6F766520302E33
:10254000316D6D004D6F766520316D6D004D6F768C
:10255000652031306D6D004D6F766520617869734F
:10256000004578747275646572004D6F7665205A07
:10257000004D6F76652059004D6F766520580045F7
:1025800078747275646572004D6F7665205A004DDF
:102590006F76652059004D6F766520580050726542
:1025A0007061726500496E697469616C697A652051
:1025B000454550524F4D00436F6E74726F6C000072
:1025C000060900FE000000000001090008FE0000EE
:1025D00005080806000040F0C888889878100508AB
:1025E00008060000C0F88888888888F80505050670
:1025F00000012030F830200508080600002070F89F
:1026000020202020E00509090600FF2070A8A8B8B6
:10261000888870200509090600FFE080C0B0A8285E
:102620003028280509090600FFF8A88888888888C6
:10263000A8F8050A0A0600FE205050505088A8A8A5
:10264000887003030306000340A04025753A253037
:10265000327500253032753A2530327500257564A3
:1026600020253032753A2530327500202020202078
:1026700020005A0059002020202000580009200086
:102680000000000000000000000000003FFFF0001C
:102690000000000000000000000000380070000092
:1026A0000000000000000000000030FC30000000CE
:1026B00000000000000000000020FC1000000000EE
:1026C0000000000000000000207810000000000062
:1026D000000000000000002030100000000000009A
:1026E0000000000000002C00D03FC00000000000EF
:1026F00000002082002E31D07FE0000000000000AA
:10270000001041002F7BD07FE0000000000000009F
:102710001041002F7BD07FE000000000000000206F
:1027200082002E31D03FC0000000000000004104B4
:10273000002C00D03FC00000000000000082080014
:102740002030107FE0000000000000008208002020
:1027500078107FE00000000000000041040020FC31
:10276000107FE00000000000000020820030FC30FC
:102770001F80000000000000000000003800700F03
:102780000000000000000000FFFFC03FFFF0060057
:1027900000000000000000FFFFC00000000000007B
:1027A0000000000000000000003FFFF000000000FB
:1027B0000000000000000000380070000000000071
:1027C0000000000000000031863000000000000022
:1027D000000000000000238710000000000000003F
:1027E00000000000002787900000000000000000AB
:1027F000000000002F87D000000000000000000053
:102800000000002F03D03FC00000000000000020A7
:1028100082002030107FE000000000000000104126
:10282000002078107FE00000000000000010410050
:102830002078107FE00000000000000020820020CF
:1028400030103FC0000000000000004104002F03D2
:10285000D03FC0000000000000008208002F87D099
:102860007FE0000000000000008208002787907FC2
:10287000E0000000000000004104002387107FE01A
:10288000000000000000002082003186301F800020
:102890000000000000000000003800700F00000081
:1028A0000000000000FFFFC03FFFF0060000000036
:1028B00000000000FFFFC000000046696C2E2044AD
:1028C00069612E0046696C2E204469612E004F66B6
:1028D00066004F6E20004520696E206D6D33004309
:1028E0006F6E74726F6C0043616E6E6F7420656EF4
:1028F000746572207375626469723A2000022E2E2C
:10290000004D61696E0050726F7465637465642078
:1029100050696E0A005374616E646172642044658C
:1029200076696174696F6E3A20002052616E676546
:102930003A2000204D61783A2000204D696E3A20FF
:10294000004D65616E3A200046696E697368656482
:10295000210A002072616E67653A2000206D61785F
:102960003A2000206D696E3A2000207369676D611E
:102970003A2000206D65616E3A20003A207A3A20B4
:1029800000206F662000205A002059002058004780
:102990006F696E6720746F3A00436C6F636B776981
:1029A00073650A00436F756E7465722D002044696B
:1029B00072656374696F6E3A2000202020616E6733
:1029C0006C653A20005374617274696E672072619D
:1029D000646975733A2000506F736974696F6E692A
:1029E0006E67207468652070726F62652E2E2E0AE5
:1029F000003F4E756D626572206F66206C6567736F
:102A000020696E206D6F76656D656E74206E6F74D3
:102A100020706C61757369626C652028302D3135CA
:102A2000292E0A003F2028582C5929206F75742020
:102A30006F6620626F756E64732E0A003F53616D7E
:102A4000706C652073697A65206E6F7420706C619C
:102A5000757369626C652028342D3530292E0A0083
:102A60004D3438205A2D50726F6265205265706562
:102A700061746162696C69747920546573740A00C9
:102A80003F2856296572626F7365206C6576656CA8
:102A900020697320696D706C61757369626C652063
:102AA00028302D34292E0A0020573A004520436F44
:102AB0006F6C696E672E2E2E004520486561746923
:102AC0006E672E2E2E0020573A0042656420636FF9
:102AD0006F6C696E672E2E2E0042656420686561FA
:102AE00074696E672E2E2E0020746F6F206C6F6ECF
:102AF0006720657874727573696F6E207072657681
:102B0000656E7465640A0020636F6C642065787478
:102B1000727573696F6E2070726576656E74656428
:102B20000A00627573793A20706175736564206676
:102B30006F7220696E7075740A00627573793A203D
:102B400070617573656420666F7220757365720AB3
:102B500000627573793A2070726F63657373696E82
:102B6000670A004B494C4C45442E20004B494C4CC5
:102B700020636175736564206279204B494C4C2059
:102B8000627574746F6E2F70696E0A004B494C4CFD
:102B900045442E20004B494C4C206361757365649D
:102BA00020627920746F6F206D75636820696E6193
:102BB00063746976652074696D65202D2063757274
:102BC00072656E7420636F6D6D616E643A200050A3
:102BD0006C65617365207265736574005052494E6F
:102BE0005445522048414C544544005072696E741B
:102BF00065722068616C7465642E206B696C6C284A
:102C0000292063616C6C6564210A00656E717565CD
:102C10007565696E6720220000000000000000005A
:102C20000000000000004842000048420000C04090
:102C3000000000005761726E696E673A20486F6D40
:102C4000696E672042756D702044697669736F7292
:102C5000203C20310A0002020400004040000040F5
:102C600040000000400000964300007043000096C2
:102C700043FFFFFF4572726F722077726974696E4D
:102C80006720746F20454550524F4D210A0045453D
:102C900050524F4D206461746173697A652065728A
:102CA000726F722E0A00290A002062797465733BE4
:102CB00020637263200053657474696E67732053D8
:102CC000746F726564202800416D61782045004171
:102CD0006D6178204500416D6178205A00416D6139
:102CE00078205A00416D6178205900416D6178204B
:102CF0005900416D6178205800416D61782058007D
:102D0000412D74726176656C00412D747261766537
:102D10006C00412D7265747261637400412D72659F
:102D2000747261637400416363656C004163636541
:102D30006C004D6F74696F6E0056652D6A65726B1D
:102D40000056652D6A65726B0056652D6A65726B5B
:102D500000567A2D6A65726B00567A2D6A65726B21
:102D60000056792D6A65726B0056792D6A65726B13
:102D70000056792D6A65726B0056782D6A65726B04
:102D80000056782D6A65726B0056782D6A65726BF5
:102D9000004D6F74696F6E004573746570732F6DAD
:102DA0006D004573746570732F6D6D005A73746593
:102DB00070732F6D6D005A73746570732F6D6D0095
:102DC0005973746570732F6D6D00597374657073EA
:102DD0002F6D6D005873746570732F6D6D0058738F
:102DE000746570732F6D6D004D6F74696F6E005355
:102DF000746570732F6D6D004A65726B004163637B
:102E0000656C65726174696F6E0056656C6F63699D
:102E100074790050726F6265205A204F6666736540
:102E2000740050726F6265205A204F666673657435
:102E300000436F6E74726F6C00FFFFFF800FFC0F1A
:102E400081F80FFC00F81E0FFFFFFF800FFF0F83BC
:102E5000FE0FFF03FE1E0FFFFFFF800FFF0F87FF18
:102E60000FFF07FF1F1FE00003800FFF8F8FFF0F73
:102E7000FF87FF0F1EE00003800F8F8F8F8F8F8FD4
:102E80008F8F8F1EE03E03800F8F8F8F8F8F8F8FDE
:102E90008F87BCE03E03800F8F8F8F8F8F8F8F8F38
:102EA00087BCE03E03800F8F8F8F8F8F8F8F8F8730
:102EB000FCE03E03800FFF8F8F8F8FFF8F8F83F893
:102EC000E03E03800FFF0F8F800FFF0F8F83F8E02E
:102ED0001C03800FFC0F8F800FFC0F8F83F8E0081E
:102EE00003800FFF0F8F9F8FFF0F8F83F8E000038A
:102EF000800FFF8F8F9F8FFF8F8F83F8E0000380FD
:102F00000F8F8F8F9F8F8F8F8F87FCE00003800F35
:102F10008F8F8F8F8F8F8F8F87BCE00003800F8FF5
:102F20008F8F8F8F8F8F8F87BCE00003800F8F8FE5
:102F30008F8F8F8F8F8F873CE00003800F8F8F8F55
:102F40008F8F8F8F8F8F1EE00003800F8F8F8F8F5B
:102F50008F8F8F8F8F1EE00003800FFF8F8FFF8F6B
:102F6000FF87FF0F1EE00003800FFF8F87FF8FFF9B
:102F700087FF1F1FE00003800FFF0F83FB8FFF03FE
:102F8000FE1E0FE00003800FFE0F81F38FFE00F89E
:102F90001E0FE000038000000000000000000000A1
:102FA00000E00003800000000000000000000000BE
:102FB000E00003800000000000000000000000E7C7
:102FC000FFF3800000000000000000000000E7FFA9
:102FD000F3800000000000000000000000E000039B
:102FE000800000000000000000000000E0000380FE
:102FF0000000000000000000000000E0000380006E
:1030000000000000000000000000FFFFFF80000043
:10301000000000000000000000FFFFFF8000000033
:103020000000000000000000FFFFFF800000000023
:10303000000000000000002020506C616E6E657280
:1030400042756666657242797465733A200020465F
:10305000726565204D656D6F72793A2000436F6D22
:1030600070696C65643A204A616E202035203230E8
:1030700031390A00207C20417574686F723A20282B
:103080004A61636B204D6F66666974742C2045330A
:10309000442042696742786F2050726F290A0032DB
:1030A0003031382D31322D333100204C6173742092
:1030B000557064617465643A2000312E312E392DCB
:1030C0006262700A004D61726C696E0020536F6617
:1030D00074776172652052657365740A00205761C8
:1030E000746368646F672052657365740A002042D8
:1030F000726F776E206F75742052657365740A0065
:103100002045787465726E616C2052657365740A2F
:1031100000506F77657255700A0073746172740A9B
:10312000006175746F25692E67006572726F722079
:1031300077726974696E6720746F2066696C650ABE
:1031400000456E6473746F707320256320256320BF
:10315000256320256300205A3A0020593A00205860
:103160003A00656E6473746F7073206869743A20F6
:1031700000446F6E6520736176696E672066696CC6
:10318000652E0A004D3239007C3C3E5E2B3D3F2FC0
:103190005B5D3B2C2A225C004B494C4C45442E2065
:1031A0000053544F505045442E20005072696E74A5
:1031B00065722073746F7070656420647565207427
:1031C0006F206572726F72732E2046697820746862
:1031D00065206572726F7220616E64207573652060
:1031E0004D39393920746F20726573746172742E91
:1031F000202854656D7065726174757265206973FD
:103200002072657365742E20536574206974206183
:10321000667465722072657374617274696E672971
:103220000A004E6F20436865636B73756D20776984
:103230007468206C696E65206E756D6265722C20F5
:103240004C617374204C696E653A20004E6F2043C8
:103250006865636B73756D2077697468206C696E3F
:1032600065206E756D6265722C204C617374204C04
:10327000696E653A2000636865636B73756D206DD8
:1032800069736D617463682C204C617374204C69A0
:103290006E653A20004C696E65204E756D626572F0
:1032A000206973206E6F74204C617374204C696EBA
:1032B00065204E756D6265722B312C204C617374E4
:1032C000204C696E653A20004D313130004D33316C
:1032D0000053442072656164206572726F720A0047
:1032E000446F6E65207072696E74696E67206669DE
:1032F0006C650A0020496E76616C6964206578749B
:10330000727564657220000000000000000000007B
:10331000000000000096430000704300009643291F
:103320000A002062797465733B2063726320002079
:1033300073746F7265642073657474696E6773204B
:10334000726574726965766564202800202863615F
:103350006C63756C6174656429210A0020213D202D
:1033600000454550524F4D20435243206D69736DC7
:1033700061746368202D202873746F72656429203E
:10338000002053697A653A2000496E6465783A20D6
:1033900000204D61726C696E3D563535290A002852
:1033A000454550524F4D3D00454550524F4D2076BA
:1033B000657273696F6E206D69736D6174636820E7
:1033C0000048617264636F6465642044656661757A
:1033D0006C742053657474696E6773204C6F6164FC
:1033E00065640A00E8030000E803000064000000D0
:1033F0001027000000001643000016430000C040E4
:103400000000484200002043000034430000C8444C
:1034100000009843FFFDFCFAF8F6F4F2F0EEECEA57
:10342000E9E7E5E3E1E0DEDCDAD9D7D5D4D2D0CFE5
:10343000CDCBCAC8C7C5C3C2C0BFBDBCBAB9B7B679
:10344000B4B3B2B0AFADACAAA9A8A6A5A4A2A1A0DE
:103450009E9D9C9A99989795949392908F8E8D8B20
:103460008A8988878684838281807F7E7D7B7A7942
:103470007877767574737271706F6E6D6C6B6A6944
:103480006867666564636261605F5E5D5C5B5A5934
:1034900058585756555453525150504F4E4D4C4B0F
:1034A0004A4A4948474646454443424241403F3ED6
:1034B0003E3D3C3B3B3A393838373635353433328C
:1034C000323130302F2E2E2D2C2B2B2A2929282734
:1034D0002726252524232322212120201F1E1E1DCF
:1034E0001C1C1B1B1A19191818171616151514135E
:1034F0001312121111100F0F0E0E0D0D0C0C0B0AE2
:103500000A0909080807070606050504040303025B
:1035100002010000426967426F782050726F2052AA
:10352000656164792E005072696E74696E672E2E23
:103530002E005072696E742070617573656400505E
:1035400072696E742061626F727465640050726992
:103550006E742066726F6D2053440053746F702038
:103560007072696E7400526573756D652070726952
:103570006E74004E6F20534420636172640050618A
:10358000757365207072696E7400436F6E74726F2C
:103590006C00507265706172650054756E6500490B
:1035A0006E666F2073637265656E00466C6F7700A0
:1035B000466C6F7700466C6F770046616E207370C3
:1035C0006565640046616E207370656564004661E0
:1035D0006E20737065656400426564004265640036
:1035E000426564004E6F7A7A6C65004E6F7A7A6C31
:1035F00065004E6F7A7A6C650046616465204865A7
:103600006967687400466164652048656967687425
:103610000046616465204865696768740053706599
:103620006564005370656564005370656564004DA2
:1036300061696E005072656865617420504C41206C
:10364000456E64005072656865617420504C41207D
:10365000426564005072656865617420504C410099
:10366000507265706172650000002100240027001F
:103670002A002D0030003300010100000401070181
:103680000A0100002200250028002B002E00310036
:10369000340002010000050108010B0100002000B8
:1036A0002300260029002C002F003200000100001A
:1036B00003010601090105050505070508080808B5
:1036C000020202020A0A08080404040401010101BA
:1036D00001010101030303030303030304070707B5
:1036E0000C0C0C0C0C0C0C0C02020202060606065A
:1036F000060606060B0B0B0B0B0B0B0B0102102027
:103700002008081020401020408002010201080417
:1037100002010102040810204080804020100804AB
:103720000201800402018040201008040201080404
:103730000201010204081020408001020408102048
:10374000408000000A0B02090C0D0E08070304015B
:103750000000000000000000000000000000000069
:103760000000000000000000000000000000121136
:103770001000000000000000000000000000000039
:103780000000000000000000526573656E643A207E
:10379000006F6B003201280111241FBECFEFD1E270
:1037A000DEBFCDBF00E00CBF13E0A0E0B2E0ECE66E
:1037B000FCE202E00BBF02C007900D92A638B107F1
:1037C000D9F725E1A6E8B3E001C01D92A837B207FA
:1037D000E1F71BE1CBECDBE100E006C0219701093A
:1037E000802FFE010F947E12CA3CD10780E00807AB
:1037F000A9F70F94D6020D9424160C9400002F9272
:103800003F924F925F926F927F928F929F92AF9270
:10381000BF92CF92DF92EF92FF920F931F93CF93BD
:10382000DF93CDB7DEB7CB56D1090FB6F894DEBF24
:103830000FBECDBF11E01093B60B8091A4148D3450
:1038400011F40C94E324843511F40C94E2318734A0
:1038500011F00C942E322090A2143090A3142CE17D
:103860002216310409F42DC69CF444E024163104D8
:1038700044F452E025163104C4F537FE2FC00C94F1
:10388000DF2484E02816310409F4DDC50C94DF241C
:103890009AE22916310409F407C764F4BDE12B1636
:1038A000310409F425C6EEE12E16310409F424C6CC
:1038B0000C94DF24FBE52F16310409F4B3C72CE583
:1038C0002216310409F4B2C73AE52316310411F087
:1038D0000C94DF2410928A030C94303280913402CD
:1038E00081110C9435320C9430328091340288234B
:1038F00011F40C9430320E94723D82E50E94E9DEA0
:10390000882309F44CC10E946DDE4B015C0120E06C
:1039100030E0A9010F94EC0D882309F470C1809167
:10392000650790916607A0916707B091680788AF17
:1039300099AFAAAFBBAF2091690730916A07409158
:103940006B0750916C072CAF3DAF4EAF5FAF8091CE
:10395000D00B9091D10BA091D20BB091D30B2C96A0
:103960008CAF9DAFAEAFBFAF2C972091D40B3091F1
:10397000D50B4091D60B5091D70B28962CAF3DAF6D
:103980004EAF5FAF28979C01AD0168AD79AD8AADB0
:103990009BAD0F94EC0D81110FC028962CAD3DAD61
:1039A0004EAD5FAD28976CAD7DAD8EAD9FAD0F94E4
:1039B000EC0D882309F423C111E032E02316310411
:1039C00009F010E020E030E0A901C501B4010F9436
:1039D000EC0D881F8827881F181759F080E090E0A9
:1039E000A0E8BFEB64968CAF9DAFAEAFBFAF64975E
:1039F0000AC020E030E040E85FE364962CAF3DAFC2
:103A00004EAF5FAF649728AD39AD4AAD5BAD2C9634
:103A10006CAD7DAD8EAD9FAD2C970F9486126096E8
:103A20006CAF7DAF8EAF9FAF60972CAD3DAD4EAD0F
:103A30005FAD28966CAD7DAD8EAD9FAD28970F9490
:103A400086126B017C0160962CAD3DAD4EAD5FAD35
:103A50006097CA01B9010F94520E2B013C01A701D6
:103A60009601C701B6010F94520E9B01AC01C30130
:103A7000B2010F9487120F94351524966CAF7DAF69
:103A80008EAF9FAF249720E030E040E05FE30F94DB
:103A9000520E2B013C01A5019401C501B4010F9404
:103AA000520E4B015C01A3019201C301B2010F94BC
:103AB000520E9B01AC01C501B4010F9486120F9404
:103AC000351564962CAD3DAD4EAD5FAD64970F944A
:103AD000520E4B015C01C701B601905824962CADE3
:103AE0003DAD4EAD5FAD24970F948113A5019401B8
:103AF0000F94520E6B017C012C962CAD3DAD4EAD5A
:103B00005FAD2C9768AD79AD8AAD9BAD0F948712F0
:103B100020E030E040E05FE30F94520E9B01AC01E7
:103B2000C701B6010F94871228AD39AD4AAD5BAD20
:103B30000F9486126B017C0128962CAD3DAD4EADE5
:103B40005FAD28976CAD7DAD8EAD9FAD0F948712A4
:103B500020E030E040E05FE30F94520E2B013C0187
:103B600024962CAD3DAD4EAD5FAD249760966CAD07
:103B70007DAD8EAD9FAD60970F948113A50194012B
:103B80000F94520E9B01AC01C301B2010F94871236
:103B90002CAD3DAD4EAD5FAD0F94861214C089E4DF
:103BA0000E94E9DE882329F00E946DDE6B017C0112
:103BB00003C0C12CD12C76018AE40E94E9DE88235F
:103BC00009F10E946DDE2C966CAF7DAF8EAF9FAF7A
:103BD0002C9720E030E0A901C701B6010F94EC0D4D
:103BE00081111FC020E030E0A9012C966CAD7DADA5
:103BF0008EAD9FAD2C970F94EC0D811112C0E5E8AE
:103C0000F7E10DC420E030E0A901C701B6010F942F
:103C1000EC0D8823A1F32C961CAE1DAE1EAE1FAE7C
:103C20002C97D701C601B05888AF99AFAAAFBBAFE8
:103C30002C962CAD3DAD4EAD5FAD2C9750582CAFB2
:103C40003DAF4EAF5FAF9C01AD01BC01CD010F9404
:103C5000520E4B015C012CAD3DAD4EAD5FADCA01C6
:103C6000B9010F94520E9B01AC01C501B4010F9430
:103C700087120F943515A0966CAF7DAF8EAF9FAFB6
:103C8000A0978091650790916607A0916707B09112
:103C9000680728968CAF9DAFAEAFBFAF2897A7013E
:103CA0009601BC01CD010F94871264966CAF7DAF75
:103CB0008EAF9FAF64972091690730916A0740915A
:103CC0006B0750916C0760962CAF3DAF4EAF5FAF66
:103CD00060972C962CAD3DAD4EAD5FAD2C976096A8
:103CE0006CAD7DAD8EAD9FAD60970F948712A4969D
:103CF0006CAF7DAF8EAF9FAFA4978091D00B9091AA
:103D0000D10BA091D20BB091D30B68968CAF9DAF25
:103D1000AEAFBFAF689764962CAD3DAD4EAD5FAD15
:103D20006497BC01CD010F9486126B017C01209138
:103D3000D40B3091D50B4091D60B5091D70B6C968C
:103D40002CAF3DAF4EAF5FAF6C97A4962CAD3DADA1
:103D50004EAD5FADA4976C966CAD7DAD8EAD9FAD55
:103D60006C970F9486124B015C0180916D079091C6
:103D70006E07A0916F07B0917007A8968CAF9DAFAA
:103D8000AEAFBFAFA8979C01AD016091D80B709109
:103D9000D90B8091DA0B9091DB0B0F94861224964D
:103DA0006CAF7DAF8EAF9FAF2497A701960168AD32
:103DB00079AD8AAD9BAD0F94520E2B013C01A5014C
:103DC00094016CAD7DAD8EAD9FAD0F94520E9B01F5
:103DD000AC01C301B2010F9487122B013C01A50174
:103DE000940168AD79AD8AAD9BAD0F94520E4B0135
:103DF0005C01A70196016CAD7DAD8EAD9FAD0F94BA
:103E0000520E9B01AC01C501B4010F948612A301AF
:103E100092010F9406136B017C0120E030E0A901B0
:103E20000F94EC0D87FF0AC02BED3FE049EC50E406
:103E3000C701B6010F9487126B017C0192E029162D
:103E4000310451F42BED3FE049EC50E4C701B601D9
:103E50000F9486126B017C0120E030E0A901C701BC
:103E6000B6010F94EC0D811128C068962CAD3DADC4
:103E70004EAD5FAD689728966CAD7DAD8EAD9FADB4
:103E800028970F94EC0D811118C06C962CAD3DADA8
:103E90004EAD5FAD6C9760966CAD7DAD8EAD9FAD58
:103EA00060970F94EC0D811108C00BEDC02E0FE050
:103EB000D02E09ECE02E00E4F02EA7019601A0968A
:103EC0006CAD7DAD8EAD9FADA0970F94520E4B01A2
:103ED0005C0120E030E0A90124966CAD7DAD8EAD93
:103EE0009FAD24970F94EC0D8823E9F0A501940170
:103EF000C501B4010F94520E4B015C0124962CAD08
:103F00003DAD4EAD5FAD2497CA01B9010F94520E7D
:103F10009B01AC01C501B4010F9487120F943515B4
:103F20004B015C010DC020E030E0A901C501B401E6
:103F30000F94E71487FF04C0B7FAB094B7F8B094B1
:103F40002FE632E143E85AE3C501B4010F94EC0DCA
:103F500087FF02C00C943032C501B4010F942914BC
:103F60000F94FA132E967FAF6EAF2E97DB01AB2B1B
:103F700031F4E1E0F0E02E96FFAFEEAF2E974090E7
:103F800071075090720760907307709074072E96B7
:103F90002EAD3FAD2E97B90180E090E00F94F10D6A
:103FA0004B015C019B01AC01C701B6010F94811369
:103FB00028966CAF7DAF8EAF9FAF2897A501940177
:103FC00024966CAD7DAD8EAD9FAD24970F9481137B
:103FD000A0966CAF7DAF8EAF9FAFA097A30192016B
:103FE0006091DC0B7091DD0B8091DE0B9091DF0B0B
:103FF0000F948612A50194010F948113AC966CAFB7
:104000007DAF8EAF9FAFAC9728962CAD3DAD4EAD3A
:104010005FAD2897CA01B9010F94520E20E030E03D
:1040200040E05FE30F94520E9B01AC0160E070E052
:1040300080E89FE30F94861268966CAF7DAF8EAFD9
:104040009FAF6897A8968CAD9DADAEADBFADA8975C
:1040500089879A87AB87BC874D865E866F86788A0C
:104060006091570270915802072E000C880B990B33
:104070000F94F30D209121023091220240912302EE
:10408000509124020F94520E2AE037ED43E25CE394
:104090000F94520E6CAB7DAB8EAB9FAB0E9404F8BD
:1040A0009B01AC0128533F4F4F4F5F4F6C962CAF95
:1040B0003DAF4EAF5FAF6C9748AC59AC6AAC7BACD0
:1040C00022242394312C39E121963FAF21972E965B
:1040D0004EAD5FAD2E974215530509F44CC10E94B9
:1040E00094930E9404F8DC01CB016C962CAD3DAD9D
:1040F0004EAD5FAD6C97821B930BA40BB50BB7FD58
:1041000010C00E9404F89B01AC0128533F4F4F4F51
:104110005F4F6C962CAF3DAF4EAF5FAF6C970E9478
:10412000BEBB21963FAD2197315021963FAF2197DD
:10413000332309F445C02CAD3DAD4EAD5FAD68965F
:104140006CAD7DAD8EAD9FAD68970F94520E6B0137
:104150007C019201A30128966CAD7DAD8EAD9FAD23
:1041600028970F94520EA70196010F9487127B0196
:104170008C019201A30168966CAD7DAD8EAD9FADB3
:1041800068970F94520E4B015C012CAD3DAD4EADC6
:104190005FAD28966CAD7DAD8EAD9FAD28970F9429
:1041A000520E9B01AC01C501B4010F9486122B0184
:1041B0003C01C701D8018CAF9DAFAEAFBFAF55C0BA
:1041C000B10180E090E00F94F10D28962CAD3DAD4B
:1041D0004EAD5FAD28970F94520E4B015C010F94CA
:1041E0007C136B017C01C501B4010F9427154B01B1
:1041F0005C01A701960168AD79AD8AAD9BAD0F94C6
:10420000520E2B013C012C962CAD3DAD4EAD5FAD59
:104210002C97C501B4010F94520EA30192010F9483
:1042200087122B013C01A501940168AD79AD8AADDF
:104230009BAD0F94520E4B015C012C962CAD3DAD05
:104240004EAD5FAD2C97C701B6010F94520E9B0186
:10425000AC01C501B4010F9486126CAF7DAF8EAF77
:104260009FAF49E121964FAF21979201A301649638
:104270006CAD7DAD8EAD9FAD64970F948712698351
:104280007A838B839C832CAD3DAD4EAD5FADA49600
:104290006CAD7DAD8EAD9FADA4970F9487126D83ED
:1042A0007E838F839887A0962CAD3DAD4EAD5FADDC
:1042B000A09769857A858B859C850F94871269877D
:1042C0007A878B879C87AC962CAD3DAD4EAD5FADAC
:1042D000AC976D857E858F8598890F9487126D8741
:1042E0007E878F87988B80914402882321F0CE01AE
:1042F00001960E94CBB8E090C10A1CA61DA61EA67E
:104300001FA689819A81AB81BC8188A399A3AAA3A6
:10431000BBA38D819E81AF81B8858CA39DA3AEA3E5
:10432000BFA389859A85AB85BC8588A799A7AAA7CD
:10433000BBA7AE01485D5F4FBE016C5D7F4FCE01F4
:1043400080960E94F056CE018C966C018E010C5C1A
:104350001F4F9E01235F3F4FAE01485D5F4FBE017F
:104360006C5D7F4F0C970E946948882321F09FEF76
:10437000291A390AACCEE090C10A18AA19AA1AAAB9
:104380001BAA8091D00B9091D10BA091D20BB09130
:10439000D30B88A399A3AAA3BBA38091D40B90911C
:1043A000D50BA091D60BB091D70B8CA39DA3AEA338
:1043B000BFA38091D80B9091D90BA091DA0BB0914B
:1043C000DB0B88A799A7AAA7BBA7AE01485D5F4FE3
:1043D000BE016C5D7F4FCE0180960E94F056DE01DB
:1043E000D0966D018E010C5C1F4F2CED3BE0AE01B1
:1043F000485D5F4FBE016C5D7F4FCE0180960E948D
:10440000694880E1E0EDFBE0A5E6B7E001900D92A0
:104410008A95E1F70C9430320E9406DFF80184910E
:104420008F010F5F1F4F8111F7CFE9EDF3E084910A
:104430008F010F5F1F4F882311F40C9430320E94BC
:1044400006DFF801F4CF80E50E94E9DE882329F039
:104450000E9429DE6B017C0103C0C12CD12C7601A6
:1044600083E50E94E9DE882361F00E946DDE20E092
:1044700030E04AE754E40F94520E0F94FA136B01A4
:104480007C010E943E5680911404811105C060E0B9
:104490008FEE93E00E94548A0E9404F8C60ED71E45
:1044A000E81EF91E0E9404F8DC01CB018C199D095D
:1044B000AE09BF09B7FD02C00C9430320E94BEBBEA
:1044C000F1CF809154078770873011F00C943A3205
:1044D0008FE40E94E9DE882319F00E945DDE03C0AC
:1044E0008FE40E94A0DE81110C9430320C943A3299
:1044F0000E943D430C943032C0906507D09066070F
:10450000E0906707F090680788E50E94E9DE811176
:1045100008C020E030E0A901C701B6010F9487125E
:1045200002C00E946DDE68A379A38AA39BA3C090FA
:104530006907D0906A07E0906B07F0906C0789E5F7
:104540000E94E9DE811109C020E030E040E052E441
:10455000C701B6010F94871202C00E946DDE9B0155
:10456000AC0169837A838B839C8368A179A18AA13A
:104570009BA10E94BDBA882311F40C94303280E0D4
:104580000E94C43F0E94224185E40E94E9DE882304
:1045900021F00E945DDE182F04C085E40E94A0DE99
:1045A00011E086E50E94E9DE882321F00E9439DED1
:1045B000262F01C021E0412FBE016F5F7F4FCE014A
:1045C00080960E94B3766B017C019B01AC010F9435
:1045D000791581115FC088A099A0AAA0BBA020E096
:1045E00030E0A901C501B4010F94EC0D87FF05C0AF
:1045F00027E137EB41E558EB04C027E137EB41E514
:1046000058E3C501B4010F948712AB01BC018FE1DF
:1046100094E00E94AAEB89809A80AB80BC8020E065
:1046200030E0A901C501B4010F94EC0D87FF05C06E
:1046300027E137EB41E558EB04C027E137EB41E5D3
:1046400058E3C501B4010F948712AB01BC018AE1A4
:1046500094E00E94AAEB20E030E0A901C701B60176
:104660000F94EC0D87FF05C027E137EB41E558EBD0
:1046700004C027E137EB41E558E3C701B6010F94C9
:104680008712AB01BC0185E194E00E94AAEB8AE0AD
:104690000E9406DF0E940941113011F40E9453422A
:1046A0000E94F16E0C94303280913402882311F410
:1046B0000C94303289E40E94E9DEE82E882321F050
:1046C0000E9439DEF62E01C0F12C8AE40E94E9DE58
:1046D000182F882321F00E9439DE062F01C000E048
:1046E000EE2019F0F2E0FF1520F0112381F00330E5
:1046F00070F0E7E2F4E084918F010F5F1F4F882391
:1047000011F40C9430320E9406DFF801F4CF0E94BD
:10471000FCDEEE20F1F020914E0B30914F0B4F2D2F
:104720004203B001439F700D112480914B0E909174
:104730004C0E680F791F072E000C880B990B0F94F5
:10474000F30D6093D00B7093D10B8093D20B9093A9
:10475000D30B1123E9F02091500B3091510B020340
:10476000B001039F700D112480914D0E90914E0E5B
:10477000680F791F072E000C880B990B0F94F30D0F
:104780006093D40B7093D50B8093D60B9093D70B7B
:1047900080E50E94E9DE8823E9F00E945DDE88233F
:1047A000E9F01123D9F020E030E040E052E46091DC
:1047B000D40B7091D50B8091D60B9091D70B0F94A1
:1047C00086126093D40B7093D50B8093D60B909385
:1047D000D70B04C080E50E94A0DEE1CF86E40E94F2
:1047E000E9DE8823D9F00E946DDE6B017C0120E0B8
:1047F00030E0A9010F94E714181684F420E030E0AB
:1048000040E752E4C701B6010F948113609321027F
:104810007093220280932302909324020E940FBF80
:104820000C94303210938A030C943032E9E62E2E29
:10483000E2E03E2EF4ECEF2EFBE0FF2E85E697E063
:1048400099AF88AFA5E5CA2EA7E0DA2E00E010E008
:10485000D1018D911D010E94E9DE882309F44BC02E
:104860000E946DDE2B013C01133049F0F6012081DE
:104870003181428153810F9486122B013C01A8ADF6
:10488000B9AD2D913D914D915C91C301B2010F9451
:1048900086124B015C012DEB37E346E855EB0F9494
:1048A000E71487FD0AC02DEB37E346E855E3C50161
:1048B000B4010F94EC0D1816F4F4133051F4409237
:1048C000710750927207609273077092740701E04B
:1048D00012C0A5019401F7016081718182819381E9
:1048E0000F948712D7016D937D938D939C931397AB
:1048F000812F0E9425DD1F5FB4E0EB0EF11CE8ADB7
:10490000F9AD3496F9AFE8AFF4E0CF0ED11C143016
:1049100009F09ECF002309F44EC020E030E0A90149
:10492000609171077091720780917307909174077D
:104930000F9487122091320C3091330C4091340C3B
:104940005091350C0F94520E0F94F4146093900410
:1049500070939104809392049093930490916E04C9
:1049600080916F04981719F00E94E05524C00E94AE
:104970003E5680916F00982F927081FF05C0809104
:104980006F008D7F80936F0040919004509191044F
:10499000609192047091930440936E1550936F153B
:1049A0006093701570937115992329F080916F00B1
:1049B000826080936F000E94F16E0C9430320E94EE
:1049C000AE790C9430328091A2149091A314833765
:1049D000910509F4E4C10CF0D6C08934910509F4BD
:1049E000C8C40CF04FC08931910509F4D2C21CF53E
:1049F0008431910509F4D6C17CF48131910509F423
:104A00004BC22CF4029708F4D0C10C94DF314297CA
:104A100009F41DC60C94DF318631910509F492C268
:104A20000CF48CC28731910509F492C2489709F4BD
:104A3000A5C20C94DF318E31910509F460C384F472
:104A40008B31910509F4B9C20CF4A9C28C319105DE
:104A500009F44BC34D9711F40C9430320C94DF31B0
:104A60008032910509F44FC30CF499C38A32910541
:104A700009F44BC4C09711F00C94DF310E9466B367
:104A80000C9430328836910509F488C40CF04AC081
:104A90008235910509F4D4C564F58C34910509F487
:104AA00075C44CF48B34910511F00C94DF310E94E5
:104AB000BEFE0C9430328D34910509F46BC48135FF
:104AC000910511F00C94DF310E9489900E947B5671
:104AD00010926E1410926D1468EE73E080E090E016
:104AE0000E94648960E08FE295E00E94548A0C94F1
:104AF00030328435910509F4AAC50CF4A4C5853576
:104B0000910509F4A7C58C35910511F00C94DF319E
:104B100049E6C42E42E0D42E56E2E52E5CE0F52EA6
:104B200010E0B1C58D36910509F441C59CF48A3673
:104B3000910509F459C50CF4FAC48B36910509F4B2
:104B40006FC58C36910511F00C94DF311092500234
:104B50000C9430328037910509F4B5C454F48E3684
:104B6000910509F44AC48F36910509F459C40C948F
:104B7000DF318137910509F4AEC48237910509F41C
:104B800001C60C94DF318D3221E0920711F40C94B0
:104B90009F2F0CF081C0883C910509F466C7C4F5CD
:104BA0008937910509F4E4C6DCF48637910509F4E8
:104BB00090C634F48537910509F47CC60C94DF3136
:104BC0008737910509F4D1C68837910511F00C9407
:104BD000DF3181E080933E0C80933D0C0C943032A9
:104BE0008139910509F4C9C634F48C38910509F46A
:104BF000E1C40C94DF318B39910509F4B3C48E3BC9
:104C0000910511F00C94DF310E949AAF0C94303270
:104C10008E3C910511F40C94AC2E04F58B3C91055F
:104C200009F48BC784F4893C910511F00C94DF31B1
:104C3000B9E6EB2EB2E0FB2E0AEF1BE08AE0C82EAD
:104C40008CE0D82E62C78C3C910509F491C78D3C4D
:104C5000910511F40C942D2E0C94DF318D3D9105AE
:104C600011F40C94DE2E64F4833D910511F40C9440
:104C7000CE2E8C3D910511F40C94D12E0C94DF3185
:104C8000823E910511F40C944D2F8C32914011F419
:104C90000C94762F0C94DF31853A51E0950711F48E
:104CA0000C949D30B4F58039B1E09B0711F40C945D
:104CB0008C30C4F48F32F1E09F0711F40C94F62F7E
:104CC00014F40C94A22F803331E0930711F40C9468
:104CD000F92F8336914011F00C94DF31E5E8F7E1CC
:104CE0000C947930823951E0950711F40C94953089
:104CF00014F40C948F308A39B1E09B0709F4E7C3B0
:104D0000843A914011F00C94DF310E94C1700C94F0
:104D10003032873FF1E09F0711F40C943631FCF4F8
:104D2000843F31E0930711F40C9430314CF48C3A09
:104D3000914011F00C94DF310E94BB6F0C94303223
:104D4000853FA1E09A0711F40C943331863F9140DE
:104D500011F00C94DF310E9421E30C9430328B3837
:104D6000E3E09E0711F40C9430326CF4883F21E0AC
:104D7000920711F40C9441318335934011F40C9453
:104D800065310C94DF31803A43E0940709F4FAC1AD
:104D9000873E934011F40C94CA310C94DF31E4E265
:104DA000F6E02DC5E1E7F4E08BC0A090A014B09030
:104DB000A11480E50E94E9DE882359F00E9429DED3
:104DC0006B017C0111E0672B682B692B31F410E03B
:104DD00004C010E0C12CD12C760183E50E94E9DEED
:104DE000882311F40C9424330E946DDE20E030E01F
:104DF0004AE754E40F94520E0F94FA136B017C01AE
:104E000011110BC0672B682B692B39F4A114B10465
:104E100021F0D5018C91811102C010E001C011E098
:104E20000E943E56112329F061E0C5010E948E8A3E
:104E300005C060E086E494E00E94548A83E0809399
:104E4000B60B81E08093D20AC114D104E104F104CD
:104E5000B1F00E9404F8C60ED71EE81EF91E0E948B
:104E600004F8DC01CB018C199D09AE09BF09B7FF1D
:104E70000DC08091D20A81110C94293307C0809112
:104E8000D20A882319F00E94BEBBF9CF0E94DBEF43
:104E90001092D20A0C94303260E089E594E00E94CE
:104EA000548A80910B0182708093090189988091C6
:104EB0000801817080930601A29812980C943032F8
:104EC00084918F010F5F1F4F882321F00E9406DF1E
:104ED000F801F6CF1092310784EE94E00E9460D77B
:104EE0008BE1E4EEF4E0DE01159601900D928A95D7
:104EF000E1F78091E2049091E3049C838B8383E843
:104F000092E09A83898340E050E0BE016F5F7F4F5B
:104F100080E090E00E946363CE0101960E9436BB60
:104F2000E2E6F4E084918F010F5F1F4F882311F4B4
:104F30000C9430320E9406DFF801F4CF0E9478749E
:104F40000C9430321092B4041092B5040C943032A8
:104F5000E091A014F091A1148081882329F080327F
:104F600009F410823196F8CF40E061E08091A014FE
:104F70009091A1140E9428660C9430328091B5045F
:104F8000882319F081E08093B4040E94BEFE0C9443
:104F900030321092B4040E94E2FE0C9430328091C0
:104FA000B504882311F40C94303283E50E94E9DEC5
:104FB00081110C942D330C94303283E40E94A0DED6
:104FC000882309F450C0EFEAF4E084918F010F5F69
:104FD0001F4F882321F00E9406DFF801F6CF809151
:104FE0007F06811103C0E2E8F4E012C0BE016F5FEA
:104FF0007F4F8CE796E00E9427D68E010F5F1F4FF0
:10500000F80181918F01882349F10E9406DFF8CFD2
:1050100084918F010F5F1F4F882301F10E9406DFEB
:10502000F801F6CF67E0C62E65E0D62EE12CF12C14
:1050300020E08091DE0390E00E2C02C095958795CC
:105040000A94E2F780FD1CC23FEFE31AF30A42E044
:10505000C40ED11C55E0E516F10459F78AE00E9410
:1050600006DF0C9430328091B504882339F08091AA
:10507000B404882319F0ECE8F4E003C0EEE9F4E0AE
:1050800028C084918F010F5F1F4F882321F00E9459
:1050900006DFF801F6CF60912D0770912E07809101
:1050A0002F07909130074AE00E94B7E18FE20E94FB
:1050B00006DF6091290770912A0780912B07909154
:1050C0002C074AE00E94B7E18AE00E9406DF0C94B8
:1050D000303284918F010F5F1F4F882311F40C949D
:1050E00030320E9406DFF801F4CF40E060E08091AA
:1050F000A0149091A1140E9428660C9430320E9452
:10510000BB470C9430328091B40481110E943E560A
:105110008091B504882311F40C94303280E50E940C
:10512000E9DE882319F00E945DDE03C080E50E945D
:10513000A0DE182F482F61E08091A0149091A11457
:105140000E94286683E50E94E9DE882381F00E94A0
:1051500039DEAB01BC0140932D0750932E076093BD
:105160002F07709330078CE796E00E9418D5809146
:10517000B504882319F081E08093B40411110C94D4
:10518000303203CF8091A0149091A11421E020939C
:10519000B30440E060E00E9428660C9430320E9424
:1051A000DF967B018C0120E831E541E050E00F946F
:1051B000F311C9016DE671E00F9456124B015C01C9
:1051C000C801B70120E13EE040E050E00F94F31148
:1051D000CA01B90128E130E040E050E00F94F3113A
:1051E000762E672EC62ED72E7CE3272E312C412C0F
:1051F000512CC801B701A20191010F94F311F62EB1
:10520000E72ECA01B901A20191010F94F311CB015C
:105210008E010F5F1F4F8114910499F0EF92FF925E
:105220007F936F936F927F92BF92AF929F928F9274
:1052300086EE94E09F938F931F930F930F94840DAA
:1052400013C0A114B104B1F0EF92FF927F936F935A
:105250006F927F92BF92AF9286ED94E09F938F936F
:105260001F930F930F94840D0FB6F894DEBF0FBEFB
:10527000CDBF30C0CD2879F0EF92FF927F936F932E
:105280006F927F928AEC94E09F938F931F930F937A
:105290000F94840DE9CF892B69F0EF92FF927F93F1
:1052A0006F9382EC94E09F938F931F930F930F94CF
:1052B000840DDACFEF92FF928EEB94E09F938F9361
:1052C0001F930F930F94840D0F900F900F900F90DA
:1052D0000F900F9060E0C8010E948E8AE4EBF7E126
:1052E00084917F01BFEFEB1AFB0A882321F00E9413
:1052F00006DFF701F5CFB8018AEF94E00E94E0EBFA
:105300008AE00E9406DF0C94303283E50E94E9DED9
:10531000882311F40C9430320E9449DEE82E80E597
:105320000E94E9DE882339F00E9449DE182F87FFAA
:1053300003C00C9430321DE089E40E94E9DE88232A
:1053400041F00E945DDE81110C947433EBE7F7E0CD
:105350000BC089E40E94A0DEF6CF319627E0EC3A3C
:10536000F20711F40C94743384911813F6CF0C9453
:1053700049338091B40481110C94303280E50E944D
:10538000A0DE81110C943E330C9430320E94E2FE78
:105390000C9430320E94F7FE0C94303288E690E094
:1053A0000E9424E281110C9430328091DE0383FF4D
:1053B00002C00C94303283E50E94E9DE8823C9F0F4
:1053C0000E946DDE0F94F31370936C1460936B1452
:1053D00080E00E943D900E946DDE20E030E04AEACD
:1053E00052E40F94EC0D181624F00E94F7FE0E9470
:1053F000DBEF0E94FEEC0C9430328EE40E94E9DE7A
:10540000882311F40C9430320E9439DE60938409B1
:105410007093850980938609909387090C943032A4
:1054200083E50E94A0DE882359F083E50E94E9DE2F
:10543000882319F00E9449DE01C080E08093DE03DA
:10544000E4EBF7E184918F010F5F1F4F811103C0DF
:10545000E5E1F5E004C00E9406DFF801F3CF849196
:105460008F010F5F1F4F882321F00E9406DFF80194
:10547000F6CF8091DE038111D5CDE1E1F5E018C0D2
:10548000BB24B394B20E222319F08CE20E9406DFF3
:10549000F60185919491FC0184918F010F5F1F4F5C
:1054A000882321F00E9406DFF801F6CF2B2DCCCD0A
:1054B00084918F010F5F1F4F882309F4CFCD0E9485
:1054C00006DFF801F5CF8CE195E00E945DBB0E94FC
:1054D000E2670C94303283E50E94E9DE811103C05B
:1054E000E4EBF7E10DC00E9449DE8D3320F4809398
:1054F00045020C9430328CE3809345020C94303298
:1055000084918F010F5F1F4F882321F00E9406DFD7
:10551000F801F6CF4091450250E060E070E085E28E
:1055200095E00E948DEB8AE00E9406DF99C789E62C
:1055300090E00E9424E2811111C0ECE2F5E0849138
:105540008F010F5F1F4F882321F00E9406DFF801B3
:10555000F6CF0E94348F8AE00E9406DF1092B60BCD
:105560000C94893383E50E94E9DE882309F478C727
:105570000E9449DE182F8D3308F01CE31093C30BF3
:105580000E9404F86B017C01212F30E0A8EEB3E00B
:105590000F944712C60ED71EE81EF91EC092BF0B0D
:1055A000D092C00BE092C10BF092C20B59C70E947F
:1055B00073B156C78091DE0383FD52C783E50E9415
:1055C000E9DE882309F44CC70E946DDE0F94F313C3
:1055D0006639710514F066E970E070936A1460939F
:1055E00069140E94F18F3CC780E50E94E9DE8111B9
:1055F00006C083E50E94E9DE882359F005C00E94B9
:1056000049DE81112DC7F5CF0E9439DE6F3F71054C
:1056100010F06FEF70E070936E1460936D1420C7FC
:1056200080E50E94E9DE811105C010926E1410928F
:105630006D1416C70E9439DE672B09F011C7F5CF2C
:10564000109289030DC781E08093890309C70E94E6
:10565000877206C783E50E94A0DE882309F400C78D
:105660000E946DDE20E030E04AE754E40F94520ED1
:105670000F94FA136093BB0B7093BC0B8093BD0B1C
:105680009093BE0BEDC6D6018D916D010E94A0DEF8
:10569000882309F46DC0133009F063C00E946DDEE9
:1056A0004B015C0120E030E040EA51E40F94EC0D46
:1056B00087FF4EC0A50194016091320C7091330CAC
:1056C0008091340C9091350C0F9481132B013C0187
:1056D0009B01AC016091220C7091230C8091240CF1
:1056E0009091250C0F94520E6093220C7093230C12
:1056F0008093240C9093250CA30192016091B50A2C
:105700007091B60A8091B70A9091B80A0F94520E20
:105710006093B50A7093B60A8093B70A9093B80A5B
:105720006091650E7091660E8091670E9091680E83
:105730000F94F10DA30192010F94520E0F94FA13DE
:105740006093650E7093660E8093670E9093680E5B
:105750008092320C9092330CA092340CB092350CA3
:1057600007C00E946DDEF70160837183828393839B
:105770001F5FF4E0EF0EF11C143009F084CF0E949B
:1057800063EE6EC60E943E5683E50E94E9DE8823E2
:1057900009F411C90E9439DE6230710509F00BC9A4
:1057A0000E94EFC28BE50E9406DF6091470770916F
:1057B00048078091490790914A0742E00E9482E29F
:1057C00040914B0750914C0760914D0770914E07E7
:1057D00082E495E00E94AAEB40914F075091500758
:1057E00060915107709152078FE395E00E94AAEBF8
:1057F0008DE50E9406DF8AE00E9406DF31C68491B3
:105800008F010F5F1F4F882321F00E9406DFF801F0
:10581000F6CF60E084E196E00E94BA6E61E08DE030
:1058200096E00E94BA6E61E082E096E00E94BA6E55
:1058300061E082EF95E00E94BA6E60E089EE95E04B
:105840000E94BA6E61E08FED95E00E94BA6E61E051
:1058500085ED95E00E94BA6E61E08DEC95E00E94C6
:10586000BA6E61E08FEB95E00E94BA6E61E081EB69
:1058700095E00E94BA6E60E082EA95E00E94BA6EFE
:1058800060E084E995E00E94BA6E60E08EE795E002
:105890000E94BA6E60E08DE695E00E94BA6E60E00C
:1058A00088E595E00E94BA6E61E085E495E00E948B
:1058B000BA6ED6C58091A0149091A114DC012C91F0
:1058C000222321F060E00E948E8ACAC50E94DBEF8D
:1058D000C7C50091A0141091A11483E0D12C40E021
:1058E0008150E1F0F8019081292F2B7F2134C1F7FD
:1058F00021812133A9F7913421F0953421F441E03D
:1059000002C0DD24D39498012E5F3F4F89012F5FA1
:105910003F4FD8019C919032C9F3E2CF442369F004
:10592000E4EBF7E184917F01BFEFEB1AFB0A8823D8
:1059300021F00E9406DFF701F5CFDD2069F0E5E0F8
:10594000F7E084917F012FEFE21AF20A882321F019
:105950000E9406DFF701F5CFD8018D918D018823D4
:1059600009F47CCB0E9406DFF7CF0E94B05B78C5BC
:1059700010923E0C10923D0C73C583E50E94E9DE47
:10598000882319F00E9439DE02C060E070E08B01CC
:10599000112702301105D4F0E5E8F7E184918F0179
:1059A0000F5F1F4F811103C0E9E0F7E004C00E94C0
:1059B00006DFF801F3CF84918F010F5F1F4F88231B
:1059C00009F44EC50E9406DFF801F5CF88E40E9475
:1059D000E9DE8823A9F00E9439DE6A3A71053CF0BD
:1059E0006E31B1E07B072CF06DE171E002C06AEA34
:1059F00070E0F801EE0FFF1FE756F54F71836083EB
:105A000086E40E94E9DE8823A9F00E9439DEF801CD
:105A1000EE0FFF1FE356F54F718360836F3F7105F3
:105A200019F014F06FEF70E077FF02C060E070E0F3
:105A30007183608382E40E94E9DE882309F410C543
:105A40000E9439DE6530710534F0683871052CF03C
:105A500067E870E002C065E070E0000F111FF80118
:105A6000EB56F54F71836083FBC488EC90E00E9495
:105A700024E28111F5C484E40E94A0DE882309F4A5
:105A800041C00E946DDE6B017C0111E020E030E03E
:105A9000A9010F94EC0D811101C010E01093B50B1A
:105AA00020E030E0A901C701B6010F94EC0D882376
:105AB00049F10E946DDEE091080B24E0E29FF001C5
:105AC0001124EF54F44F608371838283938320E029
:105AD00030E0A9016091B10B7091B20B8091B30BD2
