:100000000C946E1A0C949F1A0C949F1A0C949F1ABD
:100010000C949F1A0C949F1A0C949F1A0C949F1A7C
:100020000C949F1A0C949F1A0C949F1A0C949F1A6C
:100030000C949F1A0C949F1A0C949F1A0C949F1A5C
:100040000C949F1A0C94428B0C949F1A0C949F1A38
:100050000C949F1A0C949F1A0C945E7B0C9419E8D4
:100060000C949F1A0C9479D80C949F1A0C949F1A94
:100070000C949F1A0C949F1A0C949F1A0C949F1A1C
:100080000C949F1A0C949F1A0C949F1A0C949F1A0C
:100090000C949F1A0C949F1A0C949F1A0C949F1AFC
:1000A0000C949F1A0C949F1A0C949F1A0C949F1AEC
:1000B0000C949F1A0C949F1A0C949F1A0C949F1ADC
:1000C0000C949F1A0C949F1A0C949F1A0C949F1ACC
:1000D0000C949F1A0C949F1A0C949F1A0C949F1ABC
:1000E0000C949F1A03E406E4F5E3F9E3FFE33DE42F
:1000F0000AE40EE414E418E41CE422E426E42AE40E
:100100003DE430E434E438E433E738E73DE747E7FB
:1001100051E7CAE75BE763E76BE775E77FE789E7E6
:1001200098E7A2E7CAE7ACE7B6E7C0E7CDEF56EE3F
:100130008FEE09F08FEE8FEE8FEE8FEE8FEE8FEE5B
:100140008FEE8FEE8FEE8FEE8FEE8FEE8FEE8FEEC7
:100150008FEE8FEE8FEE8FEE8FEE8FEE8FEE8FEEB7
:100160008FEE8FEE8FEE8FEE03F08FEE8FEE8FEE31
:100170008FEE8FEE8FEE8FEE8FEEDCEF8FEE8FEE49
:100180008FEE8FEE8FEE8FEE8FEE8FEE8FEE8FEE87
:1001900020F08CEE084AD73B3BCE016E84BCBFFDFD
:1001A000C12F3D6C74319ABD56833DDA3D00C77F47
:1001B00011BED9E4BB4C3E916BAAAABE00000080E0
:1001C0003F05A84CCDB2D44EB93836A9020C50B96F
:1001D000918688083CA6AAAA2ABE000000803F009B
:1001E0000C94B6E70C94F9E30C9498E70C9479A07E
:1001F0000C94CA660C943DE40C94BEDF0C9475E735
:100200000C94E3660C9453D20C9414E40C94DFDE4B
:100210000C94C1DF0C94C1850C940AE40C9422E484
:100220000C94F06B0C9446CA0C944D870C94C0E768
:100230000C94FFE30C94A09C0C942A9E0C9435958E
:100240000C94F2ED0C947F690C9470F00C9405E022
:100250000C941CE40C943BD20C9456850C94488767
:100260000C9451E70C9438E40C94B3660C948CEE27
:100270000C9406940C940DA30C9485850C9434E492
:100280000C9447E70C94EEC90C9423C70C9403E438
:100290000C9433E70C94CDEF0C947F850C94578726
:1002A0000C940EE40C9482690C9454FC0C948279A6
:1002B0000C94F5E30C949DC20C943DE70C94659D61
:1002C0000C9430E40C94DCEF0C94B2A10C9456EE38
:1002D0000C945BE70C94ACE70C9409F00C947FFA57
:1002E0000C945B850C9418E40C946BE70C94EF9ED3
:1002F0000C94E5660C9497E10C947FE70C94E1660E
:100300000C9406E40C94E0ED0C9403F00C94B49F70
:100310000C943DC80C948FEE0C94CAE70C9448CA18
:100320000C94A7C50C9426E40C9420F00C945287EE
:100330000C94D3820C9460850C9451850C9463E7E3
:100340000C943A830C94A4890C94FC6F0C943AA1FD
:100350000C94A2E70C942AE40C94D89B0C9438E7F4
:100360000C9485690C9479850C9418CA0C9402DF5E
:100370000C943CD20C9489E74E414E494E49545955
:10038000494E46CDCCCC3D0AD7233C17B7D1387760
:10039000CC2B329595E6241FB14F0A000020410076
:1003A00000C84200401C4620BCBE4CCA1B0E5AAEC0
:1003B000C59D74434F4D4D554E49434154494F4E91
:1003C0000044525952554E004552524F5253004923
:1003D0004E464F004543484F0047322F4733206277
:1003E000616420706172616D65746572730A005397
:1003F0006C6565702E2E2E00486F6D652058592053
:1004000066697273740A00486F6D652058592066DA
:100410006972737400205A3A200020593A20004231
:10042000656420583A20004D65736820706F696ECE
:10043000742063616E6E6F74206265207265736FE5
:100440006C7665640A00436C69636B20746F20727C
:100450006573756D652E2E2E004E6F206D6F76655F
:100460002E00456E642066696C65206C6973740AA1
:1004700000426567696E2066696C65206C697374FB
:100480000A00286E6F2066696C652900534420704D
:1004900072696E74696E67206279746520004E6FB0
:1004A00074205344207072696E74696E670A004349
:1004B000757272656E742066696C653A20002569F4
:1004C000730025696D2025697300256968202569F9
:1004D0006D202569730025696420256968202569D8
:1004E0006D202569730025697920256964202569B7
:1004F000682025696D20256973005072696E74202B
:1005000074696D653A2000D403CF03C803C103B3F7
:10051000036F66660044454255473A004B494C4CD0
:1005200045442E20004D3131332053006F6B004283
:100530006967426F782050726F204F66662E002CDC
:1005400020002C2000544845524D414C5F50524FE2
:1005500054454354494F4E004155544F5245504F16
:1005600052545F53445F53544154555300454D45D5
:100570005247454E43595F50415253455200434103
:1005800053455F4C494748545F4252494748544E8F
:1005900045535300544F47474C455F4C49474854D7
:1005A0005300534F4654574152455F504F574552A1
:1005B000004255494C445F50455243454E54004C0F
:1005C0004556454C494E475F44415441005A5F509F
:1005D000524F4245004155544F4C4556454C0050F2
:1005E00052494E545F4A4F420050524F4752455372
:1005F00053004155544F5245504F52545F54454D4E
:100600005000564F4C554D455452494300454550B6
:10061000524F4D0053455249414C5F584F4E5F5821
:100620004F4646004649524D574152455F4E414D57
:10063000453A4D61726C696E20312E312E392D6232
:10064000627020286D65746A6161636B2F6D6172E1
:100650006C696E2D626967626F7870726F292053C2
:100660004F555243455F434F44455F55524C3A689E
:10067000747470733A2F2F6769746875622E636F94
:100680006D2F6D6574616A61636B2F6D61726C694A
:100690006E2D626967626F7870726F2050524F548E
:1006A0004F434F4C5F56455253494F4E3A312E30CF
:1006B000204D414348494E455F545950453A42699F
:1006C00067426F782050726F204558545255444508
:1006D000525F434F554E543A3120555549443A6381
:1006E000656465326132662D343161322D343734C0
:1006F000382D396231322D63353563363266333603
:100700003766660A002F2F20004D31343520533CC8
:10071000696E6465783E206F7574206F6620726123
:100720006E67652028302D31290A002054002052A0
:1007300000416363656C65726174696F6E3A205045
:10074000005741524E494E4721204C6F77205A2086
:100750004A65726B206D6179206C65616420746FED
:1007600020756E77616E7465642070617573657352
:100770002E0A0020466C6F773A20000001111030DD
:1007800025FFFFFFFF362F3723FFFFFFFF39383EDE
:1007900021FFFFFFFFFFFF2D090708FFFF171618B6
:1007A000FFFFFF09410208401D1C27FF43290A00E3
:1007B00061626C656420286D696E2074656D7020BF
:1007C00000436F6C64206578747275646573206192
:1007D0007265200020643A0020693A0020703A00D7
:1007E0004E6F2063617365206C696768740A004D01
:1007F00065736820706F696E742063616E6E6F74CC
:10080000206265207265736F6C7665640A004D34F2
:10081000323120696E636F72726563742070617229
:10082000616D657465722075736167650A00454581
:1008300050524F4D204F4B0A003F5A206F75742085
:100840006F662072616E676520282D323020746FCC
:10085000203230290A003A200050726F6265205A17
:10086000204F666673657400416374697665204540
:10087000787472756465723A2000496E76616C69AD
:10088000642065787472756465720A0042696C69E7
:100890006E656172204C6576656C696E6720477283
:1008A00069643A0A00486F6D696E67206661696C19
:1008B000656400202844525952554E290047323968
:1008C000204175746F20426564204C6576656C69C3
:1008D0006E67003F20284C2C522C462C4229206F5A
:1008E0007574206F6620626F756E64732E0A003F08
:1008F0002856296572626F7365206C6576656C2079
:10090000697320696D706C61757369626C6520280C
:10091000302D34292E0A00426164205A2076616C01
:1009200075650A004E6F2062696C696E65617220A0
:10093000677269640A0046696C652064656C657459
:1009400065643A0044656C6574696F6E2066616920
:100950006C65642C2046696C653A20004531205452
:100960004845524D414C2052554E41574159004245
:10097000454420544845524D414C2052554E415714
:10098000415900546865726D616C2052756E6177D3
:1009900061790057726974696E6720746F206669A7
:1009A0006C653A20006F70656E206661696C6564E5
:1009B0002C2046696C653A20006F70656E20666178
:1009C000696C65642C2046696C653A200046696C48
:1009D000652073656C65637465640A002053697AE9
:1009E000653A200046696C65206F70656E65643AF3
:1009F00020002066696C653A2000646F696E6700AC
:100A00006672657368004E6F772000454E44205330
:100A10005542524F5554494E450A002220706F737B
:100A2000002220706172656E743A22005355425262
:100A30004F5554494E452043414C4C2074617267D8
:100A400065743A22004B494C4C45442E2000747288
:100A500079696E6720746F2063616C6C20737562B6
:100A60002D67636F64652066696C657320776974B0
:100A70006820746F6F206D616E79206C6576656C8F
:100A8000732E204D4158206C6576656C2069733A51
:100A9000004572726F723A006F70656E2066616910
:100AA0006C65642C2046696C653A200043616E6E6B
:100AB0006F74206F70656E207375626469722000B8
:100AC0006563686F3A0020746F6F206C6F6E6720EB
:100AD000657874727573696F6E2070726576656E75
:100AE0007465640A0020636F6C64206578747275A5
:100AF00073696F6E2070726576656E7465640A0046
:100B0000205A3A0020593A0020436F756E742058DD
:100B10003A0020453A00205A3A0020593A00583A03
:100B2000003A004361703A00205A002059005800F2
:100B300020204D61783A2000205A002059005800AA
:100B400020204D696E3A20004F6E20004F666600EF
:100B5000536F667420656E6473746F70733A20000F
:100B600020643A0020693A0020703A00496E7661AC
:100B70006C69642065787472756465720A004B64F0
:100B8000200023646566696E652044454641554CE6
:100B9000545F004B69200023646566696E652044DC
:100BA000454641554C545F004B70200023646566F8
:100BB000696E652044454641554C545F0050494498
:100BC000204175746F74756E652066696E6973680F
:100BD0006564212050757420746865206C6173749D
:100BE000204B702C204B6920616E64204B64206385
:100BF0006F6E7374616E74732066726F6D206265C0
:100C00006C6F7720696E746F20436F6E66696775CD
:100C1000726174696F6E2E680A00504944204175F4
:100C2000746F74756E65206661696C6564212074EB
:100C3000696D656F75740A00453120544845524D01
:100C4000414C2052554E4157415900424544205491
:100C50004845524D414C2052554E41574159005440
:100C60006865726D616C2052756E617761790045BF
:100C7000312048656174696E67206661696C6564DE
:100C8000004265642068656174696E672066616909
:100C90006C65640048656174696E67206661696CA3
:100CA000656400504944204175746F74756E652009
:100CB0006661696C6564212054656D70657261744C
:100CC00075726520746F6F20686967680A00204B31
:100CD000643A2000204B693A2000204B703A2000F3
:100CE0000A20436C617373696320504944200A00F1
:100CF0002054753A2000204B753A2000206D617811
:100D00003A2000206D696E3A200020643A200020CD
:100D1000626961733A2000504944204175746F74D0
:100D2000756E65206661696C65642120426164208E
:100D30006578747275646572206E756D6265720A8D
:100D400000504944204175746F74756E652073744A
:100D50006172740A004F66660A0046616465204845
:100D600065696768742000426564204C6576656C2F
:100D7000696E6720004661696C656420746F206548
:100D80006E61626C6520426564204C6576656C69B5
:100D90006E670A004F666673657473206170706CCD
:100DA000696564004572723A20546F6F2066617203
:100DB0002100546F6F206661722066726F6D207221
:100DC00065666572656E636520706F696E740A0092
:100DD0004D3234004D323320257300556E6B6E6FEB
:100DE000776E20636F6D6D616E643A2022005072E1
:100DF0006F62696E67206661696C65640A00507293
:100E00006F62696E67206661696C656400205A3A9A
:100E1000200020593A200042656420583A200048BA
:100E20006F6D652025732573257320666972737451
:100E3000002066697273740A005A0059005800480D
:100E40006F6D65200053442063617264206F6B0AEC
:100E5000006F70656E526F6F74206661696C6564B7
:100E60000A00766F6C756D652E696E697420666117
:100E7000696C65640A00534420696E697420666178
:100E8000696C0A00526573746F7265206661696CE3
:100E900073616665004C6F61642073657474696E7C
:100EA000677300496E697469616C697A65204545AC
:100EB00050524F4D0053746F72652073657474699E
:100EC0006E67730046696C616D656E74004D6F747A
:100ED000696F6E0054656D7065726174757265003E
:100EE0004D61696E005072656865617420414253BE
:100EF00020636F6E66005072656865617420504CA7
:100F00004120636F6E66005049442D4400504944AF
:100F10002D44005049442D49005049442D4900506A
:100F200049442D50005049442D500020082046616E
:100F300063740020082046616374002008204D611E
:100F400078002008204D6178002008204D6178004D
:100F50002008204D696E002008204D696E00200891
:100F6000204D696E004F6666004F6E20004175741B
:100F70006F74656D700046616E2073706565640006
:100F800046616E2073706565640046616E20737003
:100F90006565640042656400426564004265640002
:100FA0004E6F7A7A6C65004E6F7A7A6C65004E6F80
:100FB0007A7A6C6500436F6E74726F6C0053746F55
:100FC00072652073657474696E67730042656400AE
:100FD00042656400426564004E6F7A7A6C65004E2B
:100FE0006F7A7A6C65004E6F7A7A6C650046616E36
:100FF0002073706565640046616E2073706565647A
:101000000046616E2073706565640054656D70659F
:10101000726174757265005654726176206D696EE6
:10102000005654726176206D696E00565472617676
:10103000206D696E00566D696E00566D696E0056C2
:101040006D696E00566D6178204500566D6178209F
:101050004500566D6178204500566D6178205A0034
:10106000566D6178205A00566D6178205A00566D91
:101070006178205900566D6178205900566D61786D
:10108000205900566D6178205800566D61782058BF
:1010900000566D61782058004D6F74696F6E004383
:1010A0006172642072656D6F76656400436172647D
:1010B00020696E7365727465640000060900FE079E
:1010C00001920321207FFF07FF07FF0000000600B9
:1010D00000010707060200808080808000800302F4
:1010E00002060105A0A00507070600005050F850B1
:1010F000F850500507070600002078A07028F0205F
:10110000050707060000C0C810204098180507070B
:101110000600006090A040A8906802030306010446
:10112000C0408003070706010020408080804020E7
:1011300003070706010080402020204080050505A8
:1011400006000120A870A820050505060001202042
:10115000F820200203030602FFC0408005010106BB
:101160000003F8020202060200C0C00505050600E1
:101170000108102040800507070600007088888855
:1011800088887003070706010040C040404040E0E7
:10119000050707060000708808708080F8050707BB
:1011A000060000F81020100808F0050707060000E8
:1011B00010305090F81010050707060000F880F076
:1011C00008088870050707060000708080F088888E
:1011D00070050707060000F80810202020200507EA
:1011E0000706000070888870888870050707060069
:1011F0000070888878080870020505060200C0C0E3
:1012000000C0C00206060602FFC0C000C040800445
:101210000707060000102040804020100503030649
:101220000002F800F80407070601008040201020A3
:101230004080050707060000708808102000200580
:10124000070706000070880868A8A8700507070649
:101250000000708888F8888888050707060000F075
:101260008888F08888F0050707060000708880806D
:10127000808870050707060000F08888888888F055
:10128000050707060000F88080F08080F805070752
:10129000060000F88080F0808080050707060000C7
:1012A000708880B8888870050707060000888888DD
:1012B000F888888801070706020080808080808087
:1012C0008005070706000038101010109060050711
:1012D000070600008890A0C0A090880507070600B8
:1012E00000808080808080F805070706000088D88D
:1012F000A8888888880507070600008888C8A898F5
:101300008888050707060000708888888888700527
:101310000707060000F08888F08080800507070630
:10132000000070888888A89068050707060000F00C
:101330008888F0A0908805070706000078808070F4
:101340000808F0050707060000F8202020202020CC
:1013500005070706000088888888888870050707C1
:101360000600008888888888502005070706000046
:101370008888888888A85005070706000088885054
:10138000205088880507070600008888885020209C
:1013900020050707060000F80810204080F8030722
:1013A00007060100E08080808080E00505050600DA
:1013B000018040201008030707060100E0202020DC
:1013C0002020E005030306000420508805010106E3
:1013D0000000F8020202060205804005050506002D
:1013E0000070087888780507070600008080B0C87C
:1013F0008888F00505050600007080808870050764
:101400000706000008086898888878050505060022
:10141000007088F880700507070600003048E0403B
:101420004040400506060600FF7088887808700571
:1014300007070600008080B0C88888880107070673
:101440000200800080808080800308080601FF2061
:101450000020202020A04004070706000080809084
:10146000A0C0A090030707060100C04040404040D4
:10147000E0050505060000D0A8A8A8A805050506F2
:101480000000B0C8888888050505060000708888B7
:1014900088700506060600FFF08888F08080050643
:1014A000060600FF7888887808080505050600000C
:1014B000B0C880808005050506000070807008F0C7
:1014C0000407070600004040E040404030050505A5
:1014D0000600008888889868050505060000888849
:1014E0008850200505050600008888A8A850050535
:1014F0000506000088502050880506060600FF8873
:101500008888780870050505060000F8102040F866
:1015100003070706010020404080404020010707E4
:10152000060200808080808080800307070601001B
:101530008040402040408005020206000268900082
:10154000000006000000000000300E0100C00E0A7E
:1015500000500F1400D00F1E0060102800E0103261
:101560000070113C00F01146007012500000135A38
:10157000008013640000146E00901478001015822F
:101580000090158C00101696009016A0001017AA57
:10159000009017B4001018BE009018C8001019D29F
:1015A000009019DC00101AE600801AF000001BFA07
:1015B00000801B0401F01B0E01701C1801F01C229E
:1015C00001601D2C01E01D3601501E4001D01E4A55
:1015D00001401F5401B01F5E0130206801A020723D
:1015E0000110217C0190218601002290016026F4E7
:1015F00001902A5802802EBC0250322003E035842C
:10160000035039E803803C4C0408FFFFFFFFFF0054
:1016100001010101016265640A002C207379737471
:10162000656D2073746F7070656421204865617406
:1016300065725F49443A20004265642068656174C0
:10164000696E67206661696C6564004865617469EC
:101650006E67206661696C6564004531204865618C
:1016600074696E67206661696C65640048656174C1
:10167000696E67206661696C6564001000C90210BC
:10168000012C014001220170011801B0010E01F08E
:101690000104015002FA00B002F0003003E600D06D
:1016A00003DC009004D2007005C800A006BE000054
:1016B00008B400B009AA00D00BA000600E9600602C
:1016C000118C000015820020197800C01D6E00A04A
:1016D000226400B0275A00902C500000314600E0F0
:1016E000343C0010383200903A2800603C1E00A0C4
:1016F0003D1400803E0A00203F0000453120457225
:10170000723A204D415854454D50004572723A206E
:101710004D415854454D5020424544004D41585488
:10172000454D502074726967676572656400453184
:10173000204572723A204D494E54454D5000457235
:10174000723A204D494E54454D5020424544004D7B
:10175000494E54454D5020747269676765726564DF
:10176000004D383420582059205A204500202F00A1
:101770002042403A0020403A00507265686561742A
:101780002041425320456E64005072656865617463
:10179000204142532042656400507265686561745F
:1017A000204142530050726570617265004D3432C1
:1017B00038005072656865617420504C4100436F79
:1017C0006F6C646F776E005072656865617420415C
:1017D00042530044697361626C6520737465707074
:1017E000657273004D38340053657420686F6D6501
:1017F000206F666673657473004661646520486592
:101800006967687400466164652048656967687443
:10181000004661646520486569676874004F6666C4
:10182000004F6E2000426564204C6576656C696EE1
:1018300067004C6576656C20626564004732380A43
:10184000473239004175746F20686F6D650047320B
:1018500038004D6F76652061786973004D61696E5F
:10186000004D6F76652058004D6F76652059004D0C
:101870006F7665205A004578747275646572004D04
:101880006F766520302E316D6D004D6F766520319D
:101890006D6D004D6F76652031306D6D004D6F764A
:1018A00065206178697300457874727564657200AB
:1018B0004D6F7665205A004D6F76652059004D6F4B
:1018C00076652058004578747275646572004D6FB6
:1018D0007665205A004D6F76652059004D6F76650C
:1018E0002058005072657061726500496E697469B4
:1018F000616C697A6520454550524F4D00436F6ECB
:1019000074726F6C0024F4D43050C38E20C2A24095
:1019100017828B7011127A910D816CD90AA861E13E
:1019200008C7586607615143061E4B5D05C145A7B0
:10193000041A411104093D9803713931034036DB23
:101940000265339102D4305402802E1D02632CEEC6
:1019500001752AC501B028A001102781018F2564D7
:10196000012B244B01E0223401AC211F018D200DFD
:1019700001801FFC00841EED00971DDF00B81CD203
:1019800000E61BC600201BBC00641AB200B219A8F6
:10199000000A19A0006A189900D117910040178B0E
:1019A00000B516840031167E00B31579003A157320
:1019B00000C7146F0058146A00EE136600881363A2
:1019C0000025135E00C7125B006C125700151254FD
:1019D00000C111510070114F0021114B00D6104968
:1019E000008D1047004610440002104200C00F4016
:1019F00000800F3E00420F3C00060F3B00CB0E382C
:101A000000930E37005C0E3500270E3400F30D32C4
:101A100000C10D3100900D3000600D2E00320D2DF3
:101A200000050D2C00D90C2B00AE0C2900850C29CB
:101A3000005C0C2700350C27000E0C2600E80B2458
:101A400000C40B2400A00B23007D0B23005A0B21A4
:101A500000390B2100180B2000F80A1F00D90A1EBC
:101A600000BB0A1E009D0A1D00800A1D00630A1C9F
:101A700000470A1B002C0A1B00110A1A00F7091A5A
:101A800000DD091900C4091900AB091900920917F2
:101A9000007B091800630917004C09160036091667
:101AA00000200916000A091500F5081500E00814C1
:101AB00000CC081400B8081400A4081400900813FF
:101AC000007D0812006B0813005808120046081227
:101AD0000034081100230811001208110001081138
:101AE00000F0071000E0071000D0071000C007103A
:101AF00000B0070F00A107100091070E0083070F29
:101B00000074070F0065070E0057070E0049070E07
:101B1000003B070D002E070E0020070D0013070DD8
:101B20000006070D00F9060C00ED060D00E0060C9E
:101B300000D4060C00C8060C00BC060C00B0060C55
:101B400000A4060B0099060C008D060B0082060B04
:101B50000077060B006C060B0061060A0057060BA7
:101B6000004C060A0042060A0038060A002E060A41
:101B70000024060A001A060A001006090007060AD1
:101B800000FD050900F4050900EB050900E205095F
:101B900000D9050900D0050900C7050900BE0509DF
:101BA00000B5050800AD050800A50509009C05085D
:101BB00000940508008C050800840508007C0508D1
:101BC00000740508006C050700650508005D050741
:101BD00000560508004E05070047050700400508A8
:101BE0000038050700310507002A0507002305070F
:101BF000001C050600160507000F0507000805066E
:101C00000002050700FB040600F5040700EE0406C9
:101C100000E8040600E2040700DB040600D5040621
:101C200000CF040600C9040600C3040600BD040674
:101C300000B7040600B1040500AC040600A60406C3
:101C400000A00405009B040600950405009004060E
:101C5000008A04050085040500800406007A040556
:101C60000075040500700405006B0405006604059A
:101C700000610405005C04050057040500520405DA
:101C8000004D04050048040500430405003E04041B
:101C9000003A04050035040500300404002C040556
:101CA0000027040400230405001E0404001A040491
:101CB0000016040500110404000D040400090405C5
:101CC000000404040000040400FC030400F80304FE
:101CD00000F4030400F0030400EC030400E8030430
:101CE00000E4030400E0030400DC030400D8030460
:101CF00000D4030400D0030400CC030400C8030391
:101D000000C503030024F404D9201BC40C5C0E9806
:101D100004C4095F0265077101F405F900FB04B30F
:101D20000048048700C103690058035500030345B8
:101D300000BE023A008402310053022A0029022523
:101D40000004022000E4011C00C8011900AF0117C3
:101D5000009801140084011300710110006101104A
:101D60000051010E0043010D0036010B002B010B49
:101D70000020010B00150109000C010900030108F6
:101D800000FB000800F3000800EB000700E4000679
:101D900000DE000600D8000600D2000600CC0005D8
:101DA00000C7000500C2000500BD000400B9000422
:101DB00000B5000400B1000400AD000400A9000457
:101DC00000A5000300A20003009F0004009B000385
:101DD00000980003009500020093000300900003A8
:101DE000008D0002008B00030088000200860002C4
:101DF0000084000300810002007F0002007D0002D9
:101E0000007B0002007900020077000100760002EA
:101E1000007400020072000100710002006F0002F5
:101E2000006D0001006C0002006A00010069000200
:101E30000067000100660001006500010064000207
:101E4000006200010061000100600001005F00020B
:101E5000005D0001005C0001005B0001005A000110
:101E60000059000100580001005700010056000110
:101E70000055000100540001005300000053000110
:101E8000005200010051000100500001004F00010C
:101E9000004E0000004E0001004D0001004C00010A
:101EA000004B0000004B0001004A00010049000106
:101EB0000048000000480001004700010046000003
:101EC00000460001004500000045000100440001FB
:101ED00000430000004300010042000000420001F6
:101EE000004100000041000100400001003F0000EF
:101EF000003F0001003E0000003E0001003D0000E8
:101F0000003D0001003C0000003C0000003C0001DE
:101F1000003B0000003B0001003A0000003A0001D5
:101F200000390000003900010038000000380000CE
:101F300000380001003700000037000100360000C3
:101F400000360000003600010035000000350000BA
:101F500000350001003400000034000000340001AE
:101F600000330000003300000033000100320000A5
:101F7000003200000032000100310000003100009A
:101F8000003100010030000000300000003000018E
:101F9000002F0000002F0000002F0000002F000184
:101FA000002E0000002E0000002E0001002D000079
:101FB000002D0000002D0000002D0001002C00006D
:101FC000002C0000002C0000002C0001002B000061
:101FD000002B0000002B0000002B0001002A000055
:101FE000002A0000002A0000002A00010029000049
:101FF000002900000029000000290000002900013C
:102000000028000000280000002800000028000030
:102010000028000100270000002700000027000022
:102020000027000000270001002600000026000015
:102030000026000000260000002600010025000008
:1020400000250000002500000025000000250000FC
:1020500000250001002400000024000000240000EE
:1020600000240000002400010023000000230000E1
:1020700000230000002300000023000000230000D4
:1020800000230001002200000022000000220000C6
:1020900000220000002200000022000100210000B8
:1020A00000210000002100000021000000210000AC
:1020B000002100000021000100200000002000009D
:1020C0000020000000200000002000000020000090
:1020D0000020000000200001001F0000001F000081
:1020E000001F0000001F0000001F0000001F000074
:1020F000001F0001001E0000001E0000001E000066
:10210000001E000000043700001E290000511B00C3
:10211000005810000010090000CC040000780200F4
:10212000004101000000060900FE0000000000015F
:10213000090008FE000005080806000040F0C888F5
:1021400088987810050808060000C0F888888888F4
:1021500088F80505050600012030F830200508083C
:102160000600002070F820202020E0050909060064
:10217000FF2070A8A8B8888870200509090600FF0C
:10218000E080C0B0A8283028280509090600FFF81B
:10219000A88888888888A8F8050A0A0600FE2050C2
:1021A00050505088A8A8887003030306000340A07D
:1021B0004025753A2530327500253032753A253084
:1021C00032750025756420253032753A2530327518
:1021D00000202020202020005A005900202020200C
:1021E000005800092000000000000000000000006E
:1021F00000003FFFF00000000000000000000000B1
:102200000038007000000000000000000000000026
:1022100030FC300000000000000000000000002042
:10222000FC1000000000000000000000000020780A
:10223000100000000000000000000000002030102E
:102240000000000000000000000000002C00D03F53
:10225000C0000000000000002082002E31D07FE08E
:10226000000000000000001041002F7BD07FE00044
:102270000000000000001041002F7BD07FE0000034
:1022800000000000002082002E31D03FC00000007E
:10229000000000004104002C00D03FC000000000FE
:1022A0000000008208002030107FE00000000000E5
:1022B00000008208002078107FE00000000000008D
:1022C0000041040020FC107FE0000000000000003E
:1022D00020820030FC301F80000000000000000061
:1022E00000003800700F0000000000000000FFFF39
:1022F000C03FFFF0060000000000000000FFFFC02C
:102300000000000000000000000000000000003F8E
:10231000FFF0000000000000000000000000380096
:102320007000000000000000000000000031863056
:1023300000000000000000000000000023871000E3
:10234000000000000000000000000027879000004F
:10235000000000000000000000002F87D0000000F7
:102360000000000000000000002F03D03FC000006C
:1023700000000000002082002030107FE0000000FC
:10238000000000001041002078107FE000000000F5
:102390000000001041002078107FE00000000000E5
:1023A00000002082002030103FC00000000000002C
:1023B000004104002F03D03FC000000000000000D7
:1023C0008208002F87D07FE000000000000000821C
:1023D00008002787907FE000000000000000410413
:1023E000002387107FE00000000000000020820032
:1023F0003186301F8000000000000000000000381F
:1024000000700F0000000000000000FFFFC03FFF51
:10241000F0060000000000000000FFFFC000000008
:1024200046696C2E204469612E0046696C2E20445A
:1024300069612E004F6666004F6E20004520696E70
:10244000206D6D3300436F6E74726F6C0043616E6C
:102450006E6F7420656E7465722073756264697244
:102460003A2000022E2E004D61696E0050726F748A
:1024700065637465642050696E0A005374616E640C
:1024800061726420446576696174696F6E3A2000F8
:102490002052616E67653A2000204D61783A200035
:1024A000204D696E3A20004D65616E3A2000466904
:1024B0006E6973686564210A002072616E67653A0F
:1024C0002000206D61783A2000206D696E3A20006E
:1024D000207369676D613A2000206D65616E3A2056
:1024E000003A207A3A2000206F662000205A00200F
:1024F0005900205800476F696E6720746F3A004397
:102500006C6F636B776973650A00436F756E7465F2
:10251000722D0020446972656374696F6E3A200001
:10252000202020616E676C653A20005374617274DC
:10253000696E67207261646975733A2000506F7329
:102540006974696F6E696E67207468652070726F58
:1025500062652E2E2E0A003F4E756D626572206FE9
:1025600066206C65677320696E206D6F76656D659A
:102570006E74206E6F7420706C61757369626C6527
:102580002028302D3135292E0A003F2028582C597B
:1025900029206F7574206F6620626F756E64732ECC
:1025A0000A003F53616D706C652073697A65206E17
:1025B0006F7420706C61757369626C652028342DAE
:1025C0003530292E0A004D3438205A2D50726F6252
:1025D00065205265706561746162696C6974792007
:1025E000546573740A003F2856296572626F7365DB
:1025F000206C6576656C20697320696D706C6175FF
:102600007369626C652028302D34292E0A0020570A
:102610003A004520436F6F6C696E672E2E2E004581
:102620002048656174696E672E2E2E0020573A008F
:1026300042656420636F6F6C696E672E2E2E0042B8
:1026400065642068656174696E672E2E2E002074A3
:102650006F6F206C6F6E6720657874727573696F29
:102660006E2070726576656E7465640A0020636F13
:102670006C6420657874727573696F6E2070726512
:1026800076656E7465640A00627573793A207061CC
:102690007573656420666F7220696E7075740A00C8
:1026A000627573793A2070617573656420666F7224
:1026B00020757365720A00627573793A2070726FC3
:1026C00063657373696E670A004B494C4C45442E31
:1026D00020004B494C4C206361757365642062791E
:1026E000204B494C4C20627574746F6E2F70696E6C
:1026F0000A004B494C4C45442E20004B494C4C2081
:1027000063617573656420627920746F6F206D75E5
:10271000636820696E6163746976652074696D65AC
:10272000202D2063757272656E7420636F6D6D610C
:102730006E643A2000506C65617365207265736544
:1027400074005052494E5445522048414C5445441F
:10275000005072696E7465722068616C7465642ED5
:10276000206B696C6C28292063616C6C6564210A9C
:1027700000656E7175657565696E672022000000E1
:1027800000000000000000000000000048420000BF
:1027900048420000C040000000005761726E696E40
:1027A000673A20486F6D696E672042756D702044EE
:1027B000697669736F72203C20310A0002020400BE
:1027C00000404000004040000000400000964300F0
:1027D00000704300009643FFFFFF454550524F4DA8
:1027E000206461746173697A65206572726F722EFC
:1027F0000A00290A002062797465733B20637263C2
:10280000200053657474696E67732053746F72652A
:1028100064202800290A002062797465733B2063D4
:10282000726320002073746F726564207365747422
:10283000696E6773207265747269657665642028B5
:1028400000202863616C63756C6174656429210ADA
:102850000020213D2000454550524F4D204352431A
:10286000206D69736D61746368202D202873746F07
:102870007265642920002053697A653A2000496E08
:102880006465783A2000204D61726C696E3D563562
:1028900035290A0028454550524F4D3D00454550C9
:1028A000524F4D2076657273696F6E206D69736D3E
:1028B000617463682000416D6178204500416D615D
:1028C00078204500416D6178205A00416D61782083
:1028D0005A00416D6178205900416D61782059009E
:1028E000416D6178205800416D6178205800412D7C
:1028F00074726176656C00412D74726176656C004E
:10290000412D7265747261637400412D7265747239
:1029100061637400416363656C00416363656C00CF
:102920004D6F74696F6E0056652D6A65726B005647
:10293000652D6A65726B0056652D6A65726B00566F
:102940007A2D6A65726B00567A2D6A65726B005635
:10295000792D6A65726B0056792D6A65726B005627
:10296000792D6A65726B0056782D6A65726B005618
:10297000782D6A65726B0056782D6A65726B004D12
:102980006F74696F6E004573746570732F6D6D00A1
:102990004573746570732F6D6D005A737465707331
:1029A0002F6D6D005A73746570732F6D6D005973C0
:1029B000746570732F6D6D005973746570732F6D2E
:1029C0006D005873746570732F6D6D005873746566
:1029D00070732F6D6D004D6F74696F6E0053746569
:1029E00070732F6D6D004A65726B00416363656C97
:1029F00065726174696F6E0056656C6F6369747996
:102A00000050726F6265205A204F666673657400CD
:102A100050726F6265205A204F666673657400437A
:102A20006F6E74726F6C00FFFFFF800FFC0F81F8F8
:102A30000FFC00F81E0FFFFFFF800FFF0F83FE0F3C
:102A4000FF03FE1E0FFFFFFF800FFF0F87FF0FFF2B
:102A500007FF1F1FE00003800FFF8F8FFF0FFF870F
:102A6000FF0F1EE00003800F8F8F8F8F8F8F8F8F50
:102A70008F1EE03E03800F8F8F8F8F8F8F8F8F87FA
:102A8000BCE03E03800F8F8F8F8F8F8F8F8F87BC1F
:102A9000E03E03800F8F8F8F8F8F8F8F8F87FCE0AB
:102AA0003E03800FFF8F8F8F8FFF8F8F83F8E03E65
:102AB00003800FFF0F8F800FFF0F8F83F8E01C0341
:102AC000800FFC0F8F800FFC0F8F83F8E0080380CE
:102AD0000FFF0F8F9F8FFF0F8F83F8E00003800F92
:102AE000FF8F8F9F8FFF8F8F83F8E00003800F8F02
:102AF0008F8F9F8F8F8F8F87FCE00003800F8F8FCA
:102B00008F8F8F8F8F8F87BCE00003800F8F8F8F09
:102B10008F8F8F8F8F87BCE00003800F8F8F8F8FF9
:102B20008F8F8F8F873CE00003800F8F8F8F8F8F69
:102B30008F8F8F8F1EE00003800F8F8F8F8F8F8F6F
:102B40008F8F8F1EE00003800FFF8F8FFF8FFF8717
:102B5000FF0F1EE00003800FFF8F87FF8FFF87FFAF
:102B60001F1FE00003800FFF0F83FB8FFF03FE1E7C
:102B70000FE00003800FFE0F81F38FFE00F81E0FA1
:102B8000E00003800000000000000000000000E002
:102B90000003800000000000000000000000E000D2
:102BA00003800000000000000000000000E7FFF3C9
:102BB000800000000000000000000000E7FFF3803C
:102BC0000000000000000000000000E000038000A2
:102BD00000000000000000000000E0000380000092
:102BE000000000000000000000E000038000000082
:102BF0000000000000000000FFFFFF800000000058
:102C000000000000000000FFFFFF80000000000047
:102C1000000000000000FFFFFF8000000000000037
:102C200000000000002020506C616E6E65724275DD
:102C30006666657242797465733A20002046726553
:102C400065204D656D6F72793A2000436F6D706934
:102C50006C65643A204A616E20203120323031396F
:102C60000A00207C20417574686F723A20284A61FE
:102C7000636B204D6F66666974742C204533442065
:102C800042696742786F2050726F290A00323031F2
:102C9000382D31322D333100204C61737420557042
:102CA00064617465643A2000312E312E392D6262E0
:102CB000700A004D61726C696E0020536F66747704
:102CC0006172652052657365740A002057617463F0
:102CD00068646F672052657365740A002042726FE2
:102CE000776E206F75742052657365740A002045F5
:102CF000787465726E616C2052657365740A005059
:102D00006F77657255700A0073746172740A00619E
:102D100075746F25692E67006572726F7220777205
:102D20006974696E6720746F2066696C650A004576
:102D30006E6473746F707320256320256320256390
:102D400020256300205A3A0020593A0020583A00C2
:102D5000656E6473746F7073206869743A20004400
:102D60006F6E6520736176696E672066696C652E8B
:102D70000A004D3239007C3C3E5E2B3D3F2F5B5DAF
:102D80003B2C2A225C004B494C4C45442E200053DE
:102D9000544F505045442E20005072696E74657235
:102DA0002073746F707065642064756520746F2083
:102DB0006572726F72732E20466978207468652080
:102DC0006572726F7220616E6420757365204D3973
:102DD000393920746F20726573746172742E2028E3
:102DE00054656D70657261747572652069732072C7
:102DF000657365742E205365742069742061667450
:102E000065722072657374617274696E67290A0055
:102E10004E6F20436865636B73756D2077697468C6
:102E2000206C696E65206E756D6265722C204C6138
:102E30007374204C696E653A20004E6F20436865BC
:102E4000636B73756D2077697468206C696E65209B
:102E50006E756D6265722C204C617374204C696EC6
:102E6000653A2000636865636B73756D206D6973E7
:102E70006D617463682C204C617374204C696E65BD
:102E80003A20004C696E65204E756D62657220694E
:102E900073206E6F74204C617374204C696E6520D2
:102EA0004E756D6265722B312C204C617374204C11
:102EB000696E653A20004D313130004D3331005399
:102EC000442072656164206572726F720A00446FFB
:102ED0006E65207072696E74696E672066696C65D4
:102EE0000A0020496E76616C696420657874727599
:102EF0006465722000000000000000000000000077
:102F00000000009643000070430000964348617241
:102F100064636F6465642044656661756C742053F6
:102F2000657474696E6773204C6F616465640A0030
:102F3000E8030000E8030000640000001027000020
:102F400000001643000016430000C0400000484245
:102F500000002043000034430000C84400009843B0
:102F60003A0A0020286D6D290020204D3835312087
:102F70005A005A2D50726F6265204F6666736574F1
:102F80000020440020490020204D333034205000E0
:102F900020440020490020204D3330312050005083
:102FA00049442073657474696E67733A0A00204659
:102FB0000020420020480020204D313435205300AD
:102FC0004D6174657269616C20686561747570200B
:102FD000706172616D65746572733A0A00205A00FF
:102FE000204A0020204732392057204900205A002B
:102FF00020204D3432302053004175746F204265DB
:1030000064204C6576656C696E673A0A00205A0048
:1030100020590020204D323036205800486F6D6511
:10302000206F66667365743A0A00204500205A00D6
:1030300020590020580020540020530020204D32F9
:10304000303520510020453C6D61785F655F6A65D1
:10305000726B3E0020583C6D61785F785F6A6572E4
:103060006B3E20593C6D61785F795F6A65726B3E9B
:10307000205A3C6D61785F7A5F6A65726B3E0041F1
:103080006476616E6365643A20513C6D696E5F736E
:1030900065676D656E745F74696D655F75733E20FD
:1030A000533C6D696E5F66656564726174653E2050
:1030B000543C6D696E5F74726176656C5F666565C0
:1030C00064726174653E0020540020520020204D3F
:1030D000323034205000416363656C6572617469FD
:1030E0006F6E2028756E6974732F7332293A2050E1
:1030F0003C7072696E745F616363656C3E20523C24
:10310000726574726163745F616363656C3E2054C1
:103110003C74726176656C5F616363656C3E0A0046
:10312000204500205A0020590020204D3230312007
:1031300058004D6178696D756D20416363656C65FC
:10314000726174696F6E2028756E6974732F7332A3
:10315000293A0A00204500205A0020590020204D1D
:103160003230332058004D6178696D756D20666589
:10317000656472617465732028756E6974732F734A
:10318000293A0A00204500205A0020590020204DED
:103190003932205800537465707320706572207541
:1031A0006E69743A0A0020204D3230302044300AD3
:1031B0000020204D32303020440020446973616289
:1031C0006C65640A0046696C616D656E7420736598
:1031D0007474696E67733A0020204D31343920438E
:1031E000203B20556E69747320696E2043656C73B3
:1031F0006975730A002020473231202020203B00CF
:10320000426967426F782050726F2052656164791D
:103210002E005072696E74696E672E2E2E005072E9
:10322000696E7420706175736564005072696E74A4
:103230002061626F72746564005072696E742066FA
:10324000726F6D2053440053746F70207072696EFA
:103250007400526573756D65207072696E74004EEE
:103260006F20534420636172640050617573652060
:103270007072696E7400436F6E74726F6C0050727E
:1032800065706172650054756E6500496E666F20E9
:1032900073637265656E00466C6F7700466C6F777E
:1032A00000466C6F770046616E2073706565640040
:1032B00046616E2073706565640046616E207370B0
:1032C00065656400426564004265640042656400AF
:1032D0004E6F7A7A6C65004E6F7A7A6C65004E6F2D
:1032E0007A7A6C6500466164652048656967687430
:1032F00000466164652048656967687400466164DA
:10330000652048656967687400537065656400539B
:1033100070656564005370656564004D61696E0099
:103320005072656865617420504C4120456E6400A0
:103330005072656865617420504C4120426564009C
:103340005072656865617420504C41005072657020
:103350006172650000002100240027002A002D0072
:103360003000330001010000040107010A010000E0
:103370002200250028002B002E003100340002011D
:103380000000050108010B010000200023002600B9
:1033900029002C002F00320000010000030106016B
:1033A00009010505050507050808080802020202CB
:1033B0000A0A0808040404040101010101010101D1
:1033C0000303030303030303040707070C0C0C0C9C
:1033D0000C0C0C0C02020202060606060606060685
:1033E0000B0B0B0B0B0B0B0B010210202008081012
:1033F0002040102040800201020108040201010265
:10340000040810204080804020100804020180043D
:103410000201804020100804020108040201010298
:1034200004081020408001020408102040800000A1
:103430000A0B02090C0D0E0807030401000000002E
:10344000000000000000000000000000000000007C
:103450000000000000000000000012111000000039
:10346000000000000000000000000000000000005C
:10347000000000004572726F722077726974696E85
:103480006720746F20454550524F4D210A00545219
:1034900049474745524544006F70656E003A200029
:1034A0007A5F6D696E00795F6D696E00785F6D6936
:1034B0006E005265706F7274696E6720656E64731A
:1034C000746F70207374617475730A00526573654C
:1034D0006E643A20006F6B007FFA54FC11241FBE0B
:1034E000CFEFD1E2DEBFCDBF00E00CBF13E0A0E024
:1034F000B2E0EAEAFFE102E00BBF02C007900D92E2
:10350000A438B107D9F724E1A4E8B3E001C01D92C3
:10351000A336B207E1F71AE1CDE6DAE100E006C032
:1035200021970109802FFE010F941D0CCC36D10785
:1035300080E00807A9F70E9475FC0D94C30F0C9456
:1035400000002F923F924F925F926F927F928F92E4
:103550009F92AF92BF92CF92DF92EF92FF920F9322
:103560001F93CF93DF93CDB7DEB7CB56D1090FB6FC
:10357000F894DEBF0FBECDBF11E01093951080917F
:10358000AE138D3411F40C948523843511F40C940E
:103590006C30873411F00C94B8302090AC1330901C
:1035A000AD132CE12216310409F42DC69CF444E03D
:1035B0002416310444F452E025163104C4F537FED4
:1035C0002FC00C94812384E02816310409F4DDC552
:1035D0000C9481239AE22916310409F407C764F494
:1035E000BDE12B16310409F425C6EEE12E16310497
:1035F00009F424C60C948123FBE52F16310409F449
:10360000B3C72CE52216310409F4B2C73AE52316F4
:10361000310411F00C948123109288030C94BA3079
:103620008091270281110C94BF300C94BA308091A4
:103630002702882311F40C94BA300E94793282E573
:103640000E946DD4882309F44CC10E94F1D34B0130
:103650005C0120E030E0A9010F948B07882309F476
:1036600070C18091EB069091EC06A091ED06B091AF
:10367000EE0688AF99AFAAAFBBAF2091EF063091AD
:10368000F0064091F1065091F2062CAF3DAF4EAFDF
:103690005FAF8091AF109091B010A091B110B09138
:1036A000B2102C968CAF9DAFAEAFBFAF2C972091D0
:1036B000B3103091B4104091B5105091B6102896C7
:1036C0002CAF3DAF4EAF5FAF28979C01AD0168AD09
:1036D00079AD8AAD9BAD0F948B0781110FC02896F1
:1036E0002CAD3DAD4EAD5FAD28976CAD7DAD8EADD3
:1036F0009FAD0F948B07882309F423C111E032E0BA
:103700002316310409F010E020E030E0A901C501E2
:10371000B4010F948B07881F8827881F181759F04A
:1037200080E090E0A0E8BFEB64968CAF9DAFAEAFB9
:10373000BFAF64970AC020E030E040E85FE36496E2
:103740002CAF3DAF4EAF5FAF649728AD39AD4AADFA
:103750005BAD2C966CAD7DAD8EAD9FAD2C970F946F
:10376000250C60966CAF7DAF8EAF9FAF60972CAD90
:103770003DAD4EAD5FAD28966CAD7DAD8EAD9FADD0
:1037800028970F94250C6B017C0160962CAD3DAD04
:103790004EAD5FAD6097CA01B9010F94F1072B01DF
:1037A0003C01A7019601C701B6010F94F1079B01E7
:1037B000AC01C301B2010F94260C0F94D40E2496D1
:1037C0006CAF7DAF8EAF9FAF249720E030E040E03C
:1037D0005FE30F94F1072B013C01A5019401C501A2
:1037E000B4010F94F1074B015C01A3019201C301E5
:1037F000B2010F94F1079B01AC01C501B4010F9414
:10380000250C0F94D40E64962CAD3DAD4EAD5FAD3E
:1038100064970F94F1074B015C01C701B601905802
:1038200024962CAD3DAD4EAD5FAD24970F94200D89
:10383000A50194010F94F1076B017C012C962CAD2E
:103840003DAD4EAD5FAD2C9768AD79AD8AAD9BAD0A
:103850000F94260C20E030E040E05FE30F94F10786
:103860009B01AC01C701B6010F94260C28AD39AD00
:103870004AAD5BAD0F94250C6B017C0128962CADF5
:103880003DAD4EAD5FAD28976CAD7DAD8EAD9FADBE
:103890000F94260C20E030E040E05FE30F94F10746
:1038A0002B013C0124962CAD3DAD4EAD5FAD249770
:1038B00060966CAD7DAD8EAD9FAD60970F94200D81
:1038C000A50194010F94F1079B01AC01C301B20162
:1038D0000F94260C2CAD3DAD4EAD5FAD0F94250C75
:1038E00014C089E40E946DD4882329F00E94F1D38A
:1038F0006B017C0103C0C12CD12C76018AE40E94AB
:103900006DD4882309F10E94F1D32C966CAF7DAF62
:103910008EAF9FAF2C9720E030E0A901C701B60120
:103920000F948B0781111FC020E030E0A9012C9675
:103930006CAD7DAD8EAD9FAD2C970F948B07811133
:1039400012C0E1E9FAE00DC420E030E0A901C701AE
:10395000B6010F948B078823A1F32C961CAE1DAEE5
:103960001EAE1FAE2C97D701C601B05888AF99AFD5
:10397000AAAFBBAF2C962CAD3DAD4EAD5FAD2C9735
:1039800050582CAF3DAF4EAF5FAF9C01AD01BC01B5
:10399000CD010F94F1074B015C012CAD3DAD4EAD57
:1039A0005FADCA01B9010F94F1079B01AC01C501DC
:1039B000B4010F94260C0F94D40EA0966CAF7DAF7B
:1039C0008EAF9FAFA0978091EB069091EC06A091EF
:1039D000ED06B091EE0628968CAF9DAFAEAFBFAFAF
:1039E0002897A7019601BC01CD010F94260C64967F
:1039F0006CAF7DAF8EAF9FAF64972091EF06309193
:103A0000F0064091F1065091F20660962CAF3DAF62
:103A10004EAF5FAF60972C962CAD3DAD4EAD5FAD18
:103A20002C9760966CAD7DAD8EAD9FAD60970F9479
:103A3000260CA4966CAF7DAF8EAF9FAFA4978091FC
:103A4000AF109091B010A091B110B091B2106896E3
:103A50008CAF9DAFAEAFBFAF689764962CAD3DAD58
:103A60004EAD5FAD6497BC01CD010F94250C6B0189
:103A70007C012091B3103091B4104091B510509159
:103A8000B6106C962CAF3DAF4EAF5FAF6C97A4965F
:103A90002CAD3DAD4EAD5FADA4976C966CAD7DADDC
:103AA0008EAD9FAD6C970F94250C4B015C018091FE
:103AB000F3069091F406A091F506B091F606A8964B
:103AC0008CAF9DAFAEAFBFAFA8979C01AD01609129
:103AD000B7107091B8108091B9109091BA100F94EE
:103AE000250C24966CAF7DAF8EAF9FAF2497A701B6
:103AF000960168AD79AD8AAD9BAD0F94F1072B01AE
:103B00003C01A50194016CAD7DAD8EAD9FAD0F94D0
:103B1000F1079B01AC01C301B2010F94260C2B01EC
:103B20003C01A501940168AD79AD8AAD9BAD0F94C0
:103B3000F1074B015C01A70196016CAD7DAD8EAD27
:103B40009FAD0F94F1079B01AC01C501B4010F9427
:103B5000250CA30192010F94A50C6B017C0120E0C0
:103B600030E0A9010F948B0787FF0AC02BED3FE0DF
:103B700049EC50E4C701B6010F94260C6B017C019F
:103B800092E02916310451F42BED3FE049EC50E46A
:103B9000C701B6010F94250C6B017C0120E030E0D9
:103BA000A901C701B6010F948B07811128C068963F
:103BB0002CAD3DAD4EAD5FAD689728966CAD7DAD3B
:103BC0008EAD9FAD28970F948B07811118C06C960E
:103BD0002CAD3DAD4EAD5FAD6C9760966CAD7DADDF
:103BE0008EAD9FAD60970F948B07811108C00BEDD0
:103BF000C02E0FE0D02E09ECE02E00E4F02EA7013D
:103C00009601A0966CAD7DAD8EAD9FADA0970F9443
:103C1000F1074B015C0120E030E0A90124966CAD76
:103C20007DAD8EAD9FAD24970F948B078823E9F06F
:103C3000A5019401C501B4010F94F1074B015C018A
:103C400024962CAD3DAD4EAD5FAD2497CA01B901B0
:103C50000F94F1079B01AC01C501B4010F94260C30
:103C60000F94D40E4B015C010DC020E030E0A9019F
:103C7000C501B4010F94860E87FF04C0B7FAB09453
:103C8000B7F8B0942FE632E143E85AE3C501B40136
:103C90000F948B0787FF02C00C94BA30C501B401A2
:103CA0000F94C80D0F94990D2E967FAF6EAF2E977F
:103CB000DB01AB2B31F4E1E0F0E02E96FFAFEEAF8D
:103CC0002E974090F7065090F8066090F906709095
:103CD000FA062E962EAD3FAD2E97B90180E090E00A
:103CE0000F9490074B015C019B01AC01C701B60129
:103CF0000F94200D28966CAF7DAF8EAF9FAF2897A5
:103D0000A501940124966CAD7DAD8EAD9FAD249739
:103D10000F94200DA0966CAF7DAF8EAF9FAFA09794
:103D2000A30192016091BB107091BC108091BD10F5
:103D30009091BE100F94250CA50194010F94200DB5
:103D4000AC966CAF7DAF8EAF9FAFAC9728962CAD85
:103D50003DAD4EAD5FAD2897CA01B9010F94F10793
:103D600020E030E040E05FE30F94F1079B01AC01FD
:103D700060E070E080E89FE30F94250C68966CAFDC
:103D80007DAF8EAF9FAF6897A8968CAD9DADAEAD61
:103D9000BFADA89789879A87AB87BC874D865E861B
:103DA0006F86788A6091530270915402072E000C3E
:103DB000880B990B0F9492072091140230911502F1
:103DC00040911602509117020F94F1072AE037ED47
:103DD00043E25CE30F94F1076CAB7DAB8EAB9FAB22
:103DE0000E940DE89B01AC0128533F4F4F4F5F4F9E
:103DF0006C962CAF3DAF4EAF5FAF6C9748AC59ACF3
:103E00006AAC7BAC22242394312C39E121963FAF5C
:103E100021972E964EAD5FAD2E974215530509F4AE
:103E20004CC10E94397F0E940DE8DC01CB016C96E9
:103E30002CAD3DAD4EAD5FAD6C97821B930BA40BCB
:103E4000B50BB7FD10C00E940DE89B01AC012853D3
:103E50003F4F4F4F5F4F6C962CAF3DAF4EAF5FAFB4
:103E60006C970E94FFB021963FAD2197315021966B
:103E70003FAF2197332309F445C02CAD3DAD4EAD86
:103E80005FAD68966CAD7DAD8EAD9FAD68970F94BC
:103E9000F1076B017C019201A30128966CAD7DAD09
:103EA0008EAD9FAD28970F94F107A70196010F944F
:103EB000260C7B018C019201A30168966CAD7DAD4F
:103EC0008EAD9FAD68970F94F1074B015C012CAD4F
:103ED0003DAD4EAD5FAD28966CAD7DAD8EAD9FAD69
:103EE00028970F94F1079B01AC01C501B4010F9411
:103EF000250C2B013C01C701D8018CAF9DAFAEAFA3
:103F0000BFAF55C0B10180E090E00F9490072896B4
:103F10002CAD3DAD4EAD5FAD28970F94F1074B0131
:103F20005C010F941B0D6B017C01C501B4010F9462
:103F3000C60E4B015C01A701960168AD79AD8AAD53
:103F40009BAD0F94F1072B013C012C962CAD3DADA0
:103F50004EAD5FAD2C97C501B4010F94F107A301DD
:103F600092010F94260C2B013C01A501940168AD30
:103F700079AD8AAD9BAD0F94F1074B015C012C9696
:103F80002CAD3DAD4EAD5FAD2C97C701B6010F9482
:103F9000F1079B01AC01C501B4010F94250C6CAF76
:103FA0007DAF8EAF9FAF49E121964FAF2197920130
:103FB000A30164966CAD7DAD8EAD9FAD64970F94FB
:103FC000260C69837A838B839C832CAD3DAD4EADEB
:103FD0005FADA4966CAD7DAD8EAD9FADA4970F94F3
:103FE000260C6D837E838F839887A0962CAD3DAD84
:103FF0004EAD5FADA09769857A858B859C850F94C2
:10400000260C69877A878B879C87AC962CAD3DAD53
:104010004EAD5FADAC976D857E858F8598890F9489
:10402000260C6D877E878F87988B80913702882337
:1040300021F0CE0101960E940CAEE090470A1CA62A
:104040001DA61EA61FA689819A81AB81BC8188A36B
:1040500099A3AAA3BBA38D819E81AF81B8858CA3B0
:104060009DA3AEA3BFA389859A85AB85BC8588A790
:1040700099A7AAA7BBA7AE01485D5F4FBE016C5DC3
:104080007F4FCE0180960E94F7F1CE018C966C0195
:104090008E010C5C1F4F9E01235F3F4FAE01485DB8
:1040A0005F4FBE016C5D7F4F0C970E949A4488233E
:1040B00021F09FEF291A390AACCEE090470A18AADE
:1040C00019AA1AAA1BAA8091AF109091B010A091C2
:1040D000B110B091B21088A399A3AAA3BBA38091F9
:1040E000B3109091B410A091B510B091B6108CA3FC
:1040F0009DA3AEA3BFA38091B7109091B810A091DB
:10410000B910B091BA1088A799A7AAA7BBA7AE010A
:10411000485D5F4FBE016C5D7F4FCE0180960E946F
:10412000F7F1DE01D0966D018E010C5C1F4F2BEB79
:1041300030E1AE01485D5F4FBE016C5D7F4FCE0147
:1041400080960E949A4480E1EFEAF0E1ABEEB6E09F
:1041500001900D928A95E1F70C94BA300E948AD4AE
:10416000F80184918F010F5F1F4F8111F7CFE9EDA7
:10417000F3E084918F010F5F1F4F882311F40C949B
:10418000BA300E948AD4F801F4CF80E50E946DD441
:10419000882329F00E94ADD36B017C0103C0C12CA0
:1041A000D12C760183E50E946DD4882361F00E94B2
:1041B000F1D320E030E04AE754E40F94F1070F9484
:1041C000990D6B017C010E94705280918F038111C7
:1041D00005C060E08FEE93E00E94F9750E940DE843
:1041E000C60ED71EE81EF91E0E940DE8DC01CB01A9
:1041F0008C199D09AE09BF09B7FD02C00C94BA30F5
:104200000E94FFB0F1CF8091DA068770873011F0FD
:104210000C94C4308FE40E946DD4882319F00E945E
:10422000E1D303C08FE40E9424D481110C94BA30EE
:104230000C94C4300E9444380C94BA30C090EB0601
:10424000D090EC06E090ED06F090EE0688E50E9436
:104250006DD4811108C020E030E0A901C701B6018A
:104260000F94260C02C00E94F1D368A379A38AA3FD
:104270009BA3C090EF06D090F006E090F106F0907E
:10428000F20689E50E946DD4811109C020E030E07A
:1042900040E052E4C701B6010F94260C02C00E9410
:1042A000F1D39B01AC0169837A838B839C8368A1E2
:1042B00079A18AA19BA10E94FEAF882311F40C94DE
:1042C000BA3080E00E94CB340E94293685E40E94F7
:1042D0006DD4882321F00E94E1D3182F04C085E417
:1042E0000E9424D411E086E50E946DD4882321F039
:1042F0000E94BDD3262F01C021E0412FBE016F5F78
:104300007F4FCE0180960E9458626B017C019B0119
:10431000AC010F94180F81115FC088A099A0AAA0CA
:10432000BBA020E030E0A901C501B4010F948B07C8
:1043300087FF05C027E137EB41E558EB04C027E1D3
:1043400037EB41E558E3C501B4010F94260CAB01EE
:10435000BC018FE194E00E94B79289809A80AB8083
:10436000BC8020E030E0A901C501B4010F948B07A7
:1043700087FF05C027E137EB41E558EB04C027E193
:1043800037EB41E558E3C501B4010F94260CAB01AE
:10439000BC018AE194E00E94B79220E030E0A901DC
:1043A000C701B6010F948B0787FF05C027E137EBE4
:1043B00041E558EB04C027E137EB41E558E3C7017D
:1043C000B6010F94260CAB01BC0185E194E00E947C
:1043D000B7928AE00E948AD40E941036113011F4FC
:1043E0000E945A370E94965A0C94BA308091270244
:1043F000882311F40C94BA3089E40E946DD4E82E1D
:10440000882321F00E94BDD3F62E01C0F12C8AE44E
:104410000E946DD4182F882321F00E94BDD3062F4F
:1044200001C000E0EE2019F0F2E0FF1520F01123AA
:1044300081F0033070F0E7E2F4E084918F010F5FC8
:104440001F4F882311F40C94BA300E948AD4F801CB
:10445000F4CF0E9480D4EE20F1F02091D40A309164
:10446000D50A4F2D4203B001439F700D1124809156
:10447000D9109091DA10680F791F072E000C880B65
:10448000990B0F9492076093AF107093B0108093C4
:10449000B1109093B2101123E9F02091D60A309117
:1044A000D70A0203B001039F700D11248091DB1025
:1044B0009091DC10680F791F072E000C880B990B68
:1044C0000F9492076093B3107093B4108093B5105B
:1044D0009093B61080E50E946DD48823E9F00E9485
:1044E000E1D38823E9F01123D9F020E030E040E067
:1044F00052E46091B3107091B4108091B510909116
:10450000B6100F94250C6093B3107093B410809381
:10451000B5109093B61004C080E50E9424D4E1CF7A
:1045200086E40E946DD48823D9F00E94F1D36B01F8
:104530007C0120E030E0A9010F94860E181684F467
:1045400020E030E040E752E4C701B6010F94200DAF
:1045500060931402709315028093160290931702D1
:104560000E9450B40C94BA30109388030C94BA3063
:10457000E9E62E2EE2E03E2EF3EAEF2EF0E1FF2EEA
:104580008BEE96E099AF88AFABEDCA2EA6E0DA2E9F
:1045900000E010E0D1018D911D010E946DD48823AF
:1045A00009F44BC00E94F1D32B013C01133049F0B8
:1045B000F60120813181428153810F94250C2B011A
:1045C0003C01A8ADB9AD2D913D914D915C91C301D8
:1045D000B2010F94250C4B015C012DEB37E346E84B
:1045E00055EB0F94860E87FD0AC02DEB37E346E8A6
:1045F00055E3C501B4010F948B071816F4F413307A
:1046000051F44092F7065092F8066092F9067092C3
:10461000FA0601E012C0A5019401F70160817181E1
:10462000828193810F94260CD7016D937D938D9396
:104630009C931397812F0E94A9D21F5FB4E0EB0EC9
:10464000F11CE8ADF9AD3496F9AFE8AFF4E0CF0E68
:10465000D11C143009F09ECF002309F44EC020E095
:1046600030E0A9016091F7067091F8068091F90693
:104670009091FA060F94260C209116113091171183
:1046800040911811509119110F94F1070F94930E46
:1046900060930B0470930C0480930D0490930E04AC
:1046A0009091E9038091EA03981719F00E94125241
:1046B00024C00E94705280916F00982F927081FFE9
:1046C00005C080916F008D7F80936F0040910B0437
:1046D00050910C0460910D0470910E044093FE0FF4
:1046E0005093FF0F6093001070930110992329F0ED
:1046F00080916F00826080936F000E94965A0C94A4
:10470000BA300E9453650C94BA308091AC139091EA
:10471000AD138537910509F459C70CF0B8C08B3437
:10472000910509F4A1C40CF04FC08931910509F439
:10473000ABC21CF58431910509F4AFC17CF4813121
:10474000910509F424C22CF4029708F4A9C10C9431
:104750006930429709F4FEC50C94693086319105A1
:1047600009F46BC20CF465C28731910509F46BC280
:10477000489709F47EC20C9469308E31910509F492
:1047800039C384F48B31910509F492C20CF482C2CE
:104790008C31910509F424C34D9711F40C94BA306F
:1047A0000C9469308032910509F428C30CF472C36B
:1047B0008A32910509F424C4C09711F00C94693031
:1047C0000E94A7A80C94BA308936910509F422C535
:1047D00044F58335910509F4BAC59CF48D349105EF
:1047E00009F44AC40CF444C48135910509F49BC50D
:1047F0008235910511F00C946930109287030C9466
:10480000BA308535910509F4A8C50CF4A3C58C35DB
:10481000910509F4BBC58836910509F431C40C949F
:1048200069308E36910509F45AC49CF48B36910593
:1048300009F469C50CF44BC58C36910509F4B5C46F
:104840008D36910511F00C9469300E94B4A60C9439
:10485000BA308137910509F4B0C46CF48F369105F4
:1048600009F450C48037910511F00C9469308CE143
:1048700095E00E949EB08237910509F40FC68337F8
:10488000910511F00C946930E4E2F6E044C68D32F3
:1048900021E0920711F40C94292E0CF07BC0893C86
:1048A000910511F40C94122C7CF58C38910509F4C7
:1048B000F1C4ACF48737910509F4E3C60CF495C64E
:1048C0008837910509F4E0C68937910511F00C94F9
:1048D000693010922211109221110C94BA308B3948
:1048E000910509F4B2C434F48139910509F4D2C6B2
:1048F0000C9469308E3B910509F4E6C4883C91051F
:1049000009F440C70C946930833D910511F40C946F
:10491000582D3CF58C3C910511F40C944A2C64F410
:104920008B3C910511F00C946930A9E6EA2EA2E0C7
:10493000FA2E0FE21AE09FC78D3C910511F40C94FA
:10494000BF2C8E3C910511F00C946930E9E6CE2E17
:10495000E2E0DE2EF4E2EF2EF1E1FF2E10E00C9407
:10496000462D8D3D910511F40C94682D3CF48C3D41
:10497000910511F40C945B2D0C946930823E9105E5
:1049800011F40C94D72D8C32914011F40C94002E1C
:104990000C946930853A51E0950711F40C94272F57
:1049A000B4F58039B1E09B0711F40C94162FC4F4D0
:1049B0008F32F1E09F0711F40C94802E14F40C94C4
:1049C0002C2E803331E0930711F40C94832E833620
:1049D000914011F00C946930E1E9FAE00C94032F56
:1049E000823951E0950711F40C941F2F14F40C94A4
:1049F000192F8A39B1E09B0709F4DBC3843A91404F
:104A000011F00C9469300E94665C0C94BA30873FB8
:104A1000F1E09F0711F40C94C02FFCF4843F31E0C7
:104A2000930711F40C94BA2F4CF48C3A914011F086
:104A30000C9469300E94605B0C94BA30853FA1E011
:104A40009A0711F40C94BD2F863F914011F00C94FD
:104A500069300E9484DD0C94BA308B38E3E09E0705
:104A600011F40C94BA306CF4883F21E0920711F4F1
:104A70000C94CB2F8335934011F40C94EF2F0C94AE
:104A80006930803A43E0940709F4F7C1873E9340C8
:104A900011F40C9454300C946930E1E7F4E08BC0CD
:104AA000A090AA13B090AB1380E50E946DD4882328
:104AB00059F00E94ADD36B017C0111E0672B682B8C
:104AC000692B31F410E004C010E0C12CD12C760128
:104AD00083E50E946DD4882311F40C94AE310E94BA
:104AE000F1D320E030E04AE754E40F94F1070F944B
:104AF000990D6B017C0111110BC0672B682B692B81
:104B000039F4A114B10421F0D5018C91811102C0B6
:104B100010E001C011E00E947052112329F061E001
:104B2000C5010E94337605C060E086E494E00E94EF
:104B3000F97583E08093951081E08093580AC11441
:104B4000D104E104F104B1F00E940DE8C60ED71EB5
:104B5000E81EF91E0E940DE8DC01CB018C199D09AD
:104B6000AE09BF09B7FF0DC08091580A81110C949E
:104B7000B33107C08091580A882319F00E94FFB012
:104B8000F9CF0E94E4DF1092580A0C94BA3060E02A
:104B900089E594E00E94F97580910B018270809301
:104BA0000901899880910801817080930601A2987B
:104BB00012980C94BA3084918F010F5F1F4F882395
:104BC00021F00E948AD4F801F6CF1092AC068FE54E
:104BD00094E00E94E4CC8BE1EFE5F4E0DE01159671
:104BE00001900D928A95E1F780915D0490915E04A9
:104BF0009C838B8383E892E09A83898340E050E032
:104C0000BE016F5F7F4F80E090E00E941B40CE01AD
:104C100001960E9477B0E2E6F4E084918F010F5F85
:104C20001F4F882311F40C94BA300E948AD4F801E3
:104C3000F4CF0E941D600C94BA3010922F04109291
:104C400030040C94BA30E091AA13F091AB13808138
:104C5000882329F0803209F410823196F8CF40E0A1
:104C600061E08091AA139091AB130E94E0420C94F2
:104C7000BA3080913004882319F081E080932F04AA
:104C80000E94B88A0C94BA3010922F040E94DC8AD9
:104C90000C94BA3080913004882311F40C94BA300B
:104CA00083E50E946DD481110C94B7310C94BA3015
:104CB00083E40E9424D4882309F450C0EFEAF4E08E
:104CC00084918F010F5F1F4F882321F00E948AD4A7
:104CD000F801F6CF8091FA05811103C0E2E8F4E013
:104CE00012C0BE016F5F7F4F87EF95E00E94ABCB94
:104CF0008E010F5F1F4FF80181918F01882349F1C9
:104D00000E948AD4F8CF84918F010F5F1F4F8823B0
:104D100001F10E948AD4F801F6CF67E0C62E65E063
:104D2000D62EE12CF12C20E08091C00690E00E2CD4
:104D300002C0959587950A94E2F780FD13C23FEF74
:104D4000E31AF30A42E0C40ED11C55E0E516F10463
:104D500059F78AE00E948AD40C94BA3080913004CA
:104D6000882339F080912F04882319F0ECE8F4E0CF
:104D700003C0EEE9F4E028C084918F010F5F1F4F5C
:104D8000882321F00E948AD4F801F6CF6091A8060A
:104D90007091A9068091AA069091AB064AE00E9404
:104DA00039D78FE20E948AD46091A4067091A5063B
:104DB0008091A6069091A7064AE00E9439D78AE022
:104DC0000E948AD40C94BA3084918F010F5F1F4FD8
:104DD000882311F40C94BA300E948AD4F801F4CFDD
:104DE00040E060E08091AA139091AB130E94E042F2
:104DF0000C94BA300E94C23C0C94BA3080912F04BB
:104E000081110E94705280913004882311F40C9417
:104E1000BA3080E50E946DD4882319F00E94E1D356
:104E200003C080E50E9424D4182F482F61E08091B0
:104E3000AA139091AB130E94E04283E50E946DD4C7
:104E4000882381F00E94BDD3AB01BC014093A8062A
:104E50005093A9066093AA067093AB0687EF95E07E
:104E60000E949CCA80913004882319F081E08093CD
:104E70002F0411110C94BA3003CF8091AA13909192
:104E8000AB1321E020932E0440E060E00E94E0425A
:104E90000C94BA300E9484827B018C0120E831E5B9
:104EA00041E050E00F94920BC9016DE671E00F9460
:104EB000F50B4B015C01C801B70120E13EE040E089
:104EC00050E00F94920BCA01B90128E130E040E0B4
:104ED00050E00F94920B762E672EC62ED72E7CE3D1
:104EE000272E312C412C512CC801B701A201910170
:104EF0000F94920BF62EE72ECA01B901A20191017F
:104F00000F94920BCB018E010F5F1F4F8114910400
:104F100099F0EF92FF927F936F936F927F92BF927F
:104F2000AF929F928F9286EE94E09F938F931F9300
:104F30000F930F94230713C0A114B104B1F0EF92A3
:104F4000FF927F936F936F927F92BF92AF9286EDA5
:104F500094E09F938F931F930F930F9423070FB6A3
:104F6000F894DEBF0FBECDBF30C0CD2879F0EF92F0
:104F7000FF927F936F936F927F928AEC94E09F935E
:104F80008F931F930F930F942307E9CF892B69F019
:104F9000EF92FF927F936F9382EC94E09F938F93B5
:104FA0001F930F930F942307DACFEF92FF928EEBAC
:104FB00094E09F938F931F930F930F9423070F9069
:104FC0000F900F900F900F900F9060E0C8010E941B
:104FD0003376E0ECFAE084917F01BFEFEB1AFB0A35
:104FE000882321F00E948AD4F701F5CFB8018AEF17
:104FF00094E00E94ED928AE00E948AD40C94BA3028
:1050000083E50E946DD4882311F40C94BA300E9479
:10501000CDD3E82E80E50E946DD4882339F00E941C
:10502000CDD3182F87FF03C00C94BA301DE089E45C
:105030000E946DD4882341F00E94E1D381110C9429
:10504000F331EBE7F7E00BC089E40E9424D4F6CFFC
:10505000319627E0EC3AF20711F40C94F331849185
:105060001813F6CF0C94C8310E94B88A0C94BA3049
:105070000E94DC8A0C94BA300E94F18A0C94BA30F7
:1050800088E690E00E94A6D781110C94BA308091F6
:10509000C00683FF02C00C94BA3083E50E946DD431
:1050A0008823C9F00E94F1D30F94920D70936A1374
:1050B0006093691380E00E94E27B0E94F1D320E0BC
:1050C00030E04AEA52E40F948B07181624F00E944D
:1050D000F18A0E94E4DF0E9408930C94BA308EE4B7
:1050E0000E946DD4882311F40C94BA300E94BDD371
:1050F00060930A0970930B0980930C0990930D0932
:105100000C94BA3083E50E9424D4882359F083E5B7
:105110000E946DD4882319F00E94CDD301C080E095
:105120008093C006E0ECFAE084918F010F5F1F4F7F
:10513000811103C0E5E1F5E004C00E948AD4F801C2
:10514000F3CF84918F010F5F1F4F882321F00E94BE
:105150008AD4F801F6CF8091C0068111DECDE1E15D
:10516000F5E018C0BB24B394B20E222319F08CE2F0
:105170000E948AD4F60185919491FC0184918F015B
:105180000F5F1F4F882321F00E948AD4F801F6CFC9
:105190002B2DD5CD84918F010F5F1F4F882309F4EC
:1051A000D8CD0E948AD4F801F5CF10924C020C940D
:1051B000BA300E9487530C94BA3083E50E946DD4B4
:1051C000811103C0E0ECFAE00DC00E94CDD38D3315
:1051D00020F4809341020C94BA308CE38093410216
:1051E0000C94BA3084918F010F5F1F4F882321F0F8
:1051F0000E948AD4F801F6CF4091410250E060E06D
:1052000070E085E295E00E949A928AE00E948AD43A
:105210000C94BA3089E690E00E94A6D7811111C0A3
:10522000ECE2F5E084918F010F5F1F4F882321F09E
:105230000E948AD4F801F6CF0E94D97A8AE00E94AF
:105240008AD4109295100C94083283E50E946DD494
:10525000882309F48FC70E94CDD3182F8D3308F00F
:105260001CE31093A2100E940DE86B017C01212F1A
:1052700030E0A8EEB3E00F94E60BC60ED71EE81E92
:10528000F91EC0929E10D0929F10E092A010F09252
:10529000A11070C78091C00683FD6CC783E50E9492
:1052A0006DD4882309F466C70E94F1D30F94920D40
:1052B0006639710514F066E970E0709368136093C5
:1052C00067130E94967B56C70E94DBA453C780E5F4
:1052D0000E946DD4811106C083E50E946DD488239D
:1052E00059F005C00E94CDD3811144C7F5CF0E946B
:1052F000BDD36F3F710510F06FEF70E070936C13CA
:1053000060936B1337C780E50E946DD4811105C08F
:1053100010926C1310926B132DC70E94BDD3672B94
:1053200009F028C7F5CF0E942E7C0E9482F11092CE
:105330006C1310926B1368EE73E080E090E00E94B3
:10534000097560E08FE295E00E94F97513C710932C
:10535000870310C70E942C5E0DC783E50E9424D4EA
:10536000882309F407C70E94F1D320E030E04AE720
:1053700054E40F94F1070F94990D60939A10709371
:105380009B1080939C1090939D10F4C649E6C42E08
:1053900042E0D42E5AE0E52E51E1F52E10E0D60180
:1053A0008D916D010E9424D4882309F46DC01330BF
:1053B00009F063C00E94F1D34B015C0120E030E0B2
:1053C00040EA51E40F948B0787FF4EC0A50194017A
:1053D0006091161170911711809118119091191107
:1053E0000F94200D2B013C019B01AC016091061133
:1053F0007091071180910811909109110F94F10794
:10540000609306117093071180930811909309110E
:10541000A301920160913B0A70913C0A80913D0A80
:1054200090913E0A0F94F10760933B0A70933C0AF7
:1054300080933D0A90933E0A6091FF0A7091000BA1
:105440008091010B9091020B0F949007A3019201A0
:105450000F94F1070F94990D6093FF0A7093000B5E
:105460008093010B9093020B80921611909217116A
:10547000A0921811B092191107C00E94F1D3F70140
:1054800060837183828393831F5FF4E0EF0EF11CCE
:10549000143009F084CF0E9493936CC60E9470521E
:1054A00083E50E946DD4882309F427C90E94BDD3E7
:1054B0006230710509F021C90E9430B88BE50E9465
:1054C0008AD46091CD067091CE068091CF069091DE
:1054D000D00642E00E9404D84091D1065091D206F5
:1054E0006091D3067091D40682E495E00E94B79251
:1054F0004091D5065091D6066091D7067091D80696
:105500008FE395E00E94B7928DE50E948AD48AE0ED
:105510000E948AD42FC684918F010F5F1F4F88236A
:1055200021F00E948AD4F801F6CF60E084E196E091
:105530000E945F5A61E08DE096E00E945F5A61E050
:1055400082E096E00E945F5A61E082EF95E00E945F
:105550005F5A60E089EE95E00E945F5A61E08FED4E
:1055600095E00E945F5A61E085ED95E00E945F5AE8
:1055700061E08DEC95E00E945F5A61E08FEB95E071
:105580000E945F5A60E081EB95E00E945F5A60E004
:1055900082EA95E00E945F5A60E084E995E00E940B
:1055A0005F5A60E08EE795E00E945F5A60E08DE60A
:1055B00095E00E945F5A60E088E595E00E945F5A9E
:1055C00061E085E495E00E945F5AD4C58091AA13FA
:1055D0009091AB13DC012C91222321F060E00E941A
:1055E0003376C8C50E94E4DFC5C50091AA131091A7
:1055F000AB1383E0D12C40E08150E1F0F8019081C1
:10560000292F2B7F2134C1F721812133A9F7913430
:1056100021F0953421F441E002C0DD24D3949801B7
:105620002E5F3F4F89012F5F3F4FD8019C919032F1
:10563000C9F3E2CF442369F0E0ECFAE084917F0102
:10564000BFEFEB1AFB0A882321F00E948AD4F701EE
:10565000F5CFDD2069F0E5E0F7E084917F012FEFE1
:10566000E21AF20A882321F00E948AD4F701F5CFCA
:10567000D8018D918D01882309F46BCB0E948AD4C7
:10568000F7CF0E94DAF476C581E0809322118093EF
:10569000211170C583E50E946DD4882319F00E9402
:1056A000BDD302C060E070E08B011127023011050C
:1056B000D4F0E1E9FAE084918F010F5F1F4F81116F
:1056C00003C0E9E0F7E004C00E948AD4F801F3CFF8
:1056D00084918F010F5F1F4F882309F44BC50E94EF
:1056E0008AD4F801F5CF88E40E946DD48823A9F00C
:1056F0000E94BDD36A3A71053CF06E31B1E07B0780
:105700002CF06DE171E002C06AEA70E0F801EE0F82
:10571000FF1FE15EF54F7183608386E40E946DD4C4
:105720008823A9F00E94BDD3F801EE0FFF1FED5DA5
:10573000F54F718360836F3F710519F014F06FEFBF
:1057400070E077FF02C060E070E07183608382E404
:105750000E946DD4882309F40DC50E94BDD3653025
:10576000710534F0683871052CF067E870E002C00C
:1057700065E070E0000F111FF801E55EF54F7183E1
:105780006083F8C488EC90E00E94A6D78111F2C42F
:1057900084E40E9424D4882309F441C00E94F1D3F8
:1057A0006B017C0111E020E030E0A9010F948B0730
:1057B000811101C010E01093941020E030E0A901A5
:1057C000C701B6010F948B07882349F10E94F1D3DA
:1057D000E0918E0A24E0E29FF0011124E057FF4E91
:1057E000608371838283938320E030E0A90160911C
:1057F00090107091911080919210909193100F944D
:105800008B0781110CC080E090E0A0E4B0E48093AD
:10581000901090939110A0939210B09393100E94C7
:1058200070F0A8C4B9E6EB2EB2E0FB2E0EED10E14D
:105830008EEEC82E80E1D82ED7018D917D010E9479
:1058400024D4882349F00E94F1D30F94990DF801D4
:1058500060837183828393830C5F1F4FC016D106D0
:1058600059F70E94389386C40C5F1F4FFAE00F333C
:105870001F0709F47FC4D7018D917D010E9424D4B4
:10588000882391F30E94F1D3F801608371838283AE
:105890009383EACF83E50E946DD48823A1F00E9410
:1058A000F1D36093F6107093F7108093F8109093F3
:1058B000F9106093EE107093EF108093F0109093B6
:1058C000F11010E001C011E080E50E946DD4882342
:1058D00059F00E94F1D36093F6107093F710809303
:1058E000F8109093F91010E082E50E946DD488239F
:1058F00059F00E94F1D36093F2107093F3108093EB
:10590000F4109093F51010E084E50E946DD4882384
:1059100059F00E94F1D36093EE107093EF108093D2
:10592000F0109093F11026C4112309F423C4409180
:10593000F6105091F7106091F8107091F91081E312
:1059400097E00E94B7924091F2105091F31060914D
:10595000F4107091F5108EE297E00E94B79240919A
:10596000EE105091EF106091F0107091F1108BE2F9
:1059700097E00E94B7928AE00E948AD4FBC381E537
:105980000E9424D4882351F00E94ADD36093BB06BB
:105990007093BC068093BD069093BE0683E50E947B
:1059A00024D4882351F00E94F1D360932B0A709382
:1059B0002C0A80932D0A90932E0A84E50E9424D409
:1059C000882351F00E94F1D36093270A7093280A2C
:1059D0008093290A90932A0A88E50E9424D4882378
:1059E00051F00E94F1D36093FA107093FB108093F2
:1059F000FC109093FD1089E50E9424D4882351F077
:105A00000E94F1D36093FE107093FF1080930011F9
:105A1000909301118AE50E9424D48823F1F00E941A
:105A2000F1D360930211709303118093041190934A
:105A300005112DEC3CEC4CEC5DE30F948B07181634
:105A400064F0E1E4F7E084918F010F5F1F4F88233A
:105A500021F00E948AD4F801F6CF85E40E9424D474
:105A6000882309F487C30E94F1D3609306117093D1
:105A7000071180930811909309117CC31F5FF4E014
:105A8000EF0EF11C133011F40C947D23D6018D918F
:105A90006D010E9424D4882389F30E94F1D3F70179
:105AA0006083718382839383812F0E94A9D2E6CF82
:105AB0000E9481595FC383E50E946DD4882309F455
:105AC00059C30E94BDD3709354026093530252C3D2
:105AD0008DED90E00E94A6D781114CC383E50E9412
