:100000000C945B180C948C180C948C180C948C1811
:100010000C948C180C948C180C948C180C948C18D0
:100020000C948C180C948C180C948C180C948C18C0
:100030000C948C180C948C180C948C180C948C18B0
:100040000C948C180C94E1850C948C180C948C18DE
:100050000C948C180C948C180C94569C0C94B2DE56
:100060000C948C180C948E180C948C180C948C187E
:100070000C948C180C948C180C948C180C948C1870
:100080000C948C180C948C180C948C180C948C1860
:100090000C948C180C948C180C948C180C948C1850
:1000A0000C948C180C948C180C948C180C948C1840
:1000B0000C948C180C948C180C948C180C948C1830
:1000C0000C948C180C948C180C948C180C948C1820
:1000D0000C948C180C948C180C948C180C948C1810
:1000E0000C948C18D29CE29C019D119D2C9D3C9DF2
:1000F000579D5C9D5F9D649D679D6C9D769DE7DF30
:10010000ECDFF1DFFBDF05E07EE00FE017E01FE052
:1001100029E033E03DE04CE056E07EE060E06AE05C
:1001200074E09FE0A2E091E095E09BE0D9E0A6E0DA
:10013000AAE0B0E0B4E0B8E0BEE0C2E0C6E0D9E0DA
:10014000CCE0D0E0D4E0084AD73B3BCE016E84BC83
:10015000BFFDC12F3D6C74319ABD56833DDA3D0021
:10016000C77F11BED9E4BB4C3E916BAAAABE00006A
:1001700000803F05A84CCDB2D44EB93836A9020C48
:1001800050B9918688083CA6AAAA2ABE0000008021
:100190003F005072696E7465722068616C746564AA
:1001A0002E206B696C6C28292063616C6C6564215E
:1001B000004B494C4C45442E20004B494C4C454487
:1001C0002E200020746F6F206C6F6E67206578742E
:1001D000727573696F6E2070726576656E74656492
:1001E0000020636F6C6420657874727573696F6E3C
:1001F0002070726576656E746564006F6B00526581
:1002000073656E643A20004F66667365747320618F
:1002100070706C696564004572723A20546F6F208B
:100220006661722100546F6F206661722066726F82
:100230006D207265666572656E636520706F696EAC
:1002400074004D65736820585920696E6465782084
:100250006973206F7574206F6620626F756E6473AA
:10026000004D3432312072657175697265732058A2
:10027000595A20706172616D6574657273005365BF
:100280007474696E672054726176656C2041636393
:10029000656C65726174696F6E3A200053657474A1
:1002A000696E67205265747261637420416363658F
:1002B0006C65726174696F6E3A200053657474697D
:1002C0006E67205072696E7420416363656C65725D
:1002D0006174696F6E3A200053657474696E6720AB
:1002E0005072696E7420616E642054726176656C20
:1002F00020416363656C65726174696F6E3A2000BA
:100300004D31343520533C696E6465783E206F75FD
:1003100074206F662072616E67652028302D312948
:10032000007A5F6D696E3A2000795F6D696E3A20E0
:1003300000785F6D696E3A2000205A3A0020593AE1
:100340000020436F756E7420583A200020453A0013
:10035000205A3A0020593A00583A004649524D571F
:100360004152455F4E414D453A4D61726C696E2078
:10037000312E312E302D5243362D626270286D653C
:1003800074616A61636B2F6D61726C696E2D626955
:1003900067626F7870726F2920534F555243455FE3
:1003A000434F44455F55524C3A68747470733A2F0A
:1003B0002F6769746875622E636F6D2F6D65746148
:1003C0006A61636B2F6D61726C696E2D6269676221
:1003D0006F7870726F2050524F544F434F4C5F569E
:1003E000455253494F4E3A312E30204D41434849F2
:1003F0004E455F545950453A426967426F782050E4
:10040000726F2045585452554445525F434F554EE4
:10041000543A3120555549443A6365646532613236
:10042000662D343161322D343734382D3962313212
:100430002D6335356336326633363766660A0042D9
:100440006967426F782050726F204F66662E0042B7
:100450006967426F782050726F2072656164792EEF
:100460000042656420646F6E652E003F0020573A9D
:10047000004265642048656174696E672E004865B6
:100480006174696E6720646F6E652E003F002057AF
:100490003A0048656174696E672E2E2E00426967C6
:1004A000426F782050726F2072656164792E006F00
:1004B0006B004D3131332053004B494C4C45442E99
:1004C00020004543484F00494E464F004552524F89
:1004D00052530044525952554E00434F4D4D554EC4
:1004E00049434154494F4E006F666600C204C70439
:1004F000CC04D304DA0444454255473A00486561C8
:1005000074696E672E2E2E00426967426F78205004
:10051000726F2072656164792E002569206D696EA5
:100520002C2025692073656300456E642066696C24
:1005300065206C69737400426567696E2066696C3A
:1005400065206C697374004E6F206D6F76652E00A8
:10055000426967426F782050726F207265616479DA
:100560002E00526573756D696E67207072696E74C6
:10057000005761697420666F7220757365722E2E44
:100580002E0054455354005A206E6F7420656E74CB
:10059000657265642E0A005A206E6F7420656E7451
:1005A000657265642E0A0059206E6F7420656E7442
:1005B000657265642E0A0059206F7574206F66207D
:1005C00072616E67652028312D33292E0A0058206C
:1005D0006E6F7420656E74657265642E0A00582013
:1005E0006F7574206F662072616E67652028312DEB
:1005F00033292E0A00473238004D65736820707227
:100600006F62696E6720646F6E652E00537461724D
:1006100074206D6573682070726F62696E672077F1
:10062000697468202247323920533122206669726A
:1006300073742E004732380A473239205332004D46
:1006400065736820626564206C6576656C696E67A9
:10065000206E6F74206163746976652E002020001F
:100660000A4D6561737572656420706F696E74738D
:100670003A000A5A206F66667365743A20000A5A77
:1006800020736561726368206865696768743A20E1
:10069000004E756D20582C593A200053206F757408
:1006A000206F662072616E67652028302D34292EF8
:1006B000005761726E696E673A20486F6D696E67A8
:1006C0002042756D702044697669736F72203C20FA
:1006D0003100536C6565702E2E2E0020403A0020AC
:1006E00042403A00202F0020423A00202F002054A0
:1006F0003A00627573793A2070617573656420669B
:100700006F7220696E70757400627573793A20702B
:10071000617573656420666F72207573657200621F
:100720007573793A2070726F63657373696E6700D1
:10073000220A00556E6B6E6F776E20636F6D6D6170
:100740006E643A20220020496E76616C69642065EF
:10075000787472756465722000256920686F7572FF
:1007600073202569206D696E7574657300446F6E22
:1007700065207072696E74696E672066696C6500C9
:100780004B494C4C45442E200053544F5050454447
:100790002E20005072696E7465722073746F7070D1
:1007A00065642064756520746F206572726F727362
:1007B0002E2046697820746865206572726F7220F9
:1007C000616E6420757365204D39393920746F204E
:1007D000726573746172742E202854656D70657231
:1007E00061747572652069732072657365742E205B
:1007F0005365742069742061667465722072657334
:1008000074617274696E6729004E6F204C696E6561
:10081000204E756D62657220776974682063686523
:10082000636B73756D2C204C617374204C696E651D
:100830003A20004E6F20436865636B73756D2077B7
:10084000697468206C696E65206E756D6265722CC6
:10085000204C617374204C696E653A2000636865B2
:10086000636B73756D206D69736D617463682C20A3
:100870004C617374204C696E653A20004C696E655A
:10088000204E756D626572206973206E6F74204C06
:10089000617374204C696E65204E756D6265722BB4
:1008A000312C204C617374204C696E653A20004DE8
:1008B00031313000446F6E6520736176696E672058
:1008C00066696C652E004D3239002020506C616ED7
:1008D0006E657242756666657242797465733A2018
:1008E000002046726565204D656D6F72793A200073
:1008F0004D6179202033203230313600436F6D70E6
:10090000696C65643A2000286E6F6E652C20646502
:100910006661756C7420636F6E6669672900207C60
:1009200020417574686F723A2000323031362D30B4
:10093000352D30332031343A333300204C61737419
:1009400020557064617465643A200020312E312E88
:10095000302D5243362D626270004D61726C696EAB
:100960000020536F667477617265205265736574F9
:1009700000205761746368646F6720526573657403
:10098000002042726F776E206F7574205265736518
:1009900074002045787465726E616C2052657365D1
:1009A0007400506F776572557000737461727400D3
:1009B0002200656E7175657565696E67202200FF9E
:1009C000FFFF0000A0400000A04000000040000029
:1009D00096430000704300009643000000000000B2
:1009E000000000000000000096430000704300007B
:1009F0009643000000000000000000000000656356
:100A0000686F3A004572726F723A007C3C3E5E2B12
:100A10003D3F2F5B5D3B2C2A225C004D3834205833
:100A20002059205A20450043616E6E6F7420656E18
:100A3000746572207375626469723A20006175741E
:100A40006F25692E67006572726F72207772697404
:100A5000696E6720746F2066696C65004E6F742044
:100A60005344207072696E74696E6700534420703D
:100A700072696E74696E67206279746520004465DE
:100A80006C6574696F6E206661696C65642C2046C4
:100A9000696C653A200046696C652064656C657414
:100AA00065643A006F70656E206661696C65642CE0
:100AB0002046696C653A200057726974696E672038
:100AC000746F2066696C653A20002E0A006F7065AD
:100AD0006E206661696C65642C2046696C653A20FD
:100AE000002E0A006F70656E206661696C65642C6B
:100AF0002046696C653A200046696C652073656C18
:100B00006563746564002053697A653A200046691C
:100B10006C65206F70656E65643A20006F70656E5D
:100B2000206661696C65642C2046696C653A20001A
:100B30004E6F772066726573682066696C653A202F
:100B4000004E6F7720646F696E672066696C653A46
:100B500020002220706F73002220706172656E7415
:100B60003A2200535542524F5554494E4520434175
:100B70004C4C207461726765743A22004B494C4CAE
:100B800045442E2000747279696E6720746F20636B
:100B9000616C6C207375622D67636F646520666994
:100BA0006C6573207769746820746F6F206D616E57
:100BB00079206C6576656C732E204D4158206C65EC
:100BC00076656C2069733A004D3234004D32332023
:100BD00025730053442063617264206F6B006F7053
:100BE000656E526F6F74206661696C656400766F24
:100BF0006C756D652E696E6974206661696C6564DB
:100C000000534420696E6974206661696C0020207D
:100C10004D3230302044300020204D3230302044DE
:100C2000002044697361626C65640046696C616DA3
:100C3000656E742073657474696E67733A0020443E
:100C40000020490020204D333034205000204C003B
:100C500020430020440020490020204D3330312023
:100C600050005049442073657474696E67733A008C
:100C700020460020420020204D31343520533120C1
:100C8000480020460020420020204D3134352053BA
:100C9000302048004D6174657269616C206865613F
:100CA00074757020706172616D65746572733A005D
:100CB000205A0020590020204D3432312058002085
:100CC000590020580020204D3432302053004D650B
:100CD000736820626564206C6576656C696E673A3E
:100CE00000205A0020590020204D32303620580074
:100CF000486F6D65206F666673657420286D6D2979
:100D00003A00204500205A0020580020420020547C
:100D10000020204D323035205300416476616E63EF
:100D20006564207661726961626C65733A20533D37
:100D30004D696E20666565647261746520286D6D0D
:100D40002F73292C20543D4D696E20747261766595
:100D50006C20666565647261746520286D6D2F7303
:100D6000292C20423D6D696E696D756D2073656734
:100D70006D656E742074696D6520286D73292C2053
:100D8000583D6D6178696D756D205859206A65729E
:100D90006B20286D6D2F73292C20205A3D6D6178B2
:100DA000696D756D205A206A65726B20286D6D2FF4
:100DB00073292C2020453D6D6178696D756D204546
:100DC000206A65726B20286D6D2F732900205400F6
:100DD00020520020204D32303420500041636365A2
:100DE0006C65726174696F6E733A20503D70726900
:100DF0006E74696E672C20523D7265747261637403
:100E000020616E6420543D74726176656C002045EB
:100E100000205A0020590020204D32303120580047
:100E20004D6178696D756D20416363656C657261B4
:100E300074696F6E20286D6D2F7332293A0020453A
:100E400000205A0020590020204D32303320580015
:100E50004D6178696D756D20666565647261746554
:100E60007320286D6D2F73293A00204500205A0009
:100E700020590020204D393220580053746570737A
:100E80002070657220756E69743A004861726463FF
:100E90006F6465642044656661756C742053657485
:100EA00074696E6773204C6F6164656400206279B9
:100EB00074657329002073746F72656420736574A0
:100EC00074696E67732072657472696576656420F3
:100ED0002800206279746573290053657474696E03
:100EE00067732053746F7265642028004572726FB7
:100EF000722077726974696E6720746F204545505F
:100F0000524F4D210020746F6F206C6F6E6720650B
:100F10007874727573696F6E2070726576656E7421
:100F200065640020636F6C64206578747275736902
:100F30006F6E2070726576656E746564004D38342E
:100F400020582059205A204500456E6473746F70F4
:100F50007320256320256320256320256300205A04
:100F60003A0020593A0020583A00656E6473746F55
:100F70007073206869743A200024F4D43050C38E12
:100F800020C2A24017828B7011127A910D816CD908
:100F90000AA861E108C7586607615143061E4B5D08
:100FA00005C145A7041A411104093D98037139315F
:100FB000034036DB0265339102D4305402802E1D8B
:100FC00002632CEE01752AC501B028A0011027810B
:100FD000018F2564012B244B01E0223401AC211F39
:100FE000018D200D01801FFC00841EED00971DDF88
:100FF00000B81CD200E61BC600201BBC00641AB25D
:1010000000B219A8000A19A0006A189900D1179116
:101010000040178B00B516840031167E00B3157999
:10102000003A157300C7146F0058146A00EE136677
:10103000008813630025135E00C7125B006C125713
:101040000015125400C111510070114F0021114BB5
:1010500000D61049008D104700461044000210428F
:1010600000C00F4000800F3E00420F3C00060F3BC7
:1010700000CB0E3800930E37005C0E3500270E347F
:1010800000F30D3200C10D3100900D3000600D2EC7
:1010900000320D2D00050D2C00D90C2B00AE0C29B3
:1010A00000850C29005C0C2700350C27000E0C264F
:1010B00000E80B2400C40B2400A00B23007D0B23AD
:1010C000005A0B2100390B2100180B2000F80A1FD1
:1010D00000D90A1E00BB0A1E009D0A1D00800A1DC1
:1010E00000630A1C00470A1B002C0A1B00110A1A85
:1010F00000F7091A00DD091900C4091900AB091924
:1011000000920917007B091800630917004C0916A3
:101110000036091600200916000A091500F5081501
:1011200000E0081400CC081400B8081400A4081447
:1011300000900813007D0812006B08130058081275
:10114000004608120034081100230811001208118B
:101150000001081100F0071000E0071000D0071090
:1011600000C0071000B0070F00A107100091070E84
:101170000083070F0074070F0065070E0057070E66
:101180000049070E003B070D002E070E0020070D3B
:101190000013070D0006070D00F9060C00ED060D03
:1011A00000E0060C00D4060C00C8060C00BC060CBF
:1011B00000B0060C00A4060B0099060C008D060B6F
:1011C0000082060B0077060B006C060B0061060A16
:1011D0000057060B004C060A0042060A0038060AB1
:1011E000002E060A0024060A001A060A0010060944
:1011F0000007060A00FD050900F4050900EB0509D2
:1012000000E2050900D9050900D0050900C7050954
:1012100000BE050900B5050800AD050800A50509D3
:10122000009C050800940508008C0508008405084A
:10123000007C050800740508006C050700650508BA
:10124000005D050700560508004E05070047050725
:10125000004005080038050700310507002A05078A
:1012600000230507001C050600160507000F0507EB
:10127000000805060002050700FB040600F5040748
:1012800000EE040600E8040600E2040700DB0406A2
:1012900000D5040600CF040600C9040600C30406F6
:1012A00000BD040600B7040600B1040500AC040646
:1012B00000A6040600A00405009B04060095040592
:1012C00000900406008A04050085040500800406D9
:1012D000007A04050075040500700405006B040520
:1012E0000066040500610405005C04050057040560
:1012F00000520405004D04050048040500430405A0
:10130000003E0404003A04050035040500300404DE
:10131000002C04050027040400230405001E040417
:10132000001A04040016040500110404000D04044E
:1013300000090405000404040000040400FC030484
:1013400000F8030400F4030400F0030400EC0304B9
:1013500000E8030400E4030400E0030400DC0304E9
:1013600000D8030400D4030400D0030400CC030419
:1013700000C8030300C503030024F404D9201BC4E0
:101380000C5C0E9804C4095F0265077101F405F94D
:1013900000FB04B30048048700C1036900580355EB
:1013A0000003034500BE023A008402310053022AC2
:1013B000002902250004022000E4011C00C80119D4
:1013C00000AF01170098011400840113007101108F
:1013D000006101100051010E0043010D0036010BA8
:1013E000002B010B0020010B00150109000C010965
:1013F0000003010800FB000800F3000800EB0007F1
:1014000000E4000600DE000600D8000600D2000658
:1014100000CC000500C7000500C2000500BD0004A7
:1014200000B9000400B5000400B1000400AD0004E0
:1014300000A9000400A5000300A20003009F00040F
:10144000009B000300980003009500020093000336
:1014500000900003008D0002008B00030088000252
:10146000008600020084000300810002007F000269
:10147000007D0002007B000200790002007700017D
:101480000076000200740002007200010071000288
:10149000006F0002006D0001006C0002006A000194
:1014A000006900020067000100660001006500019C
:1014B00000640002006200010061000100600001A0
:1014C000005F0002005D0001005C0001005B0001A4
:1014D000005A0001005900010058000100570001A6
:1014E00000560001005500010054000100530000A7
:1014F00000530001005200010051000100500001A2
:10150000004F0001004E0000004E0001004D0001A0
:10151000004C0001004B0000004B0001004A00019C
:101520000049000100480000004800010047000198
:101530000046000000460001004500000045000193
:10154000004400010043000000430001004200008D
:101550000042000100410000004100010040000184
:10156000003F0000003F0001003E0000003E00017F
:10157000003D0000003D0001003C0000003C000078
:10158000003C0001003B0000003B0001003A00006D
:10159000003A000100390000003900010038000065
:1015A000003800000038000100370000003700015B
:1015B0000036000000360000003600010035000053
:1015C0000035000000350001003400000034000048
:1015D000003400010033000000330000003300013C
:1015E0000032000000320000003200010031000033
:1015F0000031000000310001003000000030000028
:1016000000300001002F0000002F0000002F00001C
:10161000002F0001002E0000002E0000002E00010F
:10162000002D0000002D0000002D0000002D000105
:10163000002C0000002C0000002C0000002C0001F9
:10164000002B0000002B0000002B0000002B0001ED
:10165000002A0000002A0000002A0000002A0001E1
:1016600000290000002900000029000000290000D6
:1016700000290001002800000028000000280000C8
:1016800000280000002800010027000000270000BB
:1016900000270000002700000027000100260000AE
:1016A00000260000002600000026000000260001A1
:1016B0000025000000250000002500000025000096
:1016C0000025000000250001002400000024000087
:1016D000002400000024000000240001002300007A
:1016E000002300000023000000230000002300006E
:1016F000002300000023000100220000002200005F
:101700000022000000220000002200000022000150
:101710000021000000210000002100000021000045
:101720000021000000210000002100010020000035
:101730000020000000200000002000000020000029
:10174000002000000020000000200001001F000019
:10175000001F0000001F0000001F0000001F00000D
:10176000001F0000001F0001001E0000001E0000FE
:10177000001E0000001E0000004D494E54454D5013
:1017800020747269676765726564004572723A20F9
:101790004D494E54454D5020424544004D4158540A
:1017A000454D5020747269676765726564004572C3
:1017B000723A204D415854454D5020424544005402
:1017C0006865726D616C2052756E61776179005445
:1017D0004845524D414C2052554E415741590048C1
:1017E000656174696E67206661696C65640048654F
:1017F0006174696E67206661696C6564004D494E6D
:1018000054454D5020747269676765726564004580
:1018100072723A204D494E54454D50006265640045
:101820002C2073797374656D2073746F70706564A8
:1018300021204865617465725F49443A20004D413A
:101840005854454D5020747269676765726564002D
:101850004572723A204D415854454D50004B64201A
:101860000023646566696E65202044454641554CF9
:10187000545F004B69200023646566696E65202013
:1018800044454641554C545F004B7020002364652D
:1018900066696E65202044454641554C545F0050B2
:1018A0004944204175746F74756E652066696E6970
:1018B00073686564212050757420746865206C61BC
:1018C0007374204B702C204B6920616E64204B6434
:1018D00020636F6E7374616E74732066726F6D2017
:1018E00062656C6F7720696E746F20436F6E6669F6
:1018F0006775726174696F6E2E68005049442041AB
:1019000075746F74756E65206661696C65642120FD
:1019100074696D656F757400504944204175746F2A
:1019200074756E65206661696C6564212054656D0F
:10193000706572617475726520746F6F2068696775
:101940006800204B643A2000204B693A2000204B6D
:10195000703A200020436C617373696320504944DE
:1019600020002054753A2000204B753A2000206D4D
:1019700061783A2000206D696E3A200020643A2098
:101980000020626961733A200000000000300E01FF
:1019900000C00E0A00500F1400D00F1E0060102867
:1019A00000E010320070113C00F01146007012503F
:1019B0000000135A008013640000146E0090147825
:1019C000001015820090158C00101696009016A03D
:1019D000001017AA009017B4001018BE009018C885
:1019E000001019D2009019DC00101AE600801AF0DD
:1019F00000001BFA00801B0401F01B0E01701C1874
:101A000001F01C2201601D2C01E01D3601501E401A
:101A100001D01E4A01401F5401B01F5E01302068F2
:101A200001A020720110217C0190218601002290EA
:101A3000016026F401902A5802802EBC0250322008
:101A400003E03584035039E803803C4C041000C99E
:101A50000210012C014001220170011801B0010E99
:101A600001F00104015002FA00B002F0003003E678
:101A700000D003DC009004D2007005C800A006BEB0
:101A8000000008B400B009AA00D00BA000600E96B8
:101A90000060118C000015820020197800C01D6EB6
:101AA00000A0226400B0275A00902C50000031465C
:101AB00000E0343C0010383200903A2800603C1EB0
:101AC00000A03D1400803E0A00203F0000436172E8
:101AD000642072656D6F766564004361726420698D
:101AE0006E736572746564004D3432380020003FB7
:101AF000000920005A0059005800466C6F770046D4
:101B00006C6F770046616E20737065656400466196
:101B10006E20737065656400426564004265640010
:101B20004E6F7A7A6C65004E6F7A7A6C650042650A
:101B300064205A00426564205A0053706565640051
:101B40005370656564004D61696E004E6578742060
:101B5000506F696E74002569202F202575004C6533
:101B600076656C696E6720446F6E6521004D6F76F7
:101B700065205A0047323800436C69636B20746FEC
:101B800020426567696E00486F6D696E672058591D
:101B90005A00473238004C6576656C2062656400F7
:101BA00043616E63656C004D6F76652058004D6F24
:101BB00076652059004D6F7665205A00457874721D
:101BC00075646572004578747275646572004D6F56
:101BD0007665205A004D6F76652059004D6F766509
:101BE0002058004D6F76652061786973004D6F76DF
:101BF0006520302E316D6D004D6F766520316D6D35
:101C0000004D6F76652031306D6D005072657061EA
:101C10007265005072656865617420504C412042C5
:101C20006564005072656865617420504C410050D5
:101C300072657061726500507265686561742041FB
:101C400042532042656400507265686561742041AA
:101C500042530050726570617265004D3830005318
:101C6000776974636820706F776572206F6E004DBE
:101C700038310053776974636820706F776572201C
:101C80006F666600436F6F6C646F776E00507265AD
:101C900068656174204142530050726568656174E3
:101CA00020504C41004D38340044697361626C65CA
:101CB000207374657070657273004D6F7665206176
:101CC000786973004C6576656C20626564005365C5
:101CD0007420686F6D65206F666673657473004766
:101CE0003238004175746F20686F6D65004D616911
:101CF0006E0053746F7265206D656D6F727900426E
:101D0000656400426564004E6F7A7A6C65004E6FC0
:101D10007A7A6C650046616E207370656564004672
:101D2000616E2073706565640054656D70657261E5
:101D3000747572650053746F7265206D656D6F7296
:101D4000790042656400426564004E6F7A7A6C6582
:101D5000004E6F7A7A6C650046616E20737065651F
:101D6000640046616E2073706565640054656D7033
:101D70006572617475726500507265686561742082
:101D800041425320636F6E660050726568656174EE
:101D900020504C4120636F6E66005049442D430033
:101DA0005049442D43005049442D44005049442D8E
:101DB00044005049442D49005049442D49005049A0
:101DC000442D50005049442D5000200820466163A6
:101DD000740020082046616374002008204D61785B
:101DE000002008204D6178002008204D696E0020F9
:101DF00008204D696E004175746F74656D70004FF9
:101E00006666004F6E200046616E207370656564E3
:101E10000046616E2073706565640042656400422F
:101E20006564004E6F7A7A6C65004E6F7A7A6C65E5
:101E300000436F6E74726F6C004573746570732F1E
:101E40006D6D004573746570732F6D6D005A7374FA
:101E50006570732F6D6D005A73746570732F6D6D9F
:101E6000005973746570732F6D6D005973746570CC
:101E7000732F6D6D005873746570732F6D6D0058FE
:101E800073746570732F6D6D00412D74726176658A
:101E90006C00412D74726176656C00412D72657421
:101EA0007261637400412D726574726163740041E4
:101EB0006D6178204500416D6178204500416D617C
:101EC00078205A00416D6178205A00416D61782078
:101ED0005900416D6178205900416D6178205800AA
:101EE000416D61782058005654726176206D696E9C
:101EF000005654726176206D696E00566D696E00F1
:101F0000566D696E00566D6178204500566D61789A
:101F1000204500566D6178205A00566D6178205A30
:101F200000566D6178205900566D61782059005631
:101F30006D6178205800566D617820580056652DE7
:101F40006A65726B0056652D6A65726B00567A2D54
:101F50006A65726B00567A2D6A65726B00567879E5
:101F60002D6A65726B005678792D6A65726B004137
:101F70006363656C00416363656C00426564205A6D
:101F800000426564205A00436F6E74726F6C0046A5
:101F9000696C2E204469612E0046696C2E204469CC
:101FA000612E004520696E206D6D33004F6666001E
:101FB0004F6E2000436F6E74726F6C0052657374C5
:101FC0006F7265206661696C73616665004C6F6154
:101FD00064206D656D6F72790053746F7265206D4A
:101FE000656D6F72790046696C616D656E74004D48
:101FF0006F74696F6E0054656D706572617475728F
:1020000065004D61696E00022E2E004D61696E0003
:102010004E6F2053442063617264005072696E7485
:102020002066726F6D2053440053746F702070727D
:10203000696E7400526573756D65207072696E7497
:10204000005061757365207072696E7400436F6E25
:1020500074726F6C00507265706172650054756EB9
:102060006500496E666F2073637265656E000006D9
:102070000900FE070192032120FFFF08FF07FF0070
:1020800000000600000107070602008080808080B3
:102090000080030202060105A0A005070706000054
:1020A0005050F850F850500507070600002078A05F
:1020B0007028F020050707060000C0C810204098CF
:1020C000180507070600006090A040A8906802036A
:1020D00003060104C040800307070601002040807A
:1020E0008080402003070706010080402020204018
:1020F0008005050506000120A870A8200505050635
:1021000000012020F820200203030602FFC04080C7
:10211000050101060003F8020202060200C0C00524
:10212000050506000108102040800507070600008D
:102130007088888888887003070706010040C040BF
:10214000404040E005070706000070880870808066
:10215000F8050707060000F81020100808F005072A
:102160000706000010305090F81010050707060011
:1021700000F880F0080888700507070600007080E6
:1021800080F0888870050707060000F808102020F6
:102190002020050707060000708888708888700571
:1021A0000707060000708888780808700205050691
:1021B0000200C0C000C0C00206060602FFC0C00088
:1021C000C040800407070600001020408040201017
:1021D000050303060002F800F80407070601008063
:1021E0004020102040800507070600007088081076
:1021F00020002005070706000070880868A8A8705E
:10220000050707060000708888F888888805070792
:10221000060000F08888F08888F0050707060000AF
:1022200070888080808870050707060000F0888825
:10223000888888F0050707060000F88080F0808015
:10224000F8050707060000F88080F0808080050709
:1022500007060000708880B88888700507070600A8
:1022600000888888F888888801070706020080802F
:10227000808080808005070706000038101010104D
:1022800090600507070600008890A0C0A090880510
:102290000707060000808080808080F80507070619
:1022A000000088D8A8888888880507070600008865
:1022B00088C8A8988888050707060000708888885D
:1022C000888870050707060000F08888F080808005
:1022D00005070706000070888888A890680507072A
:1022E000060000F08888F0A0908805070706000027
:1022F000788080700808F0050707060000F82020A5
:102300002020202005070706000088888888888804
:102310007005070706000088888888885020050710
:10232000070600008888888888A8500507070600E7
:102330000088885020508888050707060000888894
:102340008850202020050707060000F808102040CC
:1023500080F8030707060100E08080808080E005A8
:10236000050506000180402010080307070601004C
:10237000E02020202020E0050303060004205088F0
:10238000050101060000F802020206020580400570
:102390000505060000700878887805070706000024
:1023A0008080B0C88888F005050506000070808030
:1023B000887005070706000008086898888878056F
:1023C00005050600007088F8807005070706000004
:1023D0003048E0404040400506060600FF7088880F
:1023E0007808700507070600008080B0C8888888D4
:1023F00001070706020080008080808080030808B3
:102400000601FF200020202020A04004070706002E
:1024100000808090A0C0A090030707060100C04084
:1024200040404040E0050505060000D0A8A8A8A847
:10243000050505060000B0C8888888050505060062
:102440000070888888700506060600FFF08888F00E
:1024500080800506060600FF78888878080805054C
:1024600005060000B0C880808005050506000070E4
:10247000807008F00407070600004040E04040403C
:10248000300505050600008888889868050505065A
:10249000000088888850200505050600008888A867
:1024A000A85005050506000088502050880506063E
:1024B0000600FF888888780870050505060000F882
:1024C000102040F8030707060100204040804040EC
:1024D000200107070602008080808080808003073B
:1024E00007060100804040204040800502020600AF
:1024F00002689000000006000000000006000000D6
:1025000000000600000000000600000000000600B9
:1025100000000000060000000000060000000000AF
:102520000600000000000600000000000600000099
:102530000000060000000000060000000000060089
:10254000000000000600000000000600000000007F
:102550000600000000000600000000000600000069
:102560000000060000000000060000000000060059
:10257000000000000600000000000600000000004F
:102580000600000000000600000000000600000039
:102590000000060000000000060000000000060029
:1025A000000000000600000000000600000000001F
:1025B0000600000000000600000000000600000108
:1025C00007070602008000808080808005070706DC
:1025D00000002070A8A0A8702005070706000030A2
:1025E0004040E04050A80505050600008870507086
:1025F00088050707060000885020F820F82001070A
:1026000007060200808080008080800508080600A0
:10261000003048205050209060030101060107A0BF
:10262000050707060000F888B8B8B888F805070756
:10263000060001700878887800F805050506000195
:102640002850A05028050303060001F808080202DC
:10265000020602064080050707060000F888A888E1
:1026600098A8F8050101060006F804040406000312
:10267000609090600507070600002020F8202000E9
:10268000F804050506000360902040F003050506E8
:102690000003E020E020E00202020602064080057E
:1026A00008080600FF8888888898E8808005070762
:1026B000060000789898781818180202020602029C
:1026C000C0C00202020602FF4080030505060003A7
:1026D00040C04040E0050707060001708888887008
:1026E00000F8050505060001A0502850A0050707C1
:1026F0000600008890A858B80808050707060000DB
:102700008890B848982038050808060000C040C0E6
:1027100048D8380808050707060000200020408038
:1027200088700508080600004020007088F8888836
:102730000508080600001020007088F88888050841
:10274000080600002050007088F8888805080806F0
:1027500000006890007088F8888805080806000066
:102760005000708888F88888050808060000205006
:10277000207088F888880507070600003860A0B830
:10278000E0A0B80508080600FF70888080887020E7
:1027900060050808060000402000F880F080F80579
:1027A0000808060000081000F880F080F805080806
:1027B000060000205000F880F080F80507070600AA
:1027C000005000F880F080F80308080601008040FF
:1027D00000E0404040E0030808060100204000E01F
:1027E000404040E003080806010040A000E04040EF
:1027F00040E0030707060100A000E0404040E0057C
:102800000707060000704848E848487005080806B1
:10281000000068900088C8A898880508080600008D
:1028200040207088888888700508080600001020FD
:10283000708888888870050808060000205000709D
:1028400088888870050808060000689000708888ED
:102850008870050808060000500070888888887015
:102860000505050600018850205088050808060067
:10287000FF1070A8A8A8A87040050808060000402E
:10288000208888888888700508080600001020883D
:10289000888888887005080806000020500088880D
:1028A0008888700508080600005000888888888895
:1028B0007005080806000010208850202020200500
:1028C00009090600FFC040704848704040E0040815
:1028D000080601FF609090A09090E080050808062F
:1028E000000040200070087888780508080600007D
:1028F000102000700878887805080806000020502D
:102900000070087888780508080600006890007054
:102910000878887805070706000050007008788856
:10292000780508080600002050207008788878058F
:102930000606060000D02878A0A850050606060066
:10294000FF708088702060050808060000402000A5
:102950007088F88070050808060000102000708854
:10296000F880700508080600002050007088F88084
:102970007005070706000050007088F88070030893
:102980000806010080400040C04040E003080806FF
:10299000010020400040C04040E00308080601005C
:1029A00040A00040C04040E0030707060100A0002F
:1029B00040C04040E0050707060000A040A0107896
:1029C0008870050808060000689000B0C8888888EC
:1029D00005080806000040200070888888700508F7
:1029E0000806000010200070888888700508080616
:1029F00000002050007088888870050808060000D4
:102A000068900070888888700507070600005000ED
:102A100070888888700505050600012000F80020F0
:102A20000507070600FF1070A8A8A8704005080851
:102A3000060000402000888888986805080806007D
:102A40000010200088888898680508080600002083
:102A5000500088888898680507070600005000889D
:102A6000888898680509090600FF10200088888872
:102A7000F808700407070601FFC04060506040E09E
:102A80000508080600FF500088888878087000064E
:102A90000900FE000000000001090008FE0000051A
:102AA000080806000040F0C88888987810050808D3
:102AB000060000C0F88888888888F80505050600A3
:102AC000012030F830200508080600002070F820AA
:102AD000202020E00509090600FF2070A8A8B8887A
:102AE0008870200509090600FFE080C0B0A82830E2
:102AF00028280509090600FFF8A88888888888A87A
:102B0000F8050A0A0600FE205050505088A8A888F0
:102B10007003030306000340A04000000000000013
:102B20000000000000007FFFE00000000000000047
:102B300000000000007000E0000000000000000045
:102B40000000000061F860000000000000000000CC
:102B500000000041F820000000000000000000001C
:102B6000000040F020000000000000000000000015
:102B70000040602000000000000000000000000095
:102B80005801A07F80000000000000004104005CAC
:102B900063A0FFC0000000000000002082005EF77C
:102BA000A0FFC0000000000000002082005EF7A02F
:102BB000FFC0000000000000004104005C63A07F33
:102BC00080000000000000008208005801A07F8003
:102BD00000000000000001041000406020FFC00061
:102BE00000000000000104100040F020FFC00000C1
:102BF000000000000082080041F820FFC000000033
:102C00000000000041040061F8603F000000000087
:102C10000000000000007000E01E00000000000046
:102C20000001FFFF807FFFE00C00000000000000BB
:102C300001FFFF8000000000000000000000000015
:102C40000000007FFFE00000000000000000000026
:102C500000007000E0000000000000000000000024
:102C600000630C6000000000000000000000000095
:102C7000470E200000000000000000000000004F90
:102C80000F200000000000000000000000005F0FA7
:102C9000A00000000000000000000000005E07A08F
:102CA0007F8000000000000000410400406020FF21
:102CB000C00000000000000020820040F020FFC0A3
:102CC0000000000000000020820040F020FFC00053
:102CD0000000000000004104004060207F800000F0
:102CE00000000000008208005E07A07F8000000056
:102CF000000000010410005F0FA0FFC000000000F2
:102D00000000010410004F0F20FFC0000000000071
:102D10000000820800470E20FFC0000000000000F5
:102D200000410400630C603F000000000000000050
:102D30000000007000E01E0000000000000001FF25
:102D4000FF807FFFE00C0000000000000001FFFF9B
:102D500080000000FFFFFF800FFC0F81F80FFC00D8
:102D6000F81E0FFFFFFF800FFF0F83FE0FFF03FE14
:102D70001E0FFFFFFF800FFF0F87FF0FFF07FF1FD3
:102D80001FE00003800FFF8F8FFF0FFF87FF0F1ED5
:102D9000E00003800F8F8F8F8F8F8F8F8F8F1EE0BC
:102DA0003E03800F8F8F8F8F8F8F8F8F87BCE03E7A
:102DB00003800F8F8F8F8F8F8F8F8F87BCE03E03A5
:102DC000800F8F8F8F8F8F8F8F8F87FCE03E0380D8
:102DD0000FFF8F8F8F8FFF8F8F83F8E03E03800F61
:102DE000FF0F8F800FFF0F8F83F8E01C03800FFC15
:102DF0000F8F800FFC0F8F83F8E00803800FFF0F09
:102E00008F9F8FFF0F8F83F8E00003800FFF8F8F5E
:102E10009F8FFF8F8F83F8E00003800F8F8F8F9F2E
:102E20008F8F8F8F87FCE00003800F8F8F8F8F8FA6
:102E30008F8F8F87BCE00003800F8F8F8F8F8F8FD6
:102E40008F8F87BCE00003800F8F8F8F8F8F8F8FC6
:102E50008F873CE00003800F8F8F8F8F8F8F8F8F36
:102E60008F1EE00003800F8F8F8F8F8F8F8F8F8F3C
:102E70001EE00003800FFF8F8FFF8FFF87FF0F1E65
:102E8000E00003800FFF8F87FF8FFF87FF1F1FE08A
:102E90000003800FFF0F83FB8FFF03FE1E0FE00078
:102EA00003800FFE0F81F38FFE00F81E0FE000037A
:102EB000800000000000000000000000E00003802F
:102EC0000000000000000000000000E0000380009F
:102ED00000000000000000000000E7FFF380000099
:102EE000000000000000000000E7FFF38000000089
:102EF0000000000000000000E0000380000000006F
:102F000000000000000000E000038000000000005E
:102F1000000000000000E00003800000000000004E
:102F20000000000000FFFFFF800000000000000024
:102F300000000000FFFFFF80000000000000000014
:102F4000000000FFFFFF8000000000000000000004
:102F5000000000000A0B02090C0D0E080703040113
:102F60000000000000000000000000000000000061
:102F7000000000000000000000000000000012112E
:102F80001000000000000000000000000000000031
:102F900000000000000000000102102020080810BE
:102FA00020401020408002010201080402010102B9
:102FB0000408102040808040201008040201800492
:102FC00002018040201008040201080402010102ED
:102FD00004081020408001020408102040800505EC
:102FE0000505070508080808020202020A0A08087F
:102FF00004040404010101010101010103030303AD
:1030000003030303040707070C0C0C0C0C0C0C0C3B
:103010000202020206060606060606060B0B0B0B4C
:103020000B0B0B0B000020002300260029002C00B6
:103030002F00320000010000030106010901000019
:103040002200250028002B002E0031003400020150
:103050000000050108010B010000210024002700E9
:103060002A002D0030003300010100000401070197
:103070000A014E414E494E495459494E46CDCCCC99
:103080003D0AD7233C17B7D13877CC2B329595E63C
:10309000241FB14F0A000020410000C84200401C1C
:1030A0004620BCBE4CCA1B0E5AAEC59D74003C4A9D
:1030B0003671C1D8444A11241FBECFEFD1E2DEBF22
:1030C000CDBF00E00CBF14E0A0E0B2E0E0E1FAED1B
:1030D00001E00BBF02C007900D92AC34B107D9F7E5
:1030E00026E1ACE4B4E001C01D92A332B207E1F7DF
:1030F00010E3C4EBD0E300E006C022970109FE0113
:103100000BBF0E94C2E6CE3AD10780E00807A9F7BC
:103110000E94A0E10C94F7EC0C9400001F920F9217
:103120000FB60F9211240BB60F922F933F938F93EC
:103130009F93EF93FF932091C6009FB7F894E0917F
:10314000CD0481E08E0F8F773091CE04831731F05C
:10315000F0E0E35BFB4F20838093CD049FBFFF91A2
:10316000EF919F918F913F912F910F900BBE0F90F8
:103170000FBE0F901F9018959A01AB01211581EE9B
:1031800038074105510549F182E08093C00060E0B5
:1031900079E08DE390E00E947BE6215031094109FE
:1031A0005109CA01B90122E030E040E050E00E943C
:1031B0007BE63093C5002093C4008091C1008061FC
:1031C0008093C1008091C10088608093C10080918C
:1031D000C10080688093C10008951092C00020E172
:1031E00030E0E7CF3FB7F8942091CE048091CD0432
:1031F000821759F0E22FF0E0E35BFB4F808190E013
:103200002F5F2F772093CE0402C08FEF9FEF3FBF39
:1032100008958FB7F8949091CE049093CD048FBF0A
:1032200008954F925F926F927F928F929F92AF928A
:10323000BF92CF92DF92EF92FF920F931F93CF93A3
:10324000DF93CDB7DEB7A0970FB6F894DEBF0FBE01
:10325000CDBF5C014115510561057105E9F420E020
:1032600030E040E350E060E070E0A0960FB6F894E4
:10327000DEBF0FBECDBFDF91CF911F910F91FF90A9
:10328000EF90DF90CF90BF90AF909F908F907F9006
:103290006F905F904F905BC08E010F5F1F4FC12CEE
:1032A000D12C76014801422E512C612C712C8FEFCC
:1032B000C81AD80AE80AF80ACB01BA01A301920198
:1032C0000E9459E6CA01F80161938F01A901BC016E
:1032D000411551056105710551F7F1E0CF1AD1088B
:1032E000E108F108F401EC0DFD1D80818A3010F435
:1032F00040E301C047E3480F552747FD5095652F30
:10330000752F20E030E0C50122D081E0C81AD10835
:10331000E108F108EFEFCE16DE06EE06FE0611F725
:10332000A0960FB6F894DEBF0FBECDBFDF91CF9150
:103330001F910F91FF90EF90DF90CF90BF90AF90D3
:103340009F908F907F906F905F904F900895211580
:10335000310539F48091C00085FFFCCF4093C60051
:1033600008952A30310509F41CC05BCFCF93DF9359
:10337000EC0120E030E04DE050E060E070E0E7DF9D
:1033800020E030E04AE050E060E070E0CE01DF9104
:10339000CF91DDCF9A01AB01662757FD6095762F5F
:1033A000D6CFCF92DF92EF92FF92CF93DF93EC01D3
:1033B0006A017B0177FF0FC020E030E04DE250E072
:1033C00060E070E0C4DFF094E094D094C094C11C3D
:1033D000D11CE11CF11C2AE0B701A601CE01DF914E
:1033E000CF91FF90EF90DF90CF901BCF211531054B
:1033F00039F48091C00085FFFCCF4093C60008954A
:1034000010CF9A01462F50E060E070E0EFCFCF93ED
:10341000DF93EC019A01AB0160E070E0E7DFCE01E1
:10342000DF91CF91A3CF8F929F92AF92BF92CF9215
:10343000DF92EF92FF921F93CF93DF93EC016A012B
:103440007B01122F20E030E0A901C701B6010E94E4
:1034500088E287FF0CC020E030E04DE250E060E001
:1034600070E0CE0174DFF7FAF094F7F8F094B12C25
:1034700060E070E080E09FE3B11641F020E030E0D2
:1034800040E251E40E948FE2B394F6CF9B01AC017D
:10349000C701B6010E94AFE16B017C010E94FCE212
:1034A0004B015C010E9428E39B01AC01C701B601FE
:1034B0000E94AEE16B017C012AE0B501A401CE01BE
:1034C000B0DE112341F020E030E04EE250E060E059
:1034D00070E0CE013CDF112319F120E030E040E242
:1034E00051E4C701B6010E945DE56B017C010E94B9
:1034F000F7E24B01AA2497FCA094BA2CB501A401D1
:10350000CE014FDFC501B4010E942AE39B01AC014B
:10351000C701B6010E94AEE16B017C011150DBCF07
:10352000DF91CF911F91FF90EF90DF90CF90BF90F0
:10353000AF909F908F90089576CFFC016591759123
:10354000859194910895CF92DF92EF92FF920F931D
:103550001F93CF93DF93EC01CC0FDD1FCC0FDD1F4A
:10356000FE01E659FA4FDE01AA58BA4F2D913D915E
:103570004D915C9160817181828193810E94AFE164
:103580006B017C01CE018E50964FD7DF8E01025A1F
:103590001A4FA70196010E94AFE1F8016083718381
:1035A00082839383CE018A51964FC7DFCB5EDD4F76
:1035B000A70196010E94AFE1688379838A839B8388
:1035C000DF91CF911F910F91FF90EF90DF90CF90FF
:1035D0000895CF92DF92EF92FF921F93CF93DF93E4
:1035E0006B017C01C1E0D0E011E91C9FB0011D9F7F
:1035F000700D11246B5F7F4F882777FD8095982F82
:103600000E942AE39B01AC01C701B6010E948BE432
:10361000181624F4219761F0C2E0D0E0CE010197A2
:10362000DF91CF911F91FF90EF90DF90CF900895A1
:10363000C2E0D0E0DACFCF92DF92EF92FF921F93F9
:10364000CF93DF936B017C01C1E0D0E01FE51C9FAD
:10365000B0011D9F700D11246B5F7F4F882777FD90
:103660008095982F0E942AE39B01AC01C701B60107
:103670000E948BE4181624F4219761F0C2E0D0E098
:10368000CE010197DF91CF911F91FF90EF90DF90D6
:10369000CF900895C2E0D0E0DACF0E94FCDE6093C4
:1036A0004F057093500580935105909352050895EE
:1036B000FC012491222341F03091C00035FFFCCF62
:1036C0002093C6000196F4CF4AE050E08CE494E0E9
:1036D00061CEFC012491222341F03091C00035FFDE
:1036E000FCCF2093C6000196F4CF22E030E08CE4BA
:1036F00094E022CFFC012491222341F03091C000BC
:1037000035FFFCCF2093C6000196F4CF2AE030E0CD
:103710008CE494E06BCE20910B0730910C07F901FB
:10372000E65CFA4F8083C901019664E070E00E9474
:1037300046E690930C0780930B07809109079091C0
:103740000A07019690930A07809309070895CF937B
:10375000FC01C62F80818B33D9F02091090730916D
:103760000A0724303105A4F440910B0750910C074F
:1037700080E6849F9001859F300D1124BF01C9010F
:1037800087579A4F0E94F8E98C2FC5DF81E001C06E
:1037900080E0CF910895CF93DF93D82FC92FD7DF43
:1037A000882309F43CC0EEEFF9E08491882341F0CE
:1037B0009091C00095FFFCCF8093C6003196F5CF65
:1037C000E2EBF9E08491882341F09091C00095FFED
:1037D000FCCF8093C6003196F5CFED2FFC2F819161
:1037E000882339F09091C00095FFFCCF8093C600EC
:1037F000F6CFE0EBF9E08491882341F09091C0008E
:1038000095FFFCCF8093C6003196F5CF8091C00024
:1038100085FFFCCF8AE08093C60081E001C080E094
:10382000DF91CF910895DF92EF92FF920F931F9354
:10383000CF93DF93CDB7DEB76E970FB6F894DEBFA8
:103840000FBECDBF60915305709154056115710590
:1038500059F14DE150E08E010F5F1F4FC8010E94EA
:1038600087E91E8EF8017F01E01AF10AD190DD2070
:1038700019F08AE0D812F7CFF801EE0DFF1D108283
:1038800060E0C80188DF882379F0DD20B1F08FEF98
:10389000E81AF80A80915305909154058E0D9F1DEA
:1038A000909354058093530581E020915305309106
:1038B0005405232B39F480E005C010925405109272
:1038C0005305F2CF6E960FB6F894DEBF0FBECDBF94
:1038D000DF91CF911F910F91FF90EF90DF900895AE
:1038E00090935405809353059ECFEAE0F1E08081E8
:1038F000877F80839FB7F894EBE0F1E08081886058
:1039000080839FBF0895EAE0F1E080818061808339
:103910009FB7F894EBE0F1E080818F7E80839FBFBA
:103920000895E3DFF0DF40E054E863E070E08CE40A
:1039300094E022DCEAEAF9E08491882341F0909156
:10394000C00095FFFCCF8093C6003196F5CF8091E3
:10395000C00085FFFCCF8AE08093C600EEEFF9E05F
:103960008491882341F09091C00095FFFCCF809313
:10397000C6003196F5CF84B780FF14C0E2EAF9E0C3
:103980009491992341F02091C00025FFFCCF9093A2
:10399000C6003196F5CF9091C00095FFFCCF9AE01C
:1039A0009093C60081FF14C0E2E9F9E09491992355
:1039B00041F02091C00025FFFCCF9093C6003196C6
:1039C000F5CF9091C00095FFFCCF9AE09093C60090
:1039D00082FF14C0E1E8F9E09491992341F020912D
:1039E000C00025FFFCCF9093C6003196F5CF909193
:1039F000C00095FFFCCF9AE09093C60083FF14C0EF
:103A0000E1E7F9E09491992341F02091C00025FF6E
:103A1000FCCF9093C6003196F5CF9091C00095FFF2
:103A2000FCCF9AE09093C60085FF14C0E1E6F9E070
:103A30008491882341F09091C00095FFFCCF809342
:103A4000C6003196F5CF8091C00085FFFCCF8AE09B
:103A50008093C60014BEEAE5F9E08491882341F022
:103A60009091C00095FFFCCF8093C6003196F5CFB2
:103A7000EBE4F9E08491882341F09091C00095FF38
:103A8000FCCF8093C6003196F5CF8091C00085FFB2
:103A9000FCCF8AE08093C600EEEFF9E084918823A2
:103AA00041F09091C00095FFFCCF8093C600319605
:103AB000F5CFEBE3F9E08491882341F09091C000C9
:103AC00095FFFCCF8093C6003196F5CFEAE2F9E08E
:103AD0008491882341F09091C00095FFFCCF8093A2
:103AE000C6003196F5CFEEE1F9E08491882341F0EC
:103AF0009091C00095FFFCCF8093C6003196F5CF22
:103B0000E7E0F9E08491882341F09091C00095FFAF
:103B1000FCCF8093C6003196F5CF8091C00085FF21
:103B2000FCCF8AE08093C600ECEFF8E08491882314
:103B300041F09091C00095FFFCCF8093C600319674
:103B4000F5CFE0EFF8E08491882341F09091C00038
:103B500095FFFCCF8093C6003196F5CF8091C000D1
:103B600085FFFCCF8AE08093C600EEEFF9E08491F8
:103B7000882341F09091C00095FFFCCF8093C60050
:103B80003196F5CFE1EEF8E08491882341F09091F1
:103B9000C00095FFFCCF8093C6003196F5CF0E9400
:103BA0003D554AE050E0BC018CE494E0F3DBEAECE4
:103BB000F8E08491882341F09091C00095FFFCCFFC
:103BC0008093C6003196F5CF4AE050E060ED74E096
:103BD0008CE494E0DFDB8091C00085FFFCCF8AE0BD
:103BE0008093C60081E080933A0580933B058093E3
:103BF0003C0580933D050E94D76E0E94E2B60E946C
:103C00002D930E9482760E94C6D80C94EA8B2F9244
:103C10003F924F925F926F927F928F929F92AF925C
:103C2000BF92CF92DF92EF92FF920F931F93CF93A9
:103C3000DF93CDB7DEB7A0970FB6F894DEBF0FBE07
:103C4000CDBF80914807882309F42FC180910907CF
:103C500090910A07892B11F41092D20421E028A335
:103C60004091C4095091C5096091C6097091C70976
:103C70008091C0099091C109A091C209B091C30976
:103C8000481759076A077B0708F418A200E010E0FC
:103C90009CE3C92ED12CE12CF12C20E1222E2EE028
:103CA000322E412C512CCE0101963C018091090706
:103CB00090910A0704970CF0F8C028A12111F5C0D3
:103CC0008091D2048111F1C080911B0990911C094F
:103CD000A0911D09B0911E098093C4099093C50954
:103CE000A093C609B093C70983E199E00E940B4FE6
:103CF0008F8FA1E0A8A38090C4099090C509A090DF
:103D0000C609B090C7094091C0095091C10960919E
:103D1000C2097091C30984169506A606B70630F449
:103D200018A28F3FBFEF9B0721F47FC0EDE6F7E0BD
:103D300018C02F8D2A3009F47EC02D3009F47BC0C5
:103D4000233219F02A3309F090C02091D1042111B7
:103D50008CC06BC09091C00095FFFCCF8093C600D3
:103D6000319684918111F6CF8091C00085FFFCCF00
:103D70004AE04093C6008FE395E00E941A8D8FE3DE
:103D800095E00E94408D4C01A12CB12CC501B401DD
:103D9000A70196010E9459E6CA01B901A70196013F
:103DA0000E9459E67F936F93C501B401A20191016E
:103DB0000E9459E63F932F93A9E5B7E0BF93AF93D5
:103DC0007F926F920E941CEA0FB6F894DEBF0FBE7E
:103DD000CDBFEEEFF9E08491882341F09091C000CF
:103DE00095FFFCCF8093C6003196F5CFF30181910A
:103DF000882339F09091C00095FFFCCF8093C600D6
:103E0000F6CF8091C00085FFFCCF9AE09093C6006A
:103E100061E0C3010E9451B486E497E00E948D6581
:103E200061E086E497E00E941460AF8DA33219F43C
:103E3000B1E0B093D2041092D1040115110509F438
:103E400035CF80910B0790910C0720E6289FF00159
:103E5000299FF00D1124E00FF11FE757FA4F108250
:103E600080E059DC00E010E021CF0F35110508F0AB
:103E70001DCF4F8D4B3319F4A1E0A093D1042091B5
:103E8000D104211113CF20910B0730910C07B0E61C
:103E9000B29FF001B39FF00D1124E00FF11FE7571F
:103EA000FA4F80830F5F1F4F01CFA0960FB6F89493
:103EB000DEBF0FBECDBFDF91CF911F910F91FF905D
:103EC000EF90DF90CF90BF90AF909F908F907F90BA
:103ED0006F905F904F903F902F900895E09155051F
:103EE000F0915605218181E090E0203231F4019675
:103EF000DF01A80FB91F2C91F8CF2D3211F02B3212
:103F000029F40196DF01A80FB91F2C912E3219F464
:103F1000E80FF91F2181205381E02A3008F080E06A
:103F200008950F931F93CF93DF9300915505109140
:103F3000560565E470E0C8010E94E4E9EC01C8019F
:103F40000196209761F0188260E070E00E94C6E65A
:103F500025E42883DF91CF911F910F91089560E0B0
:103F600070E0DF91CF911F910F910C94C6E6809184
:103F70005505909156054AE050E060E070E00196EA
:103F80000C942EE880915505909156054AE050E03A
:103F900060E070E001960E942EE8CB010895682F42
:103FA000772767FD709580910F07909110070E9409
:103FB000E4E9909356058093550521E0892B09F497
:103FC00020E0822F08950F931F93CF93DF938C01EE
:103FD00084E5E5DF882361F1D5DFEC0118161906C9
:103FE0004CF5EEEFF9E08491882341F09091C00008
:103FF00095FFFCCF8093C6003196F5CF8091C0002D
:1040000085FFFCCF8DE48093C6004AE050E0B80104
:104010008CE494E0BFD9BE0186E497E049DB80914F
:10402000C00085FFFCCF8AE08093C60081E005C018
:1040300080915B0580933E0580E0DF91CF911F91D9
:104040000F9108950F931F93CF93DF9300D000D06B
:10405000CDB7DEB726E0EEEBF2E0DE01119601907F
:104060000D922A95E1F7FC01EE0FFF1F21E030E0F1
:104070002C0F3D1FE20FF31F60817181161617068A
:104080001CF1EEEFF9E02491222341F03091C000C1
:1040900035FFFCCF2093C6003196F5CFE1EBF6E07B
:1040A0002491222341F03091C00035FFFCCF2093B2
:1040B000C6003196F5CF2091C00025FFFCCF2AE045
:1040C0002093C6006AE070E08C01000F111F000F02
:1040D000111F02571C4F882777FD8095982F0E944B
:1040E0002AE39B01AC01F801608171818281938197
:1040F0000E948FE260932D0270932E0280932F0214
:104100009093300226960FB6F894DEBF0FBECDBF57
:10411000DF91CF911F910F9108958F929F92AF924F
:10412000BF92CF92DF92EF92FF920F931F9320E006
:1041300030E040E752E460912D0270912E028091B0
:104140002F02909130020E948FE24B015C01E090BF
:104150003907F0903A0700913B0710913C072091F6
:1041600035073091360740913707509138076091F5
:104170003107709132078091330790913407E091B5
:104180005B05EF93EDE3CE2EE7E0DE2E0E942D7867
:104190000F901F910F91FF90EF90DF90CF90BF9005
:1041A000AF909F908F9008958F929F92AF92BF9201
:1041B000CF92DF92EF92FF920F931F9320E030E0B7
:1041C00040E752E460912D0270912E0280912F02FF
:1041D000909130020E948FE24B015C01E090290730
:1041E000F0902A0700912B0710912C0720912507AA
:1041F00030912607409127075091280760912107A9
:10420000709122078091230790912407E0915B052C
:10421000EF93FDE2CF2EF7E0DF2E0E942D780F9076
:104220001F910F91FF90EF90DF90CF90BF90AF90D4
:104230009F908F900895CF92DF92EF92FF920F930D
:104240001F93E0903907F0903A0700913B071091D7
:104250003C07209135073091360740913707509140
:104260003807609131077091320780913307909140
:104270003407ADE3CA2EA7E0DA2E0E947B821F919D
:104280000F91FF90EF90DF90CF9008954F925F9243
:104290006F927F928F929F92AF92BF92CF92DF9256
:1042A000EF92FF920F931F93CF93DF938C01FC014A
:1042B000E154F64FF490EC01CC0FDD1FCC0FDD1F65
:1042C000CE018F5C984F5C01FC011082118212823A
:1042D0001382B1DFCE018253964F2FD92B013C01BF
:1042E0006F2D772767FD7095872F972F0E942AE300
:1042F0006B017C01CE018F5D984F4C0120E030E0D6
:1043000040EC5FE3C301B2010E945DE5A7019601A5
:104310000E945DE5F4016083718382839383FE01D3
:10432000E257FC4F80819181A281B38180932D025D
:1043300090932E02A0932F02B093300235DF0E949B
:104340007B8CF501108211821282138274DF80E06F
:104350000E94EE83CE018E53964F3C01EED89058CA
:10436000A70196010E945DE5F40160837183828359
:1043700093831ADF0E947B8C81E00E94EE83C80148
:1043800061DEC301DAD89B01AC010E94AFE1A70155
:1043900096010E945DE5F4016083718382839383BB
:1043A00003DF0E947B8CFE01EA58FA4F10821182D3
:1043B00012821382CE018652964FBFD8C659DA4F69
:1043C000288139814A815B810E94AFE1F5016083D8
:1043D000718382839383C801B6D82DDFF501808174
:1043E0009181A281B381F40180839183A283B383FD
:1043F00010922D0210922E0210922F021092300273
:104400000E94F683F801E25EF84F81E08083F801B4
:10441000E55EF84F8083DF91CF911F910F91FF9060
:10442000EF90DF90CF90BF90AF909F908F907F9054
:104430006F905F904F90089580E1E1E2F7E0A1E393
:10444000B7E001900D928A95E1F7089580E1E1E3EC
:10445000F7E0A1E2B7E001900D928A95E1F70895A7
:10446000CF92DF92EF92FF920F931F93CF93DF9340
:10447000CAE8EC2EC3E0FC2E01E217E0C1E3D7E06E
:1044800085E8C82E85E0D82EF70181917F0187DD70
:104490008823C9F046DDF6012081211104C0209156
:1044A0005A05222329F0288139814A815B8103C082
:1044B00020E030E0A9010E94AFE1F8016083718340
:1044C0008283938309C088819981AA81BB81F80185
:1044D00080839183A283B3830C5F1F4F2496FFEFE9
:1044E000CF1ADF0A8EE8E81683E0F80669F686E45C
:1044F00056DD882391F015DD6B017C0120E030E072
:10450000A9010E948BE4181644F4C0922D02D092A7
:104510002E02E0922F02F0923002DF91CF911F9194
:104520000F91FF90EF90DF90CF900895EEEFF9E0BC
:104530008491882341F09091C00095FFFCCF809337
:10454000C6003196F5CFE3E3F7E08491882341F08C
:104550009091C00095FFFCCF8093C6003196F5CFB7
:10456000E0911107F09112078191882339F0909121
:10457000C00095FFFCCF8093C600F6CFE0E3F7E0E4
:104580008491882341F09091C00095FFFCCF8093E7
:10459000C6003196F5CF0895CF92DF92EF92FF9249
:1045A0000E94FCDE6B017C0180910C02882309F4DF
:1045B00083C020913805309139052115310509F462
:1045C0007BC08091340590913505A0913605B0915E
:1045D0003705B701A601481B590B6A0B7B0B77FD0A
:1045E0007EC02330310579F03CF4213031050CF4E4
:1045F00063C0EEEFF9E011C02430310509F05CC072
:10460000EEEFF9E042C0EEEFF9E023C09091C00078
:1046100095FFFCCF8093C600319684918111F6CF2F
:10462000EFE1F7E08491882341F09091C00095FF7D
:10463000FCCF8093C6003196F5CF8091C00085FFF6
:10464000FCCF37C09091C00095FFFCCF8093C6008F
:10465000319684918111F6CFE9E0F7E084918823C7
:1046600041F09091C00095FFFCCF8093C600319639
:10467000F5CF8091C00085FFFCCF1BC09091C0009A
:1046800095FFFCCF8093C600319684918111F6CFBF
:10469000E2EFF6E08491882341F09091C00095FF0D
:1046A000FCCF8093C6003196F5CF8091C00085FF86
:1046B000FCCF8AE08093C60020910C0230E0A8EE87
:1046C000B3E00E949DE66C0D7D1D8E1D9F1D6093C5
:1046D0003405709335058093360590933705FF9028
:1046E000EF90DF90CF900895FF920F931F93CF9399
:1046F000DF9383E554DC8823B9F044DCFC0185308A
:104700009105A0F0EBE9F6E08491882341F09091C7
:10471000C00095FFFCCF8093C6003196F5CF809105
:10472000C00085FFFCCFE3C0E0E0F0E0E230F1053F
:1047300009F4C6C024F4319709F4B7C007C0E330C8
:10474000F10509F4EEC1349709F45DC28091E00BE4
:10475000811103C0EFE3F6E0A0C0E1E9F6E0849147
:10476000882341F09091C00095FFFCCF8093C60054
:104770003196F5CF4AE050E063E070E08CE494E0DD
:104780000E94CA198091C00085FFFCCF8CE2809303
:10479000C6004AE050E063E070E08CE494E00E94E0
:1047A000CA19EEE7F6E08491882341F09091C000A9
:1047B00095FFFCCF8093C6003196F5CF4AE050E0DC
:1047C00064E070E08CE494E00E94CA19E2E7F6E04D
:1047D0008491882341F09091C00095FFFCCF809395
:1047E000C6003196F5CF4091E10B5091E20B6091FC
:1047F000E30B7091E40B25E030E08CE494E00E9440
:104800009C1AE0E6F6E08491882341F09091C00084
:1048100095FFFCCF8093C6003196F5CF8091C00004
:1048200085FFFCCF8AE08093C60000EE1BE06AE0C3
:10483000F62EC0E0D0E0EDE5F6E08491882341F06B
:104840009091C00095FFFCCF8093C6003196F5CFC4
:10485000F801EC0FFD1F458156816781708525E0C9
:1048600030E08CE494E00E949C1A2496CC30D10570
:1048700011F78091C00085FFFCCFF092C600045F65
:104880001F4F2CE004301207A1F6D8C19091C00050
:1048900095FFFCCF8093C600319684918111F6CFAD
:1048A0008091C00085FFFCCF22C080EE9BE00E947B
:1048B0000B71109207021092060284E396E026C163
:1048C000809106029091070297FF15C0ECE0F6E098
:1048D0008491882341F09091C00095FFFCCF809394
:1048E000C6003196F5CF8091C00085FFFCCF8AE0ED
:1048F0008093C600A3C1009771F480E090E0A0E827
:10490000B0E48093390790933A07A0933B07B093A4
:104910003C0791DC24C00091390710913A0720919F
:104920003B0730913C07019763E070E00E9446E648
:1049300060FF04C0AF01481B590BCA01FB01EE0F19
:10494000FF1FE60FF71FE80FF91FEE0FFF1FEE0F17
:10495000FF1FE052F44F0583168327833087809131
:10496000060290910702893091050CF0A1C063E026
:1049700070E00E9446E68B01EC0160FF06C082E019
:1049800090E09C012C1B3D0BE90180912D02909140
:104990002E02A0912F02B091300280934107909394
:1049A0004207A0934307B093440740E050E86BE30D
:1049B00075E440932D0250932E0260932F02709362
:1049C000300240E050E060E071E4409339075093DA
:1049D0003A0760933B0770933C079FDB81E98C9F0C
:1049E000B0018D9F700D11246B5F7F4F882777FD7D
:1049F0008095982F0E942AE320916A0530916B05DB
:104A000040916C0550916D050E94AFE160933107B4
:104A10007093320780933307909334078FE5809F1C
:104A2000B001819F700D11246B5F7F4F882777FD48
:104A30008095982F0E942AE320916E0530916F0592
:104A400040917005509171050E94AFE16093350768
:104A50007093360780933707909338075EDB80E0CA
:104A600090E0A0E8B0E48093390790933A07A093D0
:104A70003B07B0933C0751DB80914107909142077F
:104A8000A0914307B091440780932D0290932E028A
:104A9000A0932F02B09330020E947B8C809106027B
:104AA0009091070201969093070280930602C6C078
:104AB00080E090E0A0E0B1E48093390790933A075A
:104AC000A0933B07B0933C0728DB0E947B8CE9EF67
:104AD000F5E08491882341F09091C00095FFFCCFD0
:104AE0008093C6003196F5CF8091C00085FFFCCF42
:104AF0008AE08093C6008FEF9FEF90930702809328
:104B0000060281E08093E00B85EF95E090935405D9
:104B100080935305DF91CF911F910F91FF900C94DB
:104B2000131C88E53CDA811103C0EEECF5E01CC0F3
:104B30001EDA8B010150110903301105C8F0EEEDAA
:104B4000F5E08491882309F479C09091C00095FF25
:104B5000FCCF8093C6003196F4CF9091C00095FFB2
:104B6000FCCF8093C600319684918111F6CF66C048
:104B700089E515DA811103C0E7EAF5E01BC0F7D932
:104B8000EB012197C330D105C8F0E7EBF5E0849144
:104B9000882309F453C09091C00095FFFCCF809307
:104BA000C6003196F4CF9091C00095FFFCCF809362
:104BB000C600319684918111F6CF40C08AE5EFD9C5
:104BC000811103C0E7E9F5E01AC0ABD9FE01EE0F91
:104BD000FF1FEC0FFD1FE00FF11FEE0FFF1FEE0F89
:104BE000FF1FE052F44F658376838783908726C04A
:104BF0009091C00095FFFCCF8093C60031968491C0
:104C00008111F6CF1BC08AE5CAD9811103C0E7E83C
:104C1000F5E011C086D96093E10B7093E20B8093AD
:104C2000E30B9093E40B0AC09091C00095FFFCCF7A
:104C30008093C600319684918111F6CFDF91CF9198
:104C40001F910F91FF9008958F929F92AF92BF9204
:104C5000CF92DF92EF92FF920F931F93CF93DF9348
:104C600000D01F92CDB7DEB785E499D9B82E811157
:104C700002C00E947B8C7AE8C72E73E0D72EE6E74D
:104C8000EE2EE5E0FE2E01E317E0812C912CA12C05
:104C9000F60181916F0183D9882361F1F8012081A8
:104CA00031814281538129833A834B835C8339D993
:104CB000F801608371838283938329813A814B81D8
:104CC0005C81F3E08F169104A9F00E94AEE19B0194
:104CD000AC01F70160817181828193810E94AFE113
:104CE000F7016083718382839383C4010E94A31AB6
:104CF000AA24A394FFEF8F1A9F0A84E0E80EF11C08
:104D00000C5F1F4FE4E08E16910409F0C1CFAA207A
:104D100089F00F900F900F900F90DF91CF911F911E
:104D20000F91FF90EF90DF90CF90BF90AF909F904A
:104D30008F9081CABB20A1F08DE397E00F900F9078
:104D40000F900F90DF91CF911F910F91FF90EF90F7
:104D5000DF90CF90BF90AF909F908F900C948983FD
:104D60000F900F900F900F90DF91CF911F910F91A7
:104D7000FF90EF90DF90CF90BF90AF909F908F907B
:104D80000895E7E3F5E08491882341F09091C00015
:104D900095FFFCCF8093C6003196F5CF8091C0007F
:104DA00085FFFCCF8AE08093C60086E497E00E94EE
:104DB000585CE9E2F5E08491882341F09091C000CD
:104DC00095FFFCCF8093C6003196F5CF8091C0004F
:104DD00085FFFCCF8AE08093C6000895EF92FF9292
:104DE0000F931F93CF93DF93CDB7DEB76E970FB6B8
:104DF000F894DEBF0FBECDBF8FE395E00E94408DDB
:104E0000BC0180E090E02CE330E040E050E00E9404
:104E100059E67F936F933F932F938AE195E09F9399
:104E20008F938E010F5F1F4F1F930F930E941CEAF9
:104E30000FB6F894DEBF0FBECDBFEEEFF9E0849160
:104E4000882341F09091C00095FFFCCF8093C6006D
:104E50003196F5CFF8018191882339F09091C00007
:104E600095FFFCCF8093C600F6CF8091C00085FFF0
:104E7000FCCF8AE08093C60060E0C8010E9451B474
:104E800080910811882329F110920811E0905B05A8
:104E9000F12C8701000F111F075C1C4EF801608187
:104EA0007181882777FD8095982F0E942AE32091B1
:104EB00036023091370240913802509139020E94F7
:104EC0008BE4181634F4F80111821082C7010E9495
:104ED00014946E960FB6F894DEBF0FBECDBFDF916F
:104EE000CF911F910F91FF90EF9008951F93CF9353
:104EF000DF938091480781110E947B8CC0910F073E
:104F0000D091100761E270E0CE010E94E4E90097C1
:104F100011F0EC01219680E542D8882341F011E0A0
:104F200080915505909156058C179D0708F010E06B
:104F300080914907882391F1212F41E0BE0186E449
:104F400097E00E94526183E52AD8882339F0809146
:104F50005505909156058C179D0768F086E497E0FB
:104F60000E94C95D11111AC08FE395E0DF91CF91C6
:104F70001F910C94678D06D8AC01662757FD60958C
:104F8000762F4093C4095093C5096093C609709366
:104F9000C70983E199E00E94D84FE0CFDF91CF911C
:104FA0001F9108950F931F93CF93DF9383E50E9482
:104FB000CF1F882389F10E94C21F8C018F3F91056A
:104FC00009F050F580E50E94CF1F882331F00E9440
:104FD000C21FEC0197FD20C002C0CDE0D0E0E4E5A7
:104FE000F3E081919191C817D907B1F083E0EA38D5
:104FF000F807B9F761E08C2F0E94DAE0602F8C2F60
:105000000E9413E1B8018C2F0E94C4DF279721F47E
:1050100010935D0500935C05DF91CF911F910F9177
:105020000895CF92DF92EF92FF920F931F93CF9349
:10503000DF9388E690E00E94E31F811154C08091C5
:10504000450783FD50C083E50E94CF1F882309F4E4
:105050004AC00E94911F6B017C0100913E0510E047
:10506000E801CC0FDD1FC75CDC4E0E94F7E27983BC
:105070006883C8010E94149420E030E04AEA52E4B8
:10508000C701B6010E9488E2181654F08FE395E03C
:105090000E941A8D60E088E095E00E9466B604C028
:1050A0008FE395E00E94678DE0913E0584E0E89FE4
:1050B000F0011124E15EFC4E208131814281538157
:1050C000C701B6010E948BE418166CF460E08DEF06
:1050D00094E0DF91CF911F910F91FF90EF90DF90BF
:1050E000CF900C9466B6DF91CF911F910F91FF90F6
:1050F000EF90DF90CF900895EEEEF6E08491882354
:1051000041F09091C00095FFFCCF8093C60031968E
:10511000F5CFE0913E0584E0E89FF0011124E15EC7
:10512000FC4E408151816281738121E030E08CE44A
:1051300094E00E949C1AEBEEF6E08491882341F003
:105140009091C00095FFFCCF8093C6003196F5CFBB
:10515000E0913E05F0E0EE0FFF1FE75CFC4E608142
:105160007181882777FD8095982F0E942AE3AB01F3
:10517000BC0121E030E08CE494E00E949C1AE7EE50
:10518000F6E08491882341F09091C00095FFFCCF18
:105190008093C6003196F5CF4091191350911A13A0
:1051A00060911B1370911C1321E030E08CE494E0BB
:1051B0000E949C1AE4EEF6E08491882341F09091DD
:1051C000C00095FFFCCF8093C6003196F5CF60916B
:1051D000371370913813882777FD8095982F0E9498
:1051E0002AE3AB01BC0121E030E08CE494E00E94B2
:1051F0009C1AEFEDF6E08491882341F09091C00075
:1052000095FFFCCF8093C6003196F5CF8FEF9FEFCF
:105210000E94248F4AE050E0BC018CE494E00E949C
:10522000CA19EBEDF6E08491882341F09091C0001B
:1052300095FFFCCF8093C6003196F5CF80913E0557
:1052400090E00E94248F4AE050E0BC018CE494E09E
:105250000C94CA1989E690E00E94E31F811115C0E1
:10526000EFEAF4E08491882341F09091C00095FF2B
:10527000FCCF8093C6003196F5CF3EDF8091C00011
:1052800085FFFCCF8AE08093C600089583E50E94E5
:10529000CF1F882319F00E94C21F01C080E08093B5
:1052A0004507EEEFF9E08491882341F09091C0002A
:1052B00095FFFCCF8093C6003196F5CFE6EFF4E082
:1052C0008491882341F09091C00095FFFCCF80939A
:1052D000C6003196F5CF80914507811103C0E8EEF5
:1052E000F4E03BC02CEE34E080E090E060E0ACE223
:1052F0004091450750E0082E02C0559547950A9405
:10530000E2F740FF1AC071E0760F662331F040915A
:10531000C00045FFFCCFA093C600F9014591549110
:10532000FA016491662351F0E091C000E5FFFCCFE3
:105330006093C6004F5F5F4FF3CF762F01962E5FCD
:105340003F4F8530910561F0672FD2CF9091C0001B
:1053500095FFFCCF8093C600319684918111F6CFE2
:105360008091C00085FFFCCF8AE08093C60008953D
:1053700083E50E94CF1F811103C0EEEFF9E00FC05B
:105380000E94C21F8D3308F08CE380930C020895B5
:105390009091C00095FFFCCF8093C6003196849118
:1053A0008111F6CF40910C0250E060E070E082EB9A
:1053B00094E00E947A1B8091C00085FFFCCF8AE0B8
:1053C0008093C600089583E50E94CF1F882349F18A
:1053D0000E94C21F823010F1E4E0FAE08491882339
:1053E00041F09091C00095FFFCCF8093C6003196AC
:1053F000F5CFE0E0F3E08491882341F09091C00084
:1054000095FFFCCF8093C6003196F5CF8091C00008
:1054100085FFFCCF8AE08093C6000895813009F4AF
:1054200044C088E40E94CF1F882391F00E94C21FCD
:105430008A3A91053CF0823321E092072CF081E317
:1054400091E002C08AEA90E090930D1680930C16CA
:1054500086E40E94CF1F882381F00E94C21F8F3FE5
:10546000910519F014F08FEF90E097FF02C080E0F3
:1054700090E0909309168093081682E40E94CF1F53
:10548000882309F454C00E94C21F8530910534F06E
:10549000883891052CF087E890E002C085E090E024
:1054A00090930B1680930A16089588E40E94CF1FEC
:1054B000882391F00E94C21F8A3A91053CF0823302
:1054C00021E092072CF081E391E002C08AEA90E0AB
:1054D000909307168093061686E40E94CF1F8823B8
:1054E00081F00E94C21F8F3F910519F014F08FEFD9
:1054F00090E097FF02C080E090E0909303168093C5
:10550000021682E40E94CF1F882389F00E94C21FE6
:105510008530910534F0883891052CF087E890E0CB
:1055200002C085E090E090930516809304160895DC
:1055300083E50E94CF1F882399F00E94911F20E0ED
:1055400030E04AE754E40E945DE50E94FCE260938B
:105550001102709312028093130290931402089523
:1055600088E50E94CF1F811111C089E50E94CF1FDD
:1055700081110CC08AE50E94CF1F811107C085E40C
:105580000E94CF1F811102C00C94E18C0E947B8C81
:1055900088E50E94CF1F882351F09FB7F89480912F
:1055A0000B01826080930B019FBF10921E0789E55B
:1055B0000E94CF1F882319F0899A10921F078AE54D
:1055C0000E94CF1F882351F09FB7F8948091080163
:1055D0008160809308019FBF1092200785E40E949C
:1055E000CF1F882311F0129A089508953F924F9289
:1055F0005F926F927F928F929F92AF92BF92CF9263
:10560000DF92EF92FF920F931F93CF93DF93CAE83D
:105610008C2EC3E09C2EC9E4D1E119E5A12E11E145
:10562000B12E09E011E1312CF40181914F010E946A
:10563000CF1F882309F458C0F3E03F124FC00E94E7
:10564000911F6B017C0120E030E040EA51E40E94B0
:1056500088E287FF3EC0A7019601688179818A812F
:105660009B810E948FE22B013C019B01AC01609168
:105670001D1170911E1180911F11909120110E9497
:105680005DE560931D1170931E1180931F1190931F
:105690002011A3019201F5016081718182819381C2
:1056A0000E945DE5F5016083718382839383F80135
:1056B00060817181828193810E9428E3A30192011C
:1056C0000E945DE50E94FCE2F801608371838283A1
:1056D0009383C882D982EA82FB8206C00E94911F0E
:1056E000688379838A839B8333942496F4E0AF0E96
:1056F000B11C0C5F1F4F84E0381296CFDF91CF9121
:105700001F910F91FF90EF90DF90CF90BF90AF90DF
:105710009F908F907F906F905F904F903F900895F3
:105720008F929F92AF92BF92CF92DF92EF92FF92B1
:10573000E8E5F3E08491882341F09091C00095FF63
:10574000FCCF8093C6003196F5CF40913107509140
:105750003207609133077091340722E030E08CE427
:1057600094E00E949C1AE4E5F3E08491882341F0E0
:105770009091C00095FFFCCF8093C6003196F5CF85
:10578000409135075091360760913707709138077F
:1057900022E030E08CE494E00E949C1AE0E5F3E023
:1057A0008491882341F09091C00095FFFCCF8093B5
:1057B000C6003196F5CF4091390750913A07609174
:1057C0003B0770913C0722E030E08CE494E00E94BB
:1057D0009C1AECE4F3E08491882341F09091C0009E
:1057E00095FFFCCF8093C6003196F5CF40913D07E1
:1057F00050913E0760913F077091400722E030E0F2
:105800008CE494E00E949C1A8FB7F89440916D113B
:1058100050916E1160916F117091701180907111A3
:1058200090907211A0907311B0907411C090751186
:10583000D0907611E0907711F09078118FBFE1E46D
:10584000F3E08491882341F09091C00095FFFCCF54
:105850008093C6003196F5CF2AE030E08CE494E0E6
:105860000E94A719EDE3F3E08491882341F0909121
:10587000C00095FFFCCF8093C6003196F5CF2AE09B
:1058800030E0B501A4018CE494E00E94A719E9E39B
:10589000F3E08491882341F09091C00095FFFCCF04
:1058A0008093C6003196F5CF2AE030E0B701A6011B
:1058B0008CE494E00E94A7198091C00085FFFCCF82
:1058C0008AE08093C600FF90EF90DF90CF90BF906A
:1058D000AF909F908F9008950F931F93CF93DF9376
:1058E0000E947B8CC091E00B1092E00B80912D0206
:1058F00090912E02A0912F02B09130028093410727
:1059000090934207A0934307B093440780912B02E2
:1059100090912C02909384058093830584E690E017
:1059200090932C0280932B020E944D1B81E00E94D9
:10593000EE830E94262210922D0210922E021092C7
:105940002F021092300288E50E94CF1F082F89E5B0
:105950000E94CF1F182F8AE50E94CF1FD82F011158
:1059600005C0111107C091E0982705C0112311F05F
:10597000982F01C090E090930F0220E030E040E8C3
:1059800050E46091390770913A0780913B079091FC
:105990003C070E9488E21816B4F140E050E060E84D
:1059A00070E44093290750932A0760932B07709364
:1059B0002C0720E030E040E752E4609161117091E3
:1059C000621180916311909164110E945DE5609372
:1059D0002D0270932E0280932F02909330020E942A
:1059E000D4200E947B8C4091290750912A07609116
:1059F0002B0770912C074093390750933A07609317
:105A00003B0770933C0780910F02811102C0112364
:105A100021F081E090E00E94462180910F028111E7
:105A200002C0002321F080E090E00E944621809196
:105A30000F02811102C0DD2321F082E090E00E947C
:105A400046210E941B2180E00E94EE83CC2379F145
:105A500080910F02882359F180E090E0A0E8B0E443
:105A60008093390790933A07A0933B07B0933C0784
:105A70000E941B2181E08093E00B10923907109265
:105A80003A0710923B0710923C070E94262280E0C2
:105A900090E0A0E7B3E480932D0290932E02A093B0
:105AA0002F02B09330020E94D4200E947B8C809100
:105AB000410790914207A0914307B091440780931A
:105AC0002D0290932E02A0932F02B093300280916A
:105AD00083059091840590932C0280932B020E9461
